:020000041008E2
:4000000000780408EB0208100D00000051030810510308105103081051030810000000000000000000000000000000004D0308104D030810000000004D0308104D030810DA
:400040004D0308104D0308104D0308104D0308104D0308104D0308104D0308104D0308104D0308104D0308104D0308104D0308104D0308104D0308104D0308104D03081000
:400080004D0308104D0308104D0308104D0308104D0308104D0308104D0308104D0308104D0308104D0308104D0308104D0308104D0308104D0308104D0308104D030810C0
:4000C0004D0308104D0308104D0308104D0308104D0308104D0308104D0308104D0308104D0308104D0308104D0308104D0308104D0308104D0308104D0308104D03081080
:400100004D0308104D0308104D0308104D0308104D0308104D0308104D0308104D0308104D0308104D0308104D0308104D0308104D0308104D0308104D0308104D0308103F
:400140004D0308104D0308104D0308104D0308104D0308104D0308104D0308104D0308104D0308104D0308104D0308104D0308104D0308104D0308104D0308104D030810FF
:400180004D0308104D0308104D0308104D0308104D0308104D0308104D0308104D0308104D0308104D0308104D0308104D0308104D0308104D0308104D0308104D030810BF
:4001C0004D0308104D0308104D0308104D0308104D0308104D0308104D0308104D0308104D0308104D0308104D0308104D0308104D0308104D0308104D0308104D0308107F
:400200004D0308104D0308104D0308104D0308104D0308104D0308104D0308104D0308104D0308104D0308104D0308104D0308104D0308104D0308104D0308104D0308103E
:400240004D0308104D0308104D0308104D0308104D0308104D0308104D0308104D0308104D0308104D0308104D0308104D0308104D0308104D0308104D0308104D030810FE
:400280004D0308104D0308104D03081010B5054C237833B9044B13B10448AFF300800123237010BD6864020800000000B8300810084B10B51BB108490848AFF30080084897
:4002C000036803B910BD074B002BFBD0BDE81040184700BF000000006C640208B830081014460208000000007047FFF7FDFF72B6104C114DAC4209DA21686268A368043B78
:40030000A2BFC858D050FAE70C34F3E70B490C4A00209142BCBF41F8040BFAE709480A490860BFF34F8F00F025F900F0FFF800F01DF8FEE7B8120910D012091068640208B1
:40034000746E02080040020808ED00E0FEE7FEE700B504207146084202D0EFF3098001E0EFF30880043000F017FFFEE708B5064B5B6813F4003F01D001F0A6F862B600F0A8
:4003800099F9002008BD00BF0000264008B5012000F016FE08BD00BF704700BF5C4AD2F8803303F00F0303F1D00152F8212002F00702032A04D0042A05D092B9554914E071
:4003C000554A116811E003F1C002514951F8222002F01F02112A06D0132A04D04FF4FA4103E04E4901E04FF400418BBB484BD3F8902502F00100D3F88825C2F30172D3F8D0
:40040000883513F0405F07D0414BD3F88835C3F30173012B02D102E0012300E0002303B108B9032A46D13A48D0F88025C2F31103D0F88425C2F30C02D0F88005C0F300603B
:400440000130B1FBF2F202FB03F2B2FBF0F131E0012B2FD12E4BD3F8402602F00100D3F80026C2F30172D3F8003613F0405F07D0274BD3F80036C3F30173012B02D102E050
:40048000012300E0002303B108B9032A12D12048D0F8002602F07F02D0F80036C3F30423D0F80006C0F3044002FB01F2B2FBF3F2B2FBF0F1164BD3F88033C3F3011321FA53
:4004C00003F215494A601648D0F89030C3F3072301330069000E0130B2FBF0F08860B2FBF3F3CB600B6103F5742202F23F220D48A0FB0202C2F387420A7503F2E7330A4A87
:40050000A2FB03239B098B61DB03CB61704700BF0000264000127A008C42020800366E010000214083DE1B43D34D621008B50D4801F0D8F8FFF730FFFFF730FF0022114631
:40054000042000F0EFFA084800F082FB074B1B6893F8513013B1064800F0EAFB00F02CFA08BD00BFD829081084640208506E02080826081008B500F06CFE074AD2F888305C
:4005800043F47003C2F88830BFF34F8FBFF36F8F00F063FE08BD00BF00ED00E008B544F20603984234D011D841F20103984238D003D8B0F5805F17D008BD43F21203984232
:4005C0003FD044F20103984240D008BD44F2080398420CD013D344F2140398424FD045F20203984253D008BD2B4807F03FFB0021084601F061FA002000F0A6F808BD4B784D
:40060000254880F8413008F06DFE00F0BDF808BD224B1B78002B3DD100F0B6F800F004F908BD0B78042B35D1CA781B4B93F844309A422FD100F0A8F8174A936C01339364B8
:4006400008BD00F0A1F800F005FF08BD144B1B685B6A1A78102A01D10522DA70104B1B685A6A49795171586A08F0C0FD90B108F0F5FD0B4B1B68586A08F0B8FD08BD422284
:40068000054801F084FF074808F002FE08BD002000F05AF808BD00BFAC420208596E0208786602083443020808B5002000F092FF08BD00BF08B500F053F8154800F098F89E
:4006C00000F03AF802F02CFEFFF7EEFF00F042F8012807D010B102280BD00DE008220D4B9A6009E00C4B9B6C33B10822094BDA6002E00822074B5A60074B9B6C002BE1D050
:40070000054800238364443003F0CCFFDAE700BF9D05081000003240AC420208044B984204D14B681B681A78024B1A70704700BFBF0001000466020808B5024801F00AFF44
:4007400008BD00BF1D070810014B1870704700BF04660208014B1878704700BF0466020808B54FF0007000F07BFD0223044A9360A2F5A06293600822024B9A6008BD00BF7A
:400780008005324000003240154B1B78022B10D1144A9360A2F5A062D3600822124B9A6070471249C95C012901D90132D2B2013301E000221346002BF3D04AB90223094A46
:4007C0005360A2F5A06293600822074B9A6070470223044A9360A2F5A0629360704700BF596E02088005324000003240586E020888B108B5094AD062094B1B7833B9104677
:4008000000F0F8FF0122064B1A7000E0002020B901F012F808BD0348704708BDF8420208056602080100160008B501F091F808BD1F4B98422DD00CD840282ED003D8E8B1A8
:40084000102828D02FE0802829D0B0F5807F28D029E0184B984228D006D8B0F1204F0DD0154B984212D01EE0144B98420AD00133984209D0023B984215D101E0002070472A
:400880000F4870470F4870470F4870474FF4A0007047074870470D4870470D4870470D487047034870470C4870474FF4A400704706005200010000F0090000A0040000F0B9
:4008C000010052000200520003005200010050000200500005005200FF00520038B5124B1B6893F83130012B04D840F2C3110F4800F042FC0C4B1D682A6AB5F8B030134411
:400900002C46D5F8B420D358002B0BDB084B1868FFF78EFF6B6801229A6063689B68002BFBD138BD034838BD506E02089C2708100C660208020050001A4B186128B10223DB
:400940000370FF23437000234380174B1B6893F850202AB300B583B0B3F93830ADF80030002301931149684600F0B2FBBDF90030002B08DB590903F01F03012202FA03F3DF
:400980000B4A42F82130084B1B6893F8513023B102220849012000F077FA03B05DF804FB704700BF0C660208506E02088546020800E100E03D47020808B50248FFF7BCFF0D
:4009C00008BD00BF2066020838B50B4B1B68D3F8B4301B58002B0DDA0D4604460B0C1B0423B140F2D521054800F0C6FBA9B26160002038BD024838BD506E0208DC270810C9
:400A000001008A0038B50368002B01DA002300E0094B73B90D460446C2600B0C1B0423B140F2BB21054800F0A7FBA9B2A160002038BD014838BD00BF01008A00DC27081080
:400A400038B504460D4619B99921084800F094FB074B1B68D3F8B4301B59002B03DAE3682B60002038BD034838BD00BF1C280810506E020801008A00254B1B6893F8313019
:400A800083423AD900293AD00B6813F01F0F38D170B50D4604461E4B1B6893F83130984204D340F2C3111B4800F066FB184B1B68186AB3F8B03004FB0304174E34602A68F5
:400AC000D2080021686801F06DFD00212046FFF77BFF346825B940F293310E4800F04CFB2A4600212046FFF78DFF60B900210A4B1868FFF769FF40B970BD0848704707487A
:400B0000704706487047064870BD054870BD00BF506E0208DC2708102466020803018A0001018A0010B504461346B2B9A9B9124B1B6893F83130984204D340F2C3110F48A5
:400B400000F01AFB0C4B1B681A6AB3F8B03004FB03240B4B1C60002010BD43B149B1084A51609360111D2046FFF786FF10BD054810BD044810BD00BF506E0208DC2708100D
:400B80002466020803018A002DE9F0411B4B1B68DC68236883422CD90D464609A0EB4610012303FA00F819B900F053FB074600E00027124B18680368002B01DA002300E0F9
:400BC0000F4B83B9626852F8263018EA030F05D023EA080342F82630002400E0094C0021FFF7F2FE00E0084C25B9384600F035FB00E0064C2046BDE8F08100BF2466020853
:400C000001008A00020188000301880004018A000B4B1B68DB681A6882420CD94109A0EB4110012202FA00F05B6853F82130184203D004487047044870470448704700BFB3
:400C4000246602080101880004018A0000018800024B1B680BB9014B18607047306602082DE9F8430446884691461D46089F2C4B1B681BB9B5212B4800F07EFA284B1B68D0
:400C80002C2000FB04F01C18EEB21E50C5F3072363602D0CA560244B1B6893F831309E4204D340F2C311214800F066FA1E4B1B68196AB3F8B02006FB02162661666893F89D
:400CC00032309E4204D340F2DF11184800F054FA154B1B681D6A803605EB46156561A668330C1B0423B14FF4FF71104800F044FA330C1B0423B140F2FF110C4800F03CFA83
:400D0000B3B243EA0646AE60C4F81C90C4F820800023A36117B1B7F90030A381BDE8F883306602085C280810506E0208DC270810F0B58FB0044618B95221274800F01CFAEA
:400D4000A369072B03D95621234800F015FAE36A1BB95821204800F00FFA236B1BB959211D4800F009FA07AD04F114060FCE0FC537682F6002AD26460FCE0FC533682B60B5
:400D8000164B1B68B3F93620079B1344ADF83030089B0D93A26AE16A0CAD00953B460A98FFF75EFF00210091069B0A460598FFF757FF216B284600F08BF9BDF93030002BB6
:400DC00008DB590903F01F03012202FA03F3044A42F821300FB0F0BD5C280810506E020800E100E0F8B506460F461D4614461AB9FD211F4800F0C0F91E4B1B681BB9FE212F
:400E00001B4800F0B9F91B4B1B682C2101FB063001FB07314B68012202FA03F31B04466802FA06F60269EAB18F69EFB91268002A01DA002200E0104AC2B922881343236005
:400E40000369DC6001238B614D620469330C1B0423B140F2BB21094800F08EF9B2B2A2600020F8BD0648F8BD0648F8BD0548F8BD5C2808103066020801008A00DC27081071
:400E800004028A0007028A00F8B505460F4616460E4B1B6823B94FF4AF710D4800F06CF90A4B1B682C2404FB0534236A23B94FF4B171074800F060F9E369B34204D9236A30
:400EC00043F826700020F8BD0248F8BD306602085C2808100A028A0038B504460D46074B1B6823B94FF4C871054800F045F9034B1B682C2202FB0434A56238BD3066020859
:400F00005C28081070B582B000230193044620B940F2D111284800F02FF9236923B94FF4E971254800F028F9636923B940F2D311214800F021F9236A23B94FF4EA711E4827
:400F400000F01AF96369DD682A0C20D012041A601B682069194B1B68D3F8B430C358002B15DA01A9FFF76CFD60B9019803681E0CDBB2E269934206D2226A52F8233013B10E
:400F8000984700E0002631462069FFF71DFDADB275B16369ADB21D601B68636A1BB198470023636202E0A36A03B198470023A36163691B6802B070BD5C280810506E0208F1
:400FC00010B50446074B1B6823B940F2B111064800F0D2F8034B1B682C2000FB0430FFF791FF10BD306602085C28081010B50446104B1B6823B940F22B210F4800F0BCF818
:401000000C4B1B682C2202FB0434B4F90C30002B0DDB5A0903F01F03012101FA03F32032064941F82230BFF34F8FBFF36F8F002010BD00BF306602085C28081000E100E0B7
:4010400010B504460D4B1B6823B940F24B210C4800F092F8094B1B682C2202FB0434B4F90C30002B08DB590903F01F03012202FA03F3044A42F82130002010BD30660208FB
:401080005C28081000E100E038B50D4B9A680D4B9A420FD10D46044621B940F237110A4800F06AF804F11003064A52F8230042F8235038BD1030054B53F8200038BD00BFCD
:4010C00000ED00E0004002089C2808100000081048B338B504460D464368072B03D93221134800F049F8B4F900306268002B08DB5201D2B203F1604303F5614383F800236B
:4011000005E003F00F035201D2B20A49CA540A4B9A680A4B9A4208D12946B4F90000FFF7B3FF002038BD06487047002038BD00BF9C28081014ED00E000ED00E00040020896
:401140000100560010B5044605E0084B186800F077F8A4F50044B4F5004FF6D8044B186800FB04F000F06CF810BD00BFA8420208A442020801BEFEE738B50D46044C18225F
:401180000146204601F016FAA5610020FFF7F2FFB04B0208FEE700BF08B50268254BDA6142681A6282685A62C2689A620269DA6242691A6382695A63C2699A631E4A916A05
:4011C000D963D16A1964516A5964516B9964926BDA64F1EE103A13F0900F27D0026A154B1A65426A5A65826A9A65C26ADA65026B1A66426B5A66826B9A66C26BDA66026C9F
:401200001A67426C5A67826C9A67C26CDA67026DC3F88020426DC3F88420826DC3F88820C26DC3F88C20026EC3F89020FFF7B2FF08BD00BFB04B020800ED00E000000000C8
:401240000230800803D001300238FCD100BF00BF7047EFF3108072B6704780F31088704710B5044620F07F6323F4402323B140F2B3511348FFF780FF14F4700F16D014F09B
:40128000806F01D1002101E04FF4800114F0006F01D041F4000114F0807F01D041F4801114F0007F03D041F4001100E00021054A536823EA01031C435460536810BD00BF81
:4012C000E02808100000264010B30246C3680BB303680BB330B40579114B03EB85035C682346002103E0934205D019465B69002BF9D1012000E0002080B124B9084B03EBB4
:4013000085056A6000E04A6111610023536105E000207047002070470020704730BC70473466020850B310B402460479164B03EB840359680B4602E0934204D05B69002BE6
:40134000FAD1002000E00120D0B18A420ED14B6933B10D4A02EB8404636000221A610FE0094B03EB84040023636009E01A69596951615A6922B11B69136101E000207047CC
:401380005DF8044B704700BF3466020830B583B004460D46022808D9042806D0032804D040F6B2112848FFF7E7FE6B1EDBB2012B08D9042D06D0082D04D040F6B3112248D3
:4013C000FFF7DAFE214800EB84004468042D12D0012D1AD111E0A3681D420AD1E3681A6800925B6801932368294668469847174B9C61646902E0002000E0002014B3144BA8
:401400009842E8D1012DE6D11CE0022D01D104E01C466369002BFBD103E00C4B9C6904B1246900200CE0A3681D4208D1E3681A6800925B6801932368294668469847246994
:40144000002CF0D103B030BDE028081034660208FF00420010B5174BDB682BB101210220FFF794FF044600E00024E4B9FFF7F1FE104BDB681BB104210220FFF787FF0E4B71
:4014800059680E4A0A4042F01B025A6059680C4A1143596059681143596059680A435A605B6830BF04E002210846FFF76FFF054C204610BD34660208000026400000FC0F02
:4014C000003A0280FF00420008B5FFF7C2FE074B5A6807490A4042F468525A605A68114059605B68FFF7B9FE08BD00BF00002640FF00FC0F10B5044620B940F6A1211748B5
:40150000FFF73AFE164A1368DB6803F5F2431B6823601368DA6802F5F04212686260D96847F604028A58A260D96847F608028A58E260D96847F60C028A582261D96847F687
:4015400010028A586261D96847F614028A58A261DA6847F61803D358E36110BDE0280810506E020810B5044620B940F6C9211748FFF702FE164B1B68DA68616802F5F04208
:401580001160D968A06847F604028850D968E06847F608028850D968206947F60C028850D968606947F610028850D968A06947F614028850D968E06947F618028850DB681F
:4015C000226803F5F2431A6010BD00BFE0280810506E020870B50446012804D94FF426713A48FFF7C9FD3A4B9B682BB101210846FFF7CCFE054600E00025002D5ED1FFF783
:4016000028FE0646324B9B681BB104210120FFF7BDFE304B1B6893F8432042B19B68D3F8E03013F0100F02D02B48FFF763FF4FF0B0539B899BB223B14FF0B0539B899BB23F
:4016400001E04FF48073B3F5807F03D1204600F0D3FF1AE0214A136943F004031361012C01D030BF07E020BF194B1B7803B120BF0122174B1A70174B1B681A68D3F89430DF
:40168000D35803F00303022BE4D0124B1B6893F8432042B19B68D3F8E03013F0100F02D00D48FFF75FFF3046FFF7D7FD084B9B684BB108210120FFF769FE04E00221012088
:4016C000FFF764FE064D284670BD00BFE028081034660208506E02085066020800ED00E0FF004200014B1860704700BF506E020810B5012902D0082929D02EE01A4B1B7898
:40170000012B2CD00320FFF783FA184B984228D0FFF79FFD164B1860022001F003FE044601F00BFE022C05D1032805D0052805D1002404E00F4C02E0002400E00D4C0D4BF2
:401740009C420FD10A4B1868FFF787FD0AE0084B1868FFF782FD002404E0064C02E0054C00E0044C204610BD576E02080101880070660208FF00420008B502291CD00829BB
:4017800014D001291ED1124B1B78012B1CD0FFF760FD104B5860022001F0C4FD022815D00C4B5868FFF759FD0B4808BD094B5868FFF753FD002008BD064B5868FFF74DFDD0
:4017C000054808BD044808BD034808BD002008BD576E020870660208FF00420010B5044C2046FFF79FFD04F11800FFF79BFD10BD1844020890B110B5094A9060C36A03B1DC
:40180000D3600024074B1C70074B1C70074B1C60074B1C7000F048F9204610BD0548704770660208606E0208646E0208686E0208656E02080100160010B598B03B4B14ACC6
:40184000186859689A68DB680FC44422002103A800F0A8FE364B039314AB059341F62403ADF8183004238DF81A301B22ADF82420ADF8262003228DF828208DF8293006238E
:401880008DF82A3008238DF82D304023ADF8483001238DF84C30274C2046FFF715FD04F11800FFF711FD09A801F092FD0346002839D1214B0493214B9B689B6BA3B11968AC
:4018C0005A689C68D868CDF82E10CDF83220CDF83640CDF83A0019695A69CDF83E10CDF842201B8BADF8463003A801F039FD0346B0B90122124B1A700023124A1370124A62
:4019000013700E4B9B681A6A01929B6ADB88ADF808300E23ADF80A3001A80AF031FB034600210A4A1160184618B010BD902A0810591E081018440208444C0208706602082A
:40194000576E0208586E0208596E0208686E020808B502F097FE08BD08B5044B1B689847034B1B6803B1984708BD00BF946602088066020808B510B1034A52689047034B1A
:401980001B6803B1984708BD946602088066020870B5C0B006460C4615464FF480720849684600F0F4FD05E016F8012B6A401DF80250013C002CF7D1284640B070BD00BF0A
:4019C000A02A081008B5FFF744FC08BD08B5FFF744FC08BD08B50120FFF732FB08BD00BF08B50120FFF702FB08BD00BF08B5094B58601960012208491046FFF745FA034631
:401A000028B9002205490120FFF73EFA0346184608BD00BF94660208751908105919081038B515460B46024601210020FFF7DAF9044618B129460120FFF74EFA204638BD7F
:401A4000704700BF704700BF0020704700487047110016000048704711001600004870471100160000487047110016000048704711001600004870471100160000487047C0
:401A8000110016000048704711001600004870471100160000487047110016000048704711001600704700BF08B5024800F03CFD08BD00BF10440208F8B5022872D8002995
:401AC00072D10022134606E03B4CE45C012C01D90132D2B20133002BF6D0012A0CD1374B1B681C6801EB8102930023445B681B79023BDBB2012B59D8314B1B78002B57D1BE
:401B0000304B1970E0B92D4F3C68236801EB8105AA009D186668C1EBC1014B001E44B18829822168114449686468E45A0C8039680C682244526849680B445B8853801EE0B1
:401B400001281CD11D4F3C68236801EB8105AA009D186668C1EBC1014B001E44B1892982216811444D68616819440989298039680C682244526849680B445B895380124BD8
:401B800018700E4B1B6818680E4B1B7803EB83039A00104405F0C8FF034650B90121084A117006E0094B04E0084B02E0084B00E0084B1846F8BD00BF586E0208786602088D
:401BC000596E0208566E0208656E02080100160002001600FF00160070B439B9144B1B681B689968CE7F00231D460EE0104B1B681B68D968CE7FF6E7CA5C52B10133CC5C97
:401C00001B2C01D0134400E00125B34201D2002DF2D05DB101338279CA54002204E0D4180134855C0D550132052AF8D970BC70477866020870B504460AF0BCF90546D0B9C3
:401C40000E4B1968086A228902EB82029300143B03445A6812F0007F0DD0E67B1B695A68CB69D21A06EB4606B318A28821680448184400F08CFC284670BD00BF78660208CF
:401C80005C6E020830B587B002891A4B1B685B699B889A4229D1044601AB07C883E807000022ADF81020A289ADF8122040228DF814201846FFF7BEFF054680B923681B7806
:401CC00003F002039BB22BB10B4B1B6821460B48984704E0084B1B68214609489847094A137803F0FE03137000E00025284607B030BD00BF786602087C66020805000100FB
:401D000006000100606E02084288531E9BB20F2B1AD84178D1B910B40F4B1868046A02EB82029300143B23445A6812F0007F0FD01B695A68C369D31A01EB41011944074BA9
:401D40005B5A1380002004E0012070470120704700205DF8044B7047786602085C6E020800B583B00023ADF804308389ADF800300389ADF8023012238DF80430084B1B7834
:401D800013F0010F09D129B18DF80510684609F03DFA02E0C06809F059FA03B05DF804FB606E020810B4044688B10023194606E0104A52F82320944200D1012101330D4AC5
:401DC0001279934206D20029F2D0002003E00021094800E0002050B949B9064B1B792BB9044A42F823400133137100E003485DF8044B70476C6E020801001600030016003A
:401E000070B506460D460020044606E0084B53F824302946304698470134054B1B799C4204D2044B1B7813F0010FEFD170BD00BF6C6E0208606E020883792BB100207047FF
:401E4000C25C32B9013300E00023052BF8D9002070470120704700BF70B58AB004460D46BB4A137843F00103137044F20A03984200F0AF8136D842F20403984200F0D980C4
:401E800014D841F20103984200F0FD8003D8B0F5805F65D0A5E241F20203984200F0F68041F20303984200F02A819AE244F20603984200F0DC810AD843F21203984200F09F
:401EC000AD8044F20403984200F02C8189E244F20703984200F0808144F20803984200F0C2817EE245F20E03984200F067821BD845F20203984200F017820AD844F2100325
:401F0000984200F0698145F20103984200F0EE8167E245F20303984200F01F8245F20C03984200F024825CE245F21403984200F04E820AD845F20F03984200F0428245F2BC
:401F40001003984200F040824BE245F21703984200F0408246F20103984200F0C48140E27C4B1E683046FFF767FF60B1304606F0E9FD784E00213068FFF72EFE012130686E
:401F8000FFF72AFE37E0744B1868836A1B791BB34FF0B05696F8041601F03F0396F8052602F03F0243EA821196F8033603F01F0341EA033296F8003603F07F0342EA43436B
:401FC000026B1370644A1168096BC3F3072048701268126B1B0C93705F4E3368186B06F0B1FD33680021186BFFF7F6FD33680121186BFFF7F1FD584B1B68986A023007F094
:4020000059F90023049305933F238DF8103004A806F0BCFD0222514B1A70E2E100234F4A13704F4A13700A20FFF78CF8FFF7D6FBD7E14C4B1B6813F0010F40F0D28100231C
:40204000ADF810308DF81230434E33689B6A93F900308DF8103004A806F0B2FD33689B6A93F901308DF8103001238DF81130FF238DF8123004A806F0A3FD3A4A136843F048
:4020800001031360ADE1FFF7BBFEAAE14978364B1B88ADF81030002319E0344A32F81320ADF808209DF8092012B93148825C00E00022012A0AD92D4A12F81320914205D106
:4020C0002A4A32F81330ADF8103002E00133002BE3D09DF81130FF2B05D104D140F2CA312448FFF749F8BDF81030ADF81C30ADF81830C3F3072329781F4AD15471E10B78F4
:40210000002B40F06E810B7A33B91C4B0022DA809A801B4A1A604B600D4A137803F0FE0313705EE1CB78002B40F05B8149790E4B1B88ADF81030002333E00C4A32F81320BF
:40214000ADF80C209DF80D20E2B90948825C1AE0606E02084844020878660208576E0208596E0208686E0208A02B0810546E0208586E0208A42B0810646E0208B0660208D0
:40218000686402080022012A0AD99E4A12F81320914205D19B4A32F81330ADF8103002E00133002BC9D09DF81130FF2B05D104D140F2CA319448FEF7DFFFBDF81030ADF819
:4021C0002030ADF81030C3F3072301218F4AD15407E1FFF715FE04E12B78002B3FD1AB78012B02D100228A4B1A706978894B1B88ADF80C30002319E0824A32F81320ADF830
:4022000010209DF8112012B98348825C00E00022012A0AD97B4A12F81320914205D1794A32F81330ADF80C3002E00133002BE3D09DF80D30FF2B05D104D140F2CA317248E6
:40224000FEF79AFFBDF80C30ADF82430ADF80C30C3F30723FF2B02D0A978704AD15402226F4B1A70BDE002226D4B1A70B9E0FFF7C7FD6C4B1B7813F0010F00F0B280644B3D
:402280001B78012B03D10222614B1A70A9E0032B03D100225E4B1A70A3E0022B40F0A18000225B4B1A70604B1B685B685F4A1178C1EBC10203EB42039A79002A00F09180FB
:4022C0009B88002B00F08D80594B1B78002B40F088800120FFF7F0FB002840F0828001224B4B1A707DE0FFF78BFD7AE00B88ADF800309DF801301BB90221474AD15405E065
:4023000023B940F286314048FEF736FF6A7829883C4B23F812106B780021464AD15429462046FFF76DFD5CE00B88ADF804309DF805301BB90021384AD15405E023B940F2E0
:4023400086313148FEF718FF6B7800212F4AD15429462046FFF754FD43E00B88ADF810301723ADF8123004A808F05CFF39E00A89531E9BB20F2B13D98B89ADF81030ADF87A
:40238000122012238DF8143001238DF8153004A808F03CFF234A137803F0FE03137020E00846FFF76FFC014620B929462046FFF727FD01462846FFF7D3FC12E0FFF720FD74
:4023C0000FE0FFF71DFD0CE0FFF71AFD09E0FFF717FD06E00846FFF797FC29462046FFF70FFD104B1B7813F0110F09D00D4A137803F0FE031370104B1B6829462046984789
:402400000AB070BD546E0208A42B0810A8660208596E0208A02B0810586E0208AC660208576E0208606E020878660208566E0208656E0208646E02087C6602081C4B1B685E
:40244000002B34D01A4B5B681B685A8803899A422DD18388012B2AD103681B78022B26D810B588B0044603AB07C883E807000022ADF81820A289ADF81A2040228DF81C207D
:402480001846FFF7D7FB80B9A389ADF8043000238DF806300294064B1B6801A905489847054A137803F0FE03137008B010BD7047BC660208BF000100606E020800B587B05D
:4024C00000238DF81730009301930293039304930123ADF80430074B5B681B685B88ADF808300DF1170300936846FFF7A3FB07B05DF804FBBC660208B0F5803F11D208B587
:4025000083B245F20202934207D045F20E02934205D10846FFF792FF01E0FFF7CFFF002008BD0020704700BF50B110B5064C60600648FFF737FC63685B681BB1236010BD9F
:402540000348704710BD00BFBC660208F924081001001600044B18605B6813B15860002070470248704700BFBC6602080200160010B501390244904207D010F8013B11F839
:40258000014FA342F7D0181B10BD002010BD10B5431E0A44914204D011F8014B03F8014FF8E710BD02440346934202D003F8011BFAE7704710B5034642B111F8014B03F895
:4025C000014B013A002CF7D11A4400E010BD934202D003F8014BFAE710BD0000F8B500BFF8BC08BC9E467047F8B500BFF8BC08BC9E4670470000000001B40248844601BC35
:40260000604700BF194902080300000001000000010000000000000005036000040000000100000000000000010000000604600008000000E46502088D03081000000300E5
:40264000000010000100002801000000090000000018000000000000020003280100020003000000002A0000000000000300002A01000201030000000E00000044430208CF
:40268000040003280100020005000000012A0000000000000500012A0100020105000000020000004C430208060003280100020007000000042A0000000000000700042A46
:4026C00001000201070000000800000054430208080003280100020009000000A62A0000000000000900A62A0100020109000000010000005C4302080A0000280100000054
:402700000D00000001180000000000000B000328010020000D000000052A0000000000000C00052A000020010D00000004000000644302080D00022901010A030D0000006E
:40274000020000006C4302080E000028010000001000000002180000000000000F0003280100040010000000062A0000000000001000062A00010401100000000100000067
:40278000744302080100030005000700090000000A000C000D0000000E00100047656E6572617465645F536F757263655C50536F43365C70646C5C647269766572732F7022
:4027C00065726970686572616C2F6970632F63795F6970635F6472762E68000047656E6572617465645F536F757263655C50536F43365C70646C5C647269766572735C70C2
:4028000065726970686572616C5C6970635C63795F6970635F6472762E68000047656E6572617465645F536F757263655C50536F43365C70646C5C647269766572735C7027
:4028400065726970686572616C5C6970635C63795F6970635F6472762E63000047656E6572617465645F536F757263655C50536F43365C70646C5C647269766572735C70EC
:4028800065726970686572616C5C6970635C63795F6970635F706970652E630047656E6572617465645F536F757263655C50536F43365C70646C5C647269766572735C704A
:4028C00065726970686572616C5C737973696E745C63795F737973696E742E630000000047656E6572617465645F536F757263655C50536F43365C70646C5C6472697665EC
:4029000072735C7065726970686572616C5C737973706D5C63795F737973706D2E6300000000204000002440000000400000000000002340000030400000314000009F4007
:40294000000022400000104002020202020202020210101D800017007500FF030602063604102000000000007FC0000000040000000000000019324B647D00804000080B43
:40298000100000000000FF012002001F00800004FF081018001000140018001C4044484C5000000008100000080000000400000004100000001200000421000000210000C3
:4029C0000016000040114002C41300138013A013200000001C0000000000214000002540000001400000344000002440000031400000324000001F410000234000001140EC
:402A0000010101010101010101101010800019005500F0000501053B04101C01010000000FC000000004000001010101011D3A57789600082000101208000000001F000002
:402A40000010000F002000023F06080E00080009000A000B24282C3034000000100000009000000088000000080000008000000004F0000000F00000400200002005A0001D
:402A8000D00100018001A00120000000100000002400030030000100280002002400020000316253C4F5A697B988DBEA7D4C1F2E4372211087B6E5D4FACB98A93E0F5C6D5A
:402AC00086B7E4D5427320113F0E5D6CFBCA99A8C5F4A796013063527C4D1E2FB889DAEB3D0C5F6EF9C89BAA84B5E6D7407122137E4F1C2DBA8BD8E9C7F6A59403326150F6
:402B0000BB8AD9E87F4E1D2C02336051C6F7A495F8C99AAB3C0D5E6F4170231285B4E7D67A4B1829BE8FDCEDC3F2A1900736655439085B6AFDCC9FAE80B1E2D344752617B5
:402B4000FCCD9EAF38095A6B4574271681B0E3D2BF8EDDEC7B4A192806376455C2F3A0914776251483B2E1D0FECF9CAD3A0B586904356657C0F1A293BD8CDFEE79481B2A75
:402B8000C1F0A3920534675678491A2BBC8DDEEF82B3E0D1467724153B0A5968FFCE9DACFFFF000047656E6572617465645F536F757263655C50536F43365C70646C5C6D7C
:402BC0006964646C65776172655C626C655C63795F626C655F6761702E680000000404000104080002041400030C200004042C000506480061740810F5780810F5780810C2
:402C0000F5780810F5780810DD5E0810B15F0810F5780810F5780810F5780810F5780810F5780810F5780810F5780810F5780810F5780810F578081089760810D576081063
:402C40000D6D0810116F0810ED720810D94D08100000000060300810003008100800000061E9081000000000D02E08101C2E08100F00000000000000000000000000000094
:402C8000000000000000000001200000B185081006200000F586081007200000C585081008200000B586081009200000B58708100A200000B18408100B20000079870810B1
:402CC0000C20000041870810102000000D850810112000008D8408101220000091860810142000002D870810152000002585081017200000E18408100E20000011850810AC
:402D0000ACFD000087890810ADFD00007B880810A0FD0000F1890810A1FD0000DB880810A2FD000017890810A5FD0000E78A0810A6FD00004B8A0810A8FD00004D88081011
:402D4000A9FD000023880810AAFD00003F890810ABFD0000AD8A0810AFFD00003D890810C3FD0000998A0810B0FD0000118A0810B2FD00005F8A0810051400006B850810B6
:402D80002D0C0000458608107B0C0000F38508107C0C0000E987081027200F2028201020292010202B200A202C200B202D200D202E200C204E2017200000010001000001E1
:402DC00000010202030002000000000002020100020000010001000501000502020300020000000000020501000500006DE10810D5E20810DDE1081001010B0102028102FF
:402E0000820503040403840906090709080909090A09050A0C0B0D0D0E0E0000010000000100000000000000020000000400000002000000030000000700000005000000A6
:402E4000040000000A00000008000000050000000C0000000B000000060000000E0000000D00000007000000100000000F00000008000000130000001100000009000000A4
:402E800016000000140000000A0000001700000017000000FF00000018000000180000000B0000001B000000190000000C0000001D0000001C0000000D0000001F000000D1
:402EC0001E0000000E00000021000000200000000100000029060910FEFFFFFFF5040910010000002906091006000000ED070910F8FFFFFFF5040910180012001105091053
:402F0000A000000C6902091047FFEDFBF5040910E8000C006104091000012000710309101FFED3FFF5040910A000000C5D0C09105FFFFFFBF504091000020000B50A09108E
:402F4000FFFDFFFFF5040910000C000071010910FFF3FFFFF5040910000A0000150409100100000035040910FEF7FFFFF504091000200000B502091000400000650B09105F
:402F8000FF9FFFFFF5040910FFFFFFFFFB040910FFFFFFFF6901091000800000650109100000010061010910FF7FFEFFF50409100080010059010910FF7FFEFFF504091047
:402FC0000000800355010910FFFF7FFCF504091000801F0A5D010910FF7FE0F5F5040910000000000000000000000000000000008700000000000000000000000000000048
:40300000810000000000000000000000820000000100000001000000010000000200000002000000020000000400000003000000030000000600000005000000F10000007E
:403040000700000007000000F20000000900000008000000FF0000000A0000000A00000002000000ED10091001000000ED1009100E000000E10F0910020000002510091096
:403080000C000000C90F091002000000651009100C000000C90F09100E000000ED1009100C0000002911091002000000C90F09100E0000006D110910000000002DE9F05F06
:4030C00000250746041D00F1180840682E4E4FF6FF7A88B1616879B180070DD1207A80070AD198F8280038B12849084600F0A0FB10EA0A0002D044E0354642E02289A37A73
:40310000DFF88C90206858B1C9F800000025A9F80420A9F80650A9F808302946FFF742FAA07A801D00F0FF0B5946606800F072F8050021D1404601F06BF905001CD1E06871
:4031400020B1384600F0CAFA050015D1B9F80400B9F80610884206D3401A80B2594600F0A7FE20B100E05046354628B109E0A07A801DC0B200F0C4F900F0D8F905490120F8
:4031800008702846BDE8F09F0100160025340810C46602084C44020803480078012801D100F016BD704700004C44020810B500F071FB0449002008608880C88008810249B3
:4031C000087010BDC46602084C44020870B5044600208A0703D001F00302891A091D084B89B2DA889E885518B54206D81D682A442260DA881144D98070BD024870BD000089
:40320000C4660208030016000148008970470000C46602082DE9F84705460C460020890000908A466846FFF7D1FF07004BD12748009B0022036017E003F82220062A08D225
:40324000234803EB820100EB820046784E70408807E005EB8200183803EB820186784E700088521C4880D2B2A242E5D300251EE005F1010909F0FF0015E003EB850203EB9A
:403280008001B2F802C04E88B4450AD991F80180A1F802C092F801C081F801C0568082F80180401CC0B2A042E7D309F0FF05A542DED347B951466846FFF788FF070002D119
:4032C0000449009808603846BDE8F88750440208DC2B081054440208F0B5002319E05A1C00EB830612E030F8235030F82240A5420BD2778820F8234000EB8204B4F802C0A1
:40330000A6F802C020F822506780521C8A42EAD35B1C8B42E3D3F0BD00487047D0660208FFF73ABF10B5022401F016F810B100F03DFF00B90124204610BD0520704700002C
:4033400010B5002428B12A220349FFF720F9204610BD024810BD0000D066020801001600F8B506004FF000008DF8000006F1040407D020892081304601F0C6F8050002D0B0
:4033800011E01248F8BDA17A6A46606801F096F8050008D1E06830B1B08F000903D0304600F0FAF905462089208165B93046FFF785FE050007D1304600F09EFF0546A17A98
:4033C0006068FFF789FF2846F8BD00000100160038B504004FF00000ADF8000008D0A18C090A05D1617A102902D8E179102901D90A4838BDE0846946204600F0B9FF0500C2
:40340000E08CBDF800100844E08404D12A2221460348FFF7BCF8284638BD000001001600D066020870470000002809D005494A68002A05D0011F087852F8200000F0E2BC25
:40344000704700005044020810B50446FFF7DCFEC0B2801DA0420BD30648406840B150F8240000F03BFC002801D000F8044B10BD002010BD50440208F8B516460D46044691
:40348000FFF7C2FEC0B2801DA04203D24FF0FF300090F8BDB2B2E9B2684600F049FC0099481C03D00248406840F824100098F8BD504402082DE9F0410746FFF7A5FE801D18
:4034C0000B49C6B2002005460C680CE0617839B16188B94202D32078FFF7B6FF002804D1241D6D1CEDB2B542F0D3BDE8F081000050440208002801D0FFF796BF70470000A7
:4035000070B506460848002504680AE0617829B162882078121D0023FFF7AEFF241D6D1CEDB2B542F2D370BD504402081CB50024142001908DF800402346064A6946064800
:403540000BF0A0FF04480068401C01D14FF6FF7420461CBD95350810584402080EB50C4A0146002312684FF6FF7004290DD009290AD109200093ADF80800ADF80A30694691
:4035800010460BF07CFF80B20EBD04200093F2E75844020870B5D0E90054468900890C282DD2DFE800F02C2C0606112C2C152C191C27E0B23246294609F09AF8E0B2324620
:4035C000294600F035FD1AE000200BF063FC16E02878FEF767FA12E000F008FE0FE0E8B2022C02D008F0C2FD09E0FF2807D002F047FF04E02846022C03D008F08DFE00209D
:4036000070BD03F017FAFAE70148006800F0C8BA584402082DE9F0411F4F0026386D60B1796D51B14218891E12F8024C0022FEF7AFF9844201D0194E2BE0002505EB850378
:4036400007EB8304606800B357F82310E9B16289D7F854C0624518D294F80CC01CF0090F02D0FEF794FF0AE009780170606831B1628957F82310083A08310830F1E72369FB
:403680001BB10122207B114698476D1CADB2042DD4D33046BDE8F081FC660208FFFF1600F0B5C10701D040F008000B4CFF2184F85D10002101250E4601EB810204EB82022B
:4036C00005FA01F3177B03409F4200D11681491CC9B20429F0D3F0BDFC66020870B5124900B3818F114CC1F30711002584F85C10016921654069C4E91505FF2684F85D6099
:4037000028464FF6FF7300EB800204EB8201401C4B8144F822500D610E73C0B20D810428F1D30021084670BD01001600FC66020810B5174B48B3417839B3002202E0490895
:40374000521CD2B20029FAD102EB8201114A02EB810111F8084CFF2C17D103787BB1438821F80A3C946D136D234441F8143C4488936D2344936582680AB141F8042C1039F5
:4037800042780A72406800230860184610BD000001001600FC660208F0B5828F234C46690021C2F30712D2B3D3070BD090F8203003EBC30505EB431501EB850101EB0311AD
:4037C00001F14001530715D5C37F2C2513FB05F55FEA857C4FF00C0723D003EB430505EBC30307EB830505F00305C5EB830505F11005294492070ED590F821004FF00803A6
:40380000C20095070FD003EBC00202F00302C2EBC0020C321144891C8E4200D300242046F0BD0C35E5E70832F4E70000010016000F4A10B5002313600E4A13600E4B18609A
:403840000E4801600E49012008600E49086000020E4990600C4808600D4914300860A0F58A70506000F0D0F800F008FA002010BD744402085C440208884402088C440208F9
:4038800078440208684402085C6802086C440208804402080020704710B501004FF0000010D0094B1A689C681144A14209D25868196010448A0704D001F00302891A091DDC
:4038C000196010BD002010BD5C4402082DE9F04102461A4F002010253B1F4FF0FF38444639681B6807E000EB800605EB86068E59761C1ED0401C9842F5D3601C16D004EB96
:4039000084060C2000EB86000A5002EB42008000FFF7C2FF396841F8260060B1396805EB8602002088507868401C78602046BDE8F0810446E1E74046F9E700006C440208BC
:403940002DE9F0410F464FF0FF36002821DB2249096888421DD8E7B1DFF87C8000EB800508F104081020D8F8001000EB85040859401C0ED0FEF734F8D8F800000C2202EB6D
:403980008502015950F802C04346614504DBFEF721F83046BDE8F081082101EB8506815950F8250001EB410500EB85003D6805607D684560BD6885601868491C82588A42C2
:4039C00000D10021815118680159491C0151FEF701F80020DEE7000068440208002803DB08490968884202D94FF0FF307047054900EB8000091D1022096802EB8000085808
:403A000070470000684402082DE9F0430020134A0427441E03464FF0080C1025A2F10409506014E000EB8001166807EB8108401C46F8083016680CEB810846F80830166888
:403A400005EB810846F80840166846F82130D9F800108842E6D30020BDE8F0836C4402082DE9F0410E464FF0FF3700284CDB29490968884248D8EEB3DFF8988000EB8004B9
:403A800008F104081020D8F8001000EB84054859401C39D0FDF7A4FFD8F800004346415949B3042101EB8407C25950F8240002EB420100EB8100521CD0F800C0C6F800C0BE
:403AC000D0F804C0C6F804C08068B060186850F8240000EB810000210160416081600C21186801EB84014158914200D10022C251186801E008E009E04159491E4151FDF71B
:403B000069FF0020BDE8F0813846FBE7FDF762FFFAE70000684402082DE9F0470D4601001E4C4FF00000089E80464FF0FF37206010D0606885420DD262B15EB1642E09D80D
:403B400004F10C09C5EBC501D9F8000000EB8104207A10B13846BDE8F0870120226020721846FFF7B3FE6060401C13D06681A6812761676199F80410A94201D289F80450C0
:403B800041460B4661F30F030A46284600F052F82846E0E784F80880DCE700007444020810B5002810DB0949496888420CD80749C0EBC0000C31096801EB80004068FFF715
:403BC0000DFF08B1002010BD012010BD74440208FEB5174E4FF0FF373D4600240DE03068C4EBC40100EB8100017A29B14068FFF7F5FE08B1254603E0641C3079A042EEDA0A
:403C0000681C13D03068C5EBC50100EB8104FDF7E7FE69466068FFF723FF0546FDF7DAFE002DD9D1216868468847D5E7FEBD00008044020838B50024009400F001F838BD7B
:403C40001FB500220C49541E00280A6012DB496888420FD80849C0EBC0000C31096801EB800001A94068FFF76BFE401C02D0002004B010BD2046FBE774440208F0B5002180
:403C8000154A4E1EA2F10C0711710B46BE601EE0C1EBC1000425146805EB800566511468082505EB800544F820301468635514680C2505EB8005635314680A2505EB800590
:403CC00063531825146805EB8000491C265078688142DDD30020F0BD8044020838B5041E4FF00000009012DB1048007884420EDA0E4D0C35286800EB0411096839B1042127
:403D000001EB04110844694600F047F908B1002038BDFDF765FE0F21286801EB0411425C521E4254FDF756FE009838BD904402082DE9F74F8A46002500996C1ED21C0C604C
:403D40004FF6FC71DFF8B88002EA0107A8F10C0128460A78D8F8001005E001EB00131B687BB1401CC0B29042F7D3601C2CD0042000EB041B01EB0B00514600F0FDF818BB2F
:403D800001E00446F1E7D8F800000C2101EB041147520E22D8F8001002EB041207FB0AF001F802A00F22D8F8001002EB041201F802A000F0ABF8D8F8001001EB0411086034
:403DC00010B1814600260EE0012516E0D8F8001001EB0B00494600F0FAF808B1012500E0B944761CF6B25645F0D335B90098046098F80410491C88F804102846BDE8FE8F48
:403E00009C440208F8B54FF000070D46041EADF800703ADB25480078844236DADFF88CC00CF10C0CDCF8001001EB0410006860B30C2202EB04128E5A0E2202EB04128542A1
:403E40008B5C06FB030220D395421ED2002205E002FB060EAE4504D0521CD2B29A42F7D39FB1042000EB0417C81966466A46294600F0C7F848B9BDF80000012807D0306801
:403E80002946384400F0A3F818B10120F8BD0020F8BDFDF7A5FD0F21306801EB0411425C521C4254FDF796FDF1E70000904402082DE9F0410D46002400F03CF8002821D1DE
:403EC0001149002201F10C034A600C210E264FF00F0E14E01F6801EB041C07EB04173A601F6827F80C201F6806EB041C07F80C200EEB041C1F68641CE4B207F80C20AC424C
:403F0000E8D31A71BDE8F0819044020800280BD0074AC01C20F00301506853880144994203D8936851601844704700207047000090440208F8B5064600200E4D00900C01F0
:403F4000297021466846FFF741F958B905F10C0100980860301B001F84B221466846FFF735F910B14FF6FF70F8BD6C800098A8600020F8BD9044020830B50D4604000AD0F7
:403F8000A800FFF7C3FF606028B125704FF0FF306080002030BD012030BD70B50D46040004D01DB1B4F90200002801DA012070BDFDF716FDB4F90210606850F8210028606D
:403FC0006088401E6080FDF705FD002070BD70B50D46040006D02DB12078B4F90210401E814201DB012070BDFDF7FAFC6088401C00B26080616841F82050FDF7EBFC002059
:4040000070BD70B500231D4610B1B0F902400AE0012070BD466856F823608E4201D1012503E05B1CDBB29C42F4DA1570002070BD70B586B015460E460446182200216846BB
:40404000FEF7B0FA00238DF800308DF80140ADF804506846029600F00CF906B070BD00000EB501890091407801900A20ADF808000020ADF80A000348694600680BF0FFF9CA
:404080000EBD0000584402080EB541680091417801910221ADF808100089ADF80A000348694600680BF0EBF90EBD00005844020800F0DEB802490020488000F071B80000AB
:4040C000A44402082DE9F041074621480125002405704FF6FF75012F02D0022F2FD10DE0477082801B4A128842F4807282818160174800F0BEF810BB2C4620E0164E012BA3
:4041000020D0B6F800C0022B624492B2328010D081607188091D8A4211D1104947708280098841F400718181094800F0A2F818B103E009684161ECE72C460020308020466A
:40414000BDE8F0814A887280096801610420F5E78C68020888450208A44402080C45020870B504460D4600EB4400C20000212846FEF718FA074A002007491471156090716B
:4041800050710648FDF732FC08B1002070BD012070BD0000A8440208614008108940081001491420FFF7DCBFA468020810B5FDF709FC06494A7989798A4201D1012400E050
:4041C0000024FDF703FC204610BD0000A844020805494879401CC0B248710A79904201D10020487170470000A844020810B5FDF7F7FB0B4948798A7990420DD0096800EB6E
:40420000400001EBC000AFF21B020649FDF708FC10B10920FFF7A2F9BDE81040FDF7DABBA8440208D141081070B5104C0146A2796379501CC0B2834216D02579854200D1F6
:4042400093B1206802EB420200EBC2001822FEF79EF9A079401CC0B2A0712179884201D10020A071012070BD002070BDA8440208704710B5FFF7D8FF0446FFF7B7FF204639
:4042800010BD000010B5124802F0EEFB68B9114802F00AF848B911490F480860084600F071FA10B90E4809F045F904000ED1FFF7B1F90404240C04D0002141F2050000F0D8
:4042C0007FF900214FF4805000F07AF9204610BD615A08100F5E08107D940810B84402084D8F081010B504F025FC03F053FDBDE8104004F0B1BC000070B50546041D00F10C
:40430000180600F09BF9124829680160616809888180A17A03290FD361688979017261684989C1F34701417261688989C180B179817296F82810C17200F090F8002806D1DA
:4043400000F0A4F8002802D1024A0121117070BD846A0208B044020810B502F06FF9012803D1FFF751F9012800D0002010BD00002DE9F0411C4D0C46060005D0DFF86C80C2
:4043800098F8000018B16D1C2846BDE8F081B08C08F01CFB308808F01FFB0500F4D130460AF000F80746304603F08EFB0744304601F018F8384400F634102080304605F08E
:4043C000C0FC21880844208096F82810C1EBC10100EBC1002080304601F0FCFB218808442080A8F80400CFE701001600B044020810B505F041FC03F075FB00F0C3FF09F085
:40440000FEFF01F0A3FBBDE8104008F0B1BA000010B5040010481DD0204608F0B1FA002818D1204601F0A0FB002813D1204609F0F1FF00280ED1204600F0ACFF002809D119
:40444000204603F055FB002804D12046BDE8104005F01EBC10BD000001001600094810B50949C07A887000F071FF064801F0BCFB002806D103F04EFBBDE81040014805F02A
:4044800041BC10BD846A0208B044020810B500220849094800F022FF10F0FF0008D000220449054800F01AFFBDE8104004F048BF10BD00008542081051820810F0B50026B4
:4044C00035461670334616E030F82340082C0AD900EB83077F8837B1083C20F823401478641C147005E053B100EB830420F8235065805B1CDBB28B42E6D33046F0BD014E30
:40450000FBE7000001001600F0B52B4B041D002099881B7802460BB12848F0BD274E2368083E4BB127898F4206D3616821B100234FF0020CA57A35E03046F0BD0CEB8204D6
:4045400031F804E0BEF1000F28D031F822402CB304FB0E339BB23AB1012A0ED0022A11D0032A14D000201BE0B1F800E08C78BEF1230FE1D3032CDFD310E08C8874B1302CCC
:40458000DAD30BE00C894CB1282CD5D306E08C8924B1233C4FF6BA7E7445CDD20028CCD1521CD2B29542C9D8C5EBC50103EB81018F42C1D3F0BD0000B0440208090016008D
:4045C000034A1268002A02D0002800D010477047846A020870B5044605F0B1FB01F010FC00F05CFE144D012C11D0022C0ED1002143F21200FFF7E4FF00F020F8FEF7D6FD16
:40460000FFF7F6FEFFF76EFE0020287070BDFEF783FE848CFFF722FF38B9FFF737FF20B901202870204608F0D1F9BDE87040002143F20100FFF7C4BFB04402080248002147
:404640000160416081607047846A020801464FF6C05007F003BD000008B504218DF8001010B100788DF803000549487808B1401E4870694641F20100FFF7A2FF08BD000001
:40468000B0440208064910B509780448002903D00220FFF7DBFF002010BD000002001600B044020838B503000B4810D0597800290DD00A4C084D60786D1C042806D20120FF
:4046C0000090074A184608F0E9FC08B1284638BD6178491C617038BD01001600B04402085946081030B50C46054600F00DF8002806D1044A6978126802EB0111C9882180A2
:4047000030BD0000BC4402080B4B024642F6137051781B7899420DD2084B1B6803EB01110B7A6FEA03039B0704D4127809788A4200D1002070470000B2440208BC44020856
:4047400010B50A490A4B027809781B68491EC9B203EB01142478A24202D14170002010BD0029F3D14FF6FF7010BD0000B2440208BC4402080249096801EB0010807B704796
:40478000BC44020842F6117138B1006828B105490A6822B142F61470704708467047086000207047C04402082DE9F74F84B0154604980E4660B1152E05D01E2E0BD9D22E7F
:4047C00009D0522E07D042F6127007B0BDE8F08F42F61170F9E700200390049890F80180FF208DF808000498FFF78EFF07002ED1DFF854A542F6147B1B2E0CD01D2E0AD051
:40480000F0070BD0012E06D0DAF8001001EB0810007BB0421AD1F00703D00FE01E2EF3D0F9E71E2E14D0DAF8001001EB0810407B20B1522E0CD0D22E08D109E01D2E07D1D8
:40484000DAF8001001EB0810407B08B15F46D6E0012E20D0DAF8001001EB0810C088001DFEF728FE040018D002214FF0010942F616700F2E75D013DC4FF005024FF00307E8
:4048800029D2DFE806F0282BFB48FA54F971F880F78FF685F5000920E2E742F60577AEE0182E6FD009DCA6F11002082A13D2DFE802F0E7B5FDE81212EBEB1E2E7ED006DC76
:4048C000192E7BD01B2E01D01D2E04D1EEE0522E75D0D22E74D042F612778DE0E878042809D0DAF80030A97803EB0810007B401E81420ED105E0DAF8001001EB0810007B98
:4049000038B1A87860712888A071000AE071E878F7E05F4670E02988172901D207466BE0ADF8067028886071000AA07144E02879012817D01027ADF8061028796071EA8897
:40494000BDF80630BF1C201D7A4318442968FDF71EFEBDF80600E98807FB0100ADF806002AE050E00227E6E7ADF80690A88829688200601DFDF70BFEBDF80600A98800EBA1
:404980008100EBE7D0E1ADF80610A888801C5CE0286808B1A88828B9012003900020ADF806900090434601222146284600F0EEFB070026D00398F8B1267102E061E075E08D
:4049C00076E100208DF80A008DF80960304600F09FFA04998DF808006A460988ADF80410BDF806100094091DADF806100146002002F09AFF070002D02046FEF77BFD384644
:404A0000E3E6E8889DE1ADF80690AA88601D2968FDF7BDFDBDF80600A988AFE0EA88002A3FF47CAFAA88002AFAD0DAF8007007EB0813DB885B1E9A42BFF670AF2A68002A64
:404A4000EED0ADF80610A888001DA8806071AA88E888BDF806304243201D18442968FDF796FDBDF80600A988EA8801FB020075E7DBE0BFE0B5E083E047E033E021E003E08C
:404A8000DEE0ADF8069097E729890029C8D0ADF80690221D288909F80200BDF80670631D010AF954BDF80600801C4EE0434601222146284600F046FB07009DD1E888C01CE3
:404AC0004CE729881729FFF429AFADF8067028886071000AA071DAF80020298802EB0810418069E7298800299AD06B88002B97D099423FF613AF6171080AA0716888E07186
:404B0000000A2072ADF8062056E72A89002A87D06989002984D08A42EBD8ADF80690221D288909F80200BDF80670631D010AF954BDF80670A11D68897854010ABDF8067092
:404B4000E01D3954BDF80600001D81B2ADF80610A8898854BDF80610000AC854BDF806004346801C82B2ADF806202146284600F00DFB0700A1D1BDF80600E9880844EDE677
:404B800029880029B0D06A88002AADD09142B0D8ADF80690211D288809F80100BDF80670631D020AFA54BDF80670A21D6888B854020ABDF80670E01D3A54BDF80600001DF7
:404BC00082B2ADF80620287D012801D050185EE0A8885054000A67E0022000E010200844BCE62988002992D06171080AA071ADF80670E1E62988002989D0ADF806902888FB
:404C00006071000AA071BDF80600221D801C81B2ADF8061068888854010ABDF80620601D1154BDF80600801C98E642462146284600F062FA07009DD1E98809EB41008DE664
:404C4000298800299ED06A88002A9BD091429ED8ADF80690201D298809F80010BDF80670631D0A0AFA54BDF80670A21D6988B9540A0ABDF80670E11D7A54BDF80610091DF1
:404C80008AB2ADF80620297D01290AD010441022291DFDF77CFC287DBDF8061001289DD19AE7A9881154080ABDF80610C854F2E7288900283FF411AEADF806902889271D20
:404CC000010A09F80700BDF80620601D1154BDF80600801CADF80600DAF8001001EB0810C0880F3880B2E880A988884200D9E980BDF80600EA8838442968FDF748FC286894
:404D0000FEF7F8FBBDF80600E988084480B2ADF806003844E96801602969416069698160BDF806000C3019E6297811B101297FF4F5ADADF80690221D287809F80200BDF8B8
:404D40000600401C0AE60000BC44020830B50C460546FFF7D9FC002805D1034A6978126802EB01118C7330BDBC440208F0B40E480023122603600D48012401780A48001FD3
:404D800017220568491E05EB011046708460C28042808280037343738473F3D1F0BC1721034A042001F0A0BEC0440208B2440208314F08107047000170470000014900203B
:404DC00008607047BC44020801010148FEF7FEB9BC44020870470000044A4079126802EB001080680860002070470000BC4402082DE9F843324E0746457930684FF0000868
:404E000000EB05104FF01209846811F1090F2DD011F1050F05D00C22042914D0082949D136E04078122806D008F09CF9316801EB051181F80190316824F0040401EB0511D9
:404E400081F80D8036E04178122906D10092401C3B461C4A1E2108F021F93168787A01EB0511401C487344F0040423E04078122806D008F077F9316801EB051181F801906D
:404E8000316824F0080401EB051181F80C8011E04178122906D10092401C3B46094A1E2108F0FCF83168787A01EB0511401C087344F00804306800EB05108460BDE8F88349
:404EC000BC440208D151081070B5104D04460129286800EB0410816016D140781226122805D008F03FF9286800EB041046702868012200EB041017218260C18041808180DE
:404F0000002101734173827370BD0000BC440208032809D9C10704D01B2804D01D2802D003E01E2801D0F1207047F220704700002DE9F04F85B00646032956D803D1002A6C
:404F400053D0002B51D04E484FF0FF0A42F6137904784FF001008DF80A008DF804A049488DF805A096F800C0006825460DF10C0BA4F1010400EB041797F80080C44508D12A
:404F8000BF68012F05D08DF8054030788DF8040007E0002CECD1B9F1000F02D0012924D126E0012921D002294CD01078142801D9162805D31E2858D9D22856D0522854D0FF
:404FC0008DF808A08DF809A00092ADF806309DF808106A46002002F0A7FCA0F53C51123903D1012106200AF031FA05B0BDE8F08F6D1E00EB05118968012906D0002DF7D1DE
:405000009DF80500FF28F0D0E1E7EAB28DF8052031788DF8041000EB05103178017002211046FFF751FF81208DF808008DF8090003A9304600F0F2FB0720CDF800B0ADF8CA
:405040000600DDE7E0B20121FFF73EFF82208DF808008DF8090003A9304600F0DFFB0720CDF800B0ADF80600B1E78DF80900FFF74FFF521C8DF808005B1E0092A5E7000093
:40508000B2440208BC440208F8B50546447A807A0E46012822D1287A81281FD082281DD076B91E2C0CD0E10702D01D2C0DD005E0522C03D0D22C01D01B2C06D1FF2804D0A2
:4050C000E00704D01B2C04D108E0082103E01E2C04D16FF004012846FFF78AFE05480768002F06D0E888009032462146281D2B68B847F8BDC0440208F0B5878801240568F6
:405100003B0019D0DFF838E004F1020CDEF8006006EB0216F68866450AD30C4435F8026B26714FEA162666715B1E1FFA8CF4EBD1F91AC1800020F0BD42F61670F0BD0000ED
:40514000BC4402082DE9F0410489CCB1DFF838C08788961CDCF800C037440CEB031C42F62075BCF806C0674507D80A441471240A5471B2B200F00AF805462846BDE8F08162
:4051800042F61670FAE70000BC4402082DE9F0410D468488016804B151B10C4EA718366806EB0313DB889F4206D99B1AC38004E042F61170BDE8F081C480C388A818001D88
:4051C0001A46FDF7E4F90020F4E70000BC4402082DE9F041184E0446407931684FF0000501EB001042F6177780686FEA0000410701D4691F03E000070DD46FF008012046AB
:40520000FFF7F6FD607A3946401C60722560E5802046FFF739FF6079316801EB00104078122807D007F09EFF61793268122002EB01114870BDE8F081BC44020870B50446C9
:40524000C38804C8042101F019FC05000FD1617AC8070ED01D2912D0522908D0D22906D01B2904D06FF008012046FFF7C1FD284670BD5229FBD0D229F9D01E29F2D00421C6
:40528000F2E7000020B10449097801700020704741F2130070470000C444020810B50E4C2078032804D0022802D041F2120010BD0AF0FFF800F0C8FF07F0ECFB0AF0F8F8EB
:4052C000FEF7F6FE07F0E4FF00F042F909F04EFD0020207010BD0000C444020870B5134D04462878012802D041F2110070BD0220287069600AF0BCF809F02AFD00F00AF9CE
:4053000007F094FF0AF0DCF8204606F09BFE040003D107F071FB040002D00120287003E000F024FF0AF0CDF8204670BDC4440208054810B50178022904D103210170406834
:4053400000B18047002010BDC444020810B50C4C2078002812D160600AF090F809F074FD00F0D0FAFEF7A6FE0AF0B2F807F028FC00F084FF0AF0ADF80120207010BD0000A8
:40538000C4440208024800218160416070470000CC44020838B5044600200090204600F021F801466846FDF711FF002813D10C4B009A5A6094F82810CC070DD001EB810432
:4053C00004EBC101032404EA4104C4EB4101091D11440091996038BD1A246143F8E70000CC44020890F82810007A4FF003030844C207C0EBC00013D003EA4002C2EB4000DE
:40540000001D82B2C8070DD001EB810000EBC10003EA4001C1EB4001091D881880B270474000EEE71A204143F7E700002DE9FE4306460D0041F2114066D0002E64D0304699
:4054400000F08AFA040023D041F2134741F21448BC4220D0A879022801D003281BD128680090A888ADF80400A8796946801E8DF80600304600F070FA040009D0BC420AD00D
:4054800002A9684608F098F838B99DF80800307041F2124437E0444530D130781B49C0EBC003AA798868002400EB43039A7132782B68C2EBC20200EB42021360AB88938030
:4054C00001F10C0293793278C2EBC20200EB420253733278C2EBC20200EB4200CA6840F8072F0A8A82800878401CC0B2087008490988814207D109F0F5FF04E0BC4202D12D
:40550000284609F0EDFF2046BDE8FE83CC440208C045020830B40C480C4C00220088A368401EC0EBC00103EB410100280A608A808A71C1F80720A1F80B204A73F0DC2270CE
:4055400030BC09F0D0BF0000C0450208CC44020809F0CABF18B5002401468DF800406A46204600F029F8002822D19DF8000000EB800101EBC0020F48416801EB4200427E30
:40558000012A15D144769DF8000000EB800202EBC00001EB4000C0F8064044819DF8000000EB800202EBC00001EB40000460848018BD0000CC440208F0B5144C144D06469E
:4055C0004FF6FF70002364682D7811E003EB830707EBC307012E04EB470705D03F7E8F4204D113700020F0BD7F7E27B15B1CDBB2AB42EBD3F0BD03EB830000EBC30004EB0B
:405600004000012545760176EBE70000CC440208B24402081A2100FB01F2024800214068FCF7C0BFCC44020838B50D4600218DF80010144601466A460020FFF7BDFF0028DD
:405640001AD19DF8001001EB810202EBC1030B494A6802EB43012B68CB60AB880B829DF8001001EB810303EBC10102EB41012268C1F81220A288CA8238BD0000CC440208D7
:4056800010B538B1174A01781288914205D341F2154010BD41F2114010BD134CC1EBC102A16801EB420300221A609A800378C3EBC30301EB43039A710378C3EBC30301EBB2
:4056C000430343F8072F9A800378C3EBC30301EB43014A732178491E217009F002FF002010BD0000C0450208CC44020841F2114241B138B10E4B02781B889A4204D341F29F
:405700001540704710467047C2EBC203094A926802EB43035B7B8B710078C0EBC00002EB400050F8072F0A608088888000207047C0450208CC4402082DE9FE434FF00008E6
:4057400007460C008DF80080CDF8048041F21140CDF8088008D0002F06D02E4839780088814203D341F21540BDE8FE836A460020FFF722FF284D06004FF001091CD19DF8B1
:405780000000062200EB800101EBC000696801EB4001891D01A8FCF7EBFE68B19DF8000000EB800101EBC000696801EB4000D0F806102160408927E021463846FFF796FF1E
:4057C0000646A079022822D30FD19DF8000000EB800101EBC000696801EB4000C1682160008AA08084F8068011E003280FD19DF8000000EB800101EBC000696801EB40009F
:40580000D0F812102160C08AA08084F806903046AAE70000C0450208CC44020810B5024641F2114000291DD0002A1BD010481378048841F21540A34214D2C3EBC3040D4B06
:405840009B6803EB4404A4798C711278C2EBC20203EB420213680B6092888A8000228B5C0BB1002010BD521CD2B2062AF7D310BDC0450208CC440208FEB506464FF00000CC
:405880008DF80000019002900C0041F2114008D0002E06D0194831780088814202D341F21540FEBD6A460020FFF786FE05001ED19DF80020124F02EB820000EBC200796816
:4058C000062201EB400101A8FCF752FE78B19DF8000000EB800101EBC000796801EB4000016821608088A0800120A07104E021463046FFF793FF05462846FEBDC045020874
:40590000CC44020800B58FB06846FDF719FDBDF82400C00617D508208DF82D0001208DF82C009DF828009DF808100844C0EBC0004000ADF82E0000200D90064880680C90A7
:405940000BA8FDF7F5FE9DF82800FFF763FE0FB000BD0000CC4402082DE9FC475FEA0109054641F2114134D095B3DFF880A08E1C0020BAF800402C70ADF80400DFF870805C
:4059800000908DF80600641ED8F80800C4EBC40700EB470199F806208879824204D106224846FCF7E5FDB8B12978BAF80000814218D1D8F808009DF8062000EB47018879BA
:4059C00082420FD106226846FCF7D2FD38B109E0FFE70846BDE8FC8700262C7004E02C7041F21446002CCEDC3046F3E7C0450208CC44020848B1064A0368D360808810829E
:405A000002F10C0081710020704741F211407047CC44020810B541F2114241B138B10E4B02781B889A4204D341F2154010BD104610BDC2EBC204094A8B79926802EB440489
:405A4000A3710078C0EBC00002EB40000A68026089888180002010BDC0450208CC44020838B54FF6FF73012915D0022939D0032910D100788DF80100507803EA0020ADF89A
:405A8000000011780843ADF80000694646F20200FEF796FD38BD01781A480172D17803EA01210180947821430180517903EA01214180147921434180D17903EA0121818049
:405AC000947921438180517A03EA0121C180127A1143C180BDE8384001464FF4C040FEF76FBD00788DF80200D07803EA0020ADF8000091780843ADF80000694646F2010056
:405B0000C6E70000906A02080C4810B5006808B1FDF7F0FC0A48006808B1FDF7EBFC0948006808B1FDF7E6FC07480068002803D0BDE81040FDF7DEBC10BD000008450208AB
:405B4000F0440208EC440208F44402080349002008600349086003490860704700450208F8440208F444020838B504460020009094F82800A17910FB01F000EB8000800401
:405B8000010C6846FDF722FB00281CD10E490098086094F8280000EBC000C1006846FDF715FB00280FD109490098086094F8280000EB001081006846FDF708FB002802D1B1
:405BC000034A0099116038BDF4440208F84402080045020890F8280000EBC001C90000EB001001EB800070472DE9F843644F1E21624C7971017A01B901217970427A02B9AD
:405C000001223A70817A19B10B46C57A15B102E00123FAE701256B43BB7001B90121F970491E3971C0880025042802D9001FF88000E0FD80C2EBC2008000FDF73BFCDFF8E7
:405C400044810028C8F800007ED0387800EB80008000FDF72FFC4C490028086074D0787800EBC0008000FDF725FC484E002830607DD0002400F08CF82846009537E000EB9E
:405C8000C001306840F82150009901EBC10100EB81014D60009901EBC10100EB81018D60009901EBC10100EB8101CD60009901EBC10100EB81010D61009901EBC10100EBAB
:405CC00081014D61009901EBC10100EB81018D61009901EBC10100EB81018D83009901EBC10100EB8100C5830098401C009079788842C4D341462846009528E0C0EBC0023E
:405D0000086800EB82029560009AC2EBC20200EB82029581009AC2EBC20200EB8202D581009AC2EBC20200EB82021561009AC2EBC20200EB82029582009AC2EBC20200EBB8
:405D40008200C582009800E011E0401C00903A789042D3D32846009505E0684600F024FF0098401C009039788842F6D31CB100F00FF8FFF7C9FE2046BDE8F883030016004A
:405D8000E044020808450208F0440208EC44020810B51648164C006830B12178C1EBC1018A000021FCF7FEFB1248006830B1217801EB81018A000021FCF7F4FB0E48006885
:405DC00030B1617801EBC1018A000021FCF7EAFB0A480068002808D0A178BDE8104001EB81018A000021FCF7DDBB10BD08450208E0440208F0440208EC440208F444020840
:405E000010B5FFF7C5FFBDE81040FFF77DBE08B569468DF800008DF8012041F20200FEF7CFFB002008BD00002DE9F347284A9DF800000E46126800EB800100F1400912F878
:405E4000218002EB8101002488784D89022806D0032806D0052804D0062805D103E0012402E0082400E00424684600F09DFE194FE00711D0184908EBC8003A68096801EB70
:405E8000C00005EBC50102EB81012E30D1F804C0002332464946E04760070DD5A6F50C50383800D100263A6805EBC50002EB80003146C26848469047200707D5396805EBBC
:405EC000C50001EB8000816848468847BDE8FC87F0440208EC440208F84402082DE9FE430E468046082B05D00021304601F088FCBDE8FE8350794FF6FF71147901EA002084
:405F00000443D079957901EA002005432548264F402C00780ED300F140018C420AD23A6804EB840102EB8101A1F2FE41097809B1A4F140008DF8080008F0FF02214602A8EF
:405F400000F0BCFE48B99DF80800396800EB800001EB80008088A84208D00023022231464046CDE9004501F093FCC1E7082307222146304601F0C6FC0C4906EB061009687F
:405F800001EB8001200A8C75C8750D76280A4876304601F031FB42F238319DF80800FFF743FFA5E7E0440208F04402080045020870B50D46082B42D150794FF6FF71167982
:405FC00001EA00200643D07901EA0021907908431B4940280A781B490B682ED302F1400188422AD200EB800103EB8101A1F2FE41097811B3A0F14004E4B2A2421FD004EB64
:40600000840103EB81018A88B24218D18978062915D10D4A05EB0511126802EB8101498981420CD10121284601F0EAFB2046BDE8704042F23831FFF7F7BE1446DCE770BDFB
:40604000E0440208F044020800450208F8B50746694600F0D1FA00287BD101220721009800F074F901220821009800F06FF9394E002456F8345025B104236A460221384646
:40608000A847641C032CF4D30024334D42F23737324E0CE0296804EB840011F820000099884203D1E0B23946FFF7BEFE641C30788442EFD300242A4D2A4E0FE0296804EB70
:4060C000041001EB8000817B39B140680099884203D10121204601F093FB641C30788442ECD3214C0098216800EBC00001EBC000018D19B1818DC28C1144818506F032FC8F
:40610000009901EBC102216801EBC2025085009800EBC00001EBC000343009F0EFFE00984FF6FF7100EBC002206800EBC20291840099FF2201EBC10100EBC10181F82E20AE
:406140000099172201EBC10100EBC100A0F844200020F8BD9C6A0208F0440208E044020800450208B2440208F8440208F0B50021FF270C462E4E2F4D28E001EBC102336988
:406180004FF6FF7C03EBC200491CA0F824C080F82E704FF0170CA0F844C04FF0030CC0F804C0DFF894C09CF800C0C0F808C0DFF88CC09CF800C043F832C04FF0FF32C2607B
:4061C000C0E90424C477048380F8464028788142D3D300201A4AF16805E000EB800301EB8303401C1F7413789842F6D37461747014493470002041F83040401C0328FAD36F
:4062000000201227B3690DE000EB001203EB8201401C8C7395F800C0C1F804C00C8103F822704C7429788842EED3F461F0BD0000E8440208B2440208E4440208E3440208C8
:40624000E24402089C6A020870B50024094D0A4E0BE0E96804EB840001EB8000007CFF2802D0204600F00CF9641C30788442F0D370BD0000E8440208E24402080848094916
:40628000002200780B69401E10F0FF0000EBC00103EBC1010A854A858A85F4D170470000B2440208E844020818B1034948610020704742F216307047E84402082DE9F041B5
:4062C00002461E484FF0FF360078814202D93046BDE8F0811A481B4C0378246801FB03F505EB850004EB8000002407E004EB840700EB87073F7CFF2F07D0641C9C42F5D34E
:406300000121084609F0A2F8E1E704EB8403002740F8237000EB83008781C78146600274094A01EBC100126852F830305B1E42F83030084600F0A0F92819C9E7B244020851
:40634000E3440208F4440208F84402082DE9F04791460D46072908D0082D06D02E4900EB0010096801EB800080882C4980B200EBC0080A6802EBC800C468621C4AD00069D5
:40638000274F8A46844225D0396804EB840001EB800017E03A6800EB800602EB86010B7CAB420BD104EB840302EB830249685160B9F1000F03D000F063F800E004463868A3
:4063C00000EB86004068411CE4D1DAF8001001EBC8000461DAF800003B6800EBC801C86800EB800203EB82031B7CAB4212D10023CB770B833B6803EB82025268CA600B6977
:40640000834200D10A61B9F1000F03D0BDE8F04700F036B8BDE8F08700450208F8440208F4440208F0B4144C024601EBC1032068124D00EBC300C668761C1AD000692E68E8
:4064400000EB800006EB80004260206800EBC300026120684FF0FF3200EBC3002B68006900EB800003EB80004260F0BC084600F0E1BA0261C260ECE7F8440208F444020883
:406480002DE9F05FDFF8F48000EB80040025D8F800102F4601EB8400027C012A04D0072A0CD0082A51D115E035498068096800EB001001EB8000808885B246E051F82400F0
:4064C000454608B1FDF716F8286800EB84008068050C3AE051F824200AB141F82470DFF8A4B086688089DBF8002006EB860AC6EBC60912F82A50244A136803EB89010B8B9E
:40650000184480B208838B8A98421ED10869FCF7F1FF1D4940361FFA86FC0968002301EB89001A4607618782C7820783DBF8001001EB8A0015494089096800EBC00001EB64
:4065400080001946066A6046B047D8F80000FF2140F8247000EB84008781C78101740C4905EBC500096851F83020521C41F830202846BDE8F05F00F07FB80000F444020869
:4065800000450208F044020808450208EC440208F844020811B581B0FF24694601A800F02BF840B905490098096800EBC00001EBC00090F8464020461CBD0000F8440208B8
:4065C00030B50B4B0B4C00221B6824780AE002EBC20503EBC505AD8C854202D100200A6030BD521CA242F2D342F2113030BD0000F8440208B2440208F0B50E4B00224FF604
:40660000FF761D680C4B1C780FE002EBC20305EBC3039F8CB74207D0077893F82E309F4202D100200A60F0BD521CA242EDD342F21130F0BDF8440208B24402080C4810B53D
:4066400004689CB10B4900200B780DE000EBC00104EBC101CA68521C02D10969491C01D0002010BD401C80B29842EFD3012010BDF8440208B2440208154B30B4196809B13B
:40668000012400E00024134900EBC0000A6852F8301002EBC0004268914202D890F8462092B18268914211D390F84620012A0DD1002280F84620012C08D110F82E2F1B68F3
:4066C000007E30BC89B218470122F2E730BC7047FC440208F84402082DE9F05F3149DFF8C89080464FF0000A81F800A000EBC806D9F8000000EBC600C568681C46D0DFF858
:40670000ACB005EB85014F46DBF8000000EB8104D9F8000000EBC600C17F008B08440004000C03D14146284600F044F838681FFA88F200EBC601B9461431284600F088F80A
:4067400020BB277C012F0ED11949A068096800EB001301EB830181F811A0097C012902D1002101F04DF8D9F8000000EBC600C168A94201D16168C160D4E90150691C05D086
:40678000082FBED1C0B200F04DFDBAE7D9F8000000EBC600C168491C01D1491E0161BDE8F09F0000E8440208F8440208F444020800450208224A10B5126800EB800002EBD7
:4067C00080000022C4890368234401EBC1041D49096801EBC4014B618389C4891B1B9CB20C83037C012B04D0072B10D0082B18D10FE0154A8068126800EB001002EB8000C2
:40680000807B08B105220CE00020088310BD027A07E00E4A8068126800EB800002EB8000828811F81F0F001DC0B208702044001F4870000A8870CA70100A087110BD000005
:40684000F4440208F844020800450208F04402082DE9F74F0C46C87A898882B0084486B2002001900498464900EBC0074FF0000B086800EBC700B0F82480A8F57F43FF3B6D
:4068800004D184F80BB0A4F804B077E0808D8A4660B371E0DAF8000000EBC700028D0AB1828D1AB3458DB54200D33546721BC07F96B2F8B1002081464FEA182141EA0910C9
:4068C00001998DF8008040EA81108DF801008DF80250280A8DF803000123042269460220FDF7F0FBB9F1000F06D011E0012005B0BDE8F08F0120DEE70223E27A04F10C014A
:406900001846FDF7DFFBE07A84F80BB0281A85B2A08828B3A84200D80546A84213D3401B0004000CA08010D01648FF21018000232A4602202168FDF7C5FB70B10220049905
:4069400006F09AFBD2E7A4F804B0DAF800000D4900EBC70080890880E9E7206828442060DAF8000000EBC700C18C491CC184018D11B1818D491E8185002E8BD10020B6E747
:40698000F84402080C45020810B50F4A0F4B12781C6860B159B1521E12F0FF0202EBC20304EBC303198558859985F4D110BD0021521E12F0FF0202EBC20004EBC000018518
:4069C00041858185F4D110BDB2440208F844020838B50C466946FFF7F3FD002826D1009800EBC0011248006800EBC101CA8CA24201D2002200E0121BCA84009901EBC1017C
:406A000000EBC1010A8D62B18A8D224492B28A85009901EBC10100EBC100018D8A4200D98185002C02D0009800F004F838BD0000F84402080A4A1178002910D1094900EB22
:406A4000C003096801EBC3018B8D002B07D0C968491C04D0012111700021FFF73DBE7047E8440208F844020818B1034908600020704742F21230704704450208F8B51C0029
:406A800015460E4604D01DB110B1311F032902D342F21230F8BD6946FFF7AEFD10B142F25430F8BD009881B20720FFF707FC411C14D0009900EB800246EA014609490B685C
:406AC00003EB82018E6043F822508C810422CA81009989B2FFF7A6FC0020F8BD42F21330F8BD0000F444020812B1031F032B02D342F212307047044B03EBC00020388180F2
:406B000002600020704700009C6A020838B5144608B1042902D042F2123038BD6946FFF76BFD10B142F2543038BD05490098096800EBC00001EBC000A0F84440002038BD48
:406B4000F844020830B505460C480D4C0178226842F22B30491E01EB810302EB83039B7813B10029F6D130BD2970236801EB8101002003EB810101228A7030BDE044020808
:406B8000F044020830B4074C0D4604EBC00050F8204C002C04D02846A44630BC0321604730BC70479C6A02082DE9F041404E04463268002A79D03F4F3968002975D0207887
:406BC000002500EB800302EB83029288402A1DD3C0EBC00001EB80008168B9B18089A8B10846FCF787FC2078C0EBC001386800EB81018D602178C1EBC10100EB81018D814C
:406C00002178C1EBC10100EB8100C58120783968C0EBC00001EB80000069D0B1FCF76AFC2078C0EBC001386800EB81010D612178C1EBC10100EB81018D822178C1EBC1013F
:406C400000EB8101CD822178C1EBC10100EB8100058319480178207800EB8002306800F82210217801EB810100EB81018D80217801EB810100EB8101CD80217801EB810173
:406C800000EB81010D81217801EB810100EB81010D61217801EB810100EB8101CD60217801EB810100EB810085700020BDE8F081F044020808450208B244020870B50546B3
:406CC0001048114C40290378246842F2703017D303F14006B14213D201EB810604EB8606A6F2FE4636785EB140398B4206D001EB810314F82330934200D10020297070BDA1
:406D00001946F2E7E0440208F04402082DE9F04786B04FF0000AADF80AA014460E460546ADF808A0ADF80CA002AF0E2B03D002230022009743E060794FF6FF71227901EA2B
:406D400000200243E079A37901EA002043EA0008501EFF2802D3022300972EE0607A237A01EA00201843ADF80800E37A894601EA0321ADF80A10A37A1943ADF80A101728CA
:406D800003D3172901D3814202D90B23009714E004A9104600F01CFB0028DCD1607B09EA0020ADF80C00217B0843ADF80C0001A8FFF7C8FE48B10423009700223146284659
:406DC00000F020FB06B0BDE8F0879DF804004A4C00EB80010E23206800F821509DF80410BDF8102001EB810100EB81014A819DF8041001EB810100EB8101A1F804809DF88F
:406E00000410BDF8082001EB810100EB81010A819DF80410394A01EB810100EB81010A619DF80410364A01EB810100EB8100C2609DF80400BDF80C10C0EBC00231480068AC
:406E400000EB820291809DF80410BDF80A20C1EBC10100EB81014A809DF80410BDF80C20C1EBC10100EB81018A809DF804101522C1EBC10100EB8101C1F808A09DF8041031
:406E8000C1EBC10100EB8101A1F80CA09DF80410C1EBC10100EB8100A0F80EA09DF8047030464037394600F02DFD9DF80400032200EB80012068154C00EB81014E709DF887
:406EC000041001EB810100EB81008270BDF81000246800EBC0010C48036803EB8100828B05EBC50004EBC00053F821402E3002AB3946A04766E70000F04402080D710810D8
:406F00002172081008450208EC440208F84402082DE9F0478946824601EB09105649002586B009680E2B01EB800044897ED151794FF6FF7092F804C000EA01214CEA010C9F
:406F4000D179DFF83C8100EA012391790B43ADF81030517A00EA0127ADF81270117A0F43ADF81270D17A00EA0121ADF81410967A3143ADF81410517B167B00EA01200643C2
:406F80003E48402C0178D8F800001CD301F14002944218D204EB840200EB8202A2F2FE42127882B1A4F14002D2B28DF8042091425ED002EB820100EB81018A78022A57D106
:406FC0001EB101252FE00A46EEE7172B01D39F4202D942F28136F4E705228A709DF8041001EB810100EB8101A1F804C09DF80410BDF8102001EB810100EB810002819DF84E
:407000000400BDF81410C0EBC0021E48006800EB820291809DF80410BDF81220C1EBC10100EB810042800121484600E020E000F0E7FB15B101A8FFF7B7FD13490AEBCA00F6
:4070400004AB096801EBC0009DF804102E3001EB8102D8F8001001EB82010C4A4989126801EBC10102EB810132464D682146A84706B0BDE8F087000000450208E0440208EE
:40708000F044020808450208F8440208EC4402082DE9F04100781C4FC0EBC00500243868921E00EB85032646B3F80CC0BCF1000F07D0D9899C688818604518DC04B30C441E
:4070C0001EE048784FF6FF7C0CEA002C087840EA0C00904214DD9881DE81801CFCF7EAF904000ED0386800EB8500846008E02046FCF700FA386800EB850086608681C68138
:407100002046BDE8F0810000084502082DE9F05FDFF800C104780D46DCF80000C4EBC40600EB86000021C388B3B15B1EC3808389DFF8E4A0DFF8E4B00027E0467BB1C289D0
:407140006546921EB9469A4236DC45D18568A5B14FF001071A4611E042F27131E7E768784FF6FF7303EA00202B7843EA0003A2F10200834208D182B206E00022C0F80890FC
:40718000A0F80C90A0F80E909AB1DAF8000004EB840300EB8300408900EBC003DBF8000000EB83001346D0F810C0AA1C04F14000E047012F0DD00FE08068FCF79BF928689E
:4071C00000EB8600C0F80890A0F80C90A0F80E9002E02846FCF78EF9DAF8000004EB840100EB8100408900EBC001DBF8000000EB8100D8F80010C28B01EB8601C9888A4277
:4072000005D3426904F14000BDE8F05F1047BDE8F09F000008450208F0440208EC440208704700002DE9FC5F81462D4A002001901068C9EBC90600EB86004788818AD0F823
