:020000041008E2
:4000000000780408EB0208100D00000051030810510308105103081051030810000000000000000000000000000000004D0308104D030810000000004D0308104D030810DA
:400040004D0308104D0308104D0308104D0308104D0308104D0308104D0308104D0308104D0308104D0308104D0308104D0308104D0308104D0308104D0308104D03081000
:400080004D0308104D0308104D0308104D0308104D0308104D0308104D0308104D0308104D0308104D0308104D0308104D0308104D0308104D0308104D0308104D030810C0
:4000C0004D0308104D0308104D0308104D0308104D0308104D0308104D0308104D0308104D0308104D0308104D0308104D0308104D0308104D0308104D0308104D03081080
:400100004D0308104D0308104D0308104D0308104D0308104D0308104D0308104D0308104D0308104D0308104D0308104D0308104D0308104D0308104D0308104D0308103F
:400140004D0308104D0308104D0308104D0308104D0308104D0308104D0308104D0308104D0308104D0308104D0308104D0308104D0308104D0308104D0308104D030810FF
:400180004D0308104D0308104D0308104D0308104D0308104D0308104D0308104D0308104D0308104D0308104D0308104D0308104D0308104D0308104D0308104D030810BF
:4001C0004D0308104D0308104D0308104D0308104D0308104D0308104D0308104D0308104D0308104D0308104D0308104D0308104D0308104D0308104D0308104D0308107F
:400200004D0308104D0308104D0308104D0308104D0308104D0308104D0308104D0308104D0308104D0308104D0308104D0308104D0308104D0308104D0308104D0308103E
:400240004D0308104D0308104D0308104D0308104D0308104D0308104D0308104D0308104D0308104D0308104D0308104D0308104D0308104D0308104D0308104D030810FE
:400280004D0308104D0308104D03081010B5054C237833B9044B13B10448AFF300800123237010BDB472020800000000001C0910084B10B51BB108490848AFF30080084808
:4002C000036803B910BD074B002BFBD0BDE81040184700BF00000000B8720208001C09105C430208000000007047FFF7FDFF72B6104C114DAC4209DA21686268A368043BA4
:40030000A2BFC858D050FAE70C34F3E70B490C4A00209142BCBF41F8040BFAE709480A490860BFF34F8F00F097FB00F071FB00F01DF8FEE7041C09101C1C0910B4720208C2
:40034000D4A202080040020808ED00E0FEE7FEE700B504207146084202D0EFF3098001E0EFF30880043001F0E9FCFEE708B562B601F060F80122134B1A7000F019FA00F0A7
:400380009FF800F04DFA00F07BFB00F0E7FB00F05BFC0D4B1B7883B10C4A12786AB10C4C0C49204606F09EFE21460B4801F014FF64220021204606F08DFE002001F022FEB4
:4003C000E5E700BFD07202088274020883740208649102083C7A081000006640704700BF10B5046843680139072959D8DFE801F004255835585858420022C4F8482F5A68F6
:40040000B2F1805F13D1226812F4807F05D040F21113C4F8483F002010BD1946204602F0F3FB40F2D113C4F8483F002010BD40F2D113C4F8483F1C4810BD236813F4807F66
:4004400005D040F2D113C4F8483F002010BD236843F000432360002010BD236813F4807F20D00123C4F8883E236F23F002032367002010BD236813F4807F0BD0236F43F077
:40048000020323670020C4F8880E40F2D113C4F8483F10BD236843F000432360002010BD014810BD002010BDFF00420008B50249024802F03FFF08BD84A202080000644045
:4004C00010B5174C174A1849204602F0D7FA174A1749204602F0ECFB164C1749204601F0BFFBB4F90030002B08DB590903F01F03012202FA03F3114A42F82130084A1368EC
:4005000043F0004313600E4A064B5A640D4801F077FC18B90C490D4801F05EFE10BD00BF0000644084A20208A814091015287F00801A060010100910AD04081000E100E096
:40054000DD0308108C420208587A0810000066402DE9F04782B00446884617461E46214B00930A23002201461F4802F089FC054640BBDFF870A0DFF8709053460A22414600
:40058000484602F0EBFD0546CDF800A00A2301222146484602F0ECFCA0B94FF000084446731E9C4201D14FF001080E4B00930A233A1941460C4802F077FD0134054608B963
:4005C000A642EDD82DB1094B9D4202D0013B9D4204D1044A0A21044802F034FD02B0BDE8F08700BF84A20208000064400520AA0070B582B00C4615461E46154B00930A23DB
:4006000000220146134802F03BFC034688B9104B0A2221460F4802F0A1FD00240C4B0A22295D0C4802F09AFD0134034608B9B442F4D32BB1084A934202D0013A934204D1AE
:40064000034A0A21034802F0FDFC02B070BD00BF84A20208000064400520AA001F4BD3F8CC3F13F0040F35D01C4BD3F8C02F02F00402C3F8C02FD3F84033DAB2184B1B78AD
:400680003F2B23D80D2A09D143F08003581C1449087003F07F031349CA54704713F0800F09D00A2A07D10E4A517841F001015170013B1370704713F07F010ED10133094836
:4006C000425403F07F03064A137070470122064B1A7070470222044B1A70704700006640F0720208C89102080892020838B504684568013907294BD8DFE801F004284A2EF4
:400700004A4A4A392946204603F03CF910F0010F40D12946204603F033F910F0010F3BD1D4F80832C3F30803D4F80822C2F3C032D34233D1D4F80833C3F30803002B2FD104
:400740002946204603F09EF8002038BD236843F000432360002038BD124B1B6893F87D10114A8B5823F00F038B50104838BD236843F0004323600B4B1B6893F87D100A4A21
:400780008B5823F00F0343F008038B50002038BD064838BD054838BD044838BD034838BD024838BD48A2020880023240FF00420010B503F067F9134B0422C3F8C82FC3F88C
:4007C000C82F114C1149204601F04AFAB4F90030002B08DB590903F01F03012202FA03F30B4A42F821300B4801F00AFB20B90A49044801F0F1FCFEE70849024801F0ECFC61
:4008000010BD00BF00006640081009105D06081000E100E0AC420208847A0810B47A081010B582B00D4C0E49204603F01BFB0D49204603F0FBF903F049FA012003F0CAF9FF
:40084000094B01930022009201231946074803F055FA012003F0BEF902B010BDC07A08105C920208309202080C9202080000058008B5012001F0BAF908BD00BF704700BFBF
:400880005C4AD2F8803303F00F0303F1D00152F8212002F00702032A04D0042A05D092B9554914E0554A116811E003F1C002514951F8222002F01F02112A06D0132A04D0CB
:4008C0004FF4FA4103E04E4901E04FF400418BBB484BD3F8902502F00100D3F88825C2F30172D3F8883513F0405F07D0414BD3F88835C3F30173012B02D102E0012300E08B
:40090000002303B108B9032A46D13A48D0F88025C2F31103D0F88425C2F30C02D0F88005C0F300600130B1FBF2F202FB03F2B2FBF0F131E0012B2FD12E4BD3F8402602F075
:400940000100D3F80026C2F30172D3F8003613F0405F07D0274BD3F80036C3F30173012B02D102E0012300E0002303B108B9032A12D12048D0F8002602F07F02D0F80036F2
:40098000C3F30423D0F80006C0F3044002FB01F2B2FBF3F2B2FBF0F1164BD3F88033C3F3011321FA03F215494A601648D0F89030C3F3072301330069000E0130B2FBF0F095
:4009C0008860B2FBF3F3CB600B6103F5742202F23F220D48A0FB0202C2F387420A7503F2E7330A4AA2FB03239B098B61DB03CB61704700BF0000264000127A00CC420208D1
:400A000000366E010000214083DE1B43D34D621008B50D4801F07EFBFFF730FFFFF730FF00221146042000F0A9FE084800F03CFF074B1B6893F8513013B1064800F0A4FF64
:400A400000F0E6FD08BD00BF6C120910F472020848A20208F07A081008B501F0CAF9074AD2F8883043F47003C2F88830BFF34F8FBFF36F8F01F0C1F908BD00BF00ED00E006
:400A800010B582B002AC402304F8013D0123224609215720FFF7ACFD0123224609215720FFF7A6FD142001F015F9C0238DF807300123224602215720FFF79AFD00238DF835
:400AC00007300123224603215720FFF791FD0123224604215720FFF78BFD0123224605215720FFF785FD0123224606215720FFF77FFD0F238DF80730012322460821572017
:400B0000FFF776FD03238DF807300123224609215720FFF76DFD27238DF80730012322460A215720FFF764FD24238DF80730012322460C215720FFF75BFD012322460D2117
:400B40005720FFF755FD7F238DF807300123224610215720FFF74CFD02B010BD10B586B00023ADF816302D492D4A11602D4A136093803BE02C4B1B6913F0010FFAD10223E9
:400B80000DF1160200215720FFF7E2FC254C062304F1080207215720FFF7DAFCA188237A1B0403F44033627A43EA0223A27A1A431E4B43F82120E37A1B0403F44033207B53
:400BC00043EA0023607B0343194840F82130144B1B689A4201D2124B1A60124B1B689A4201D9104B1A6001310E4B99800D4B9B88B3F5FA7FBED30D4A52F823100D4B196051
:400C00000D4B02930D4B01930D4B00930D4B4FF4FA71074800F0DAF906B010BDFFFF0300EC420208747402088004324090920208649A020838A2020845A2020840A202083F
:400C400044A202088C92020810B586B0724B00227248734908601A60ADF8162064229A801CE0A3F164026F4951F8230041F822006D4850F8234040F8224051F82320684903
:400C800009688A4201D266490A60634909688A4201D961490A6001335F4A93805E4B9B88B3F5FA7FDDD34FF4C8725B4B9A809EE0013B5C4A52F823205C4B1A605C4B1B6931
:400CC00013F0010FFAD102230DF1160200215720FFF73EFC504C062304F1080207215720FFF736FCA088237A1B0403F44033627A43EA0222A37A13434A4A42F82030E27A20
:400D0000120402F44032217B42EA0122617B0A43454941F82020454A1268934223D99B1A07EE903AF8EE677A23683D4A12689B1A07EE103AF8EE476A87EEA67ADFED3D7AD6
:400D400067EE277A3C4BC3ED007AFDEEE77A3B4A136817EE901A5B1A1360002B27DA0022364B1A6023E0D31A07EE903AF8EE677A294B1B682A4A12689B1A07EE103AF8EE6B
:400D8000476A87EEA67ADFED2B7A67EE277A2A4BC3ED007AFDEEE77A284A136817EE901A19441160FF2902DDFF22244B1A60244B93F90030012B06D1224B1B68772B02DC82
:400DC000154A937302E00022134B9A731E4B93F90030012B04D11D4B1A680F4BDA7302E000220D4BDA730C4A9388013393800A4B9B88B3F5FA7FFFF45BAF114B0293114B24
:400E00000193114B0093114B064A4FF4FA71064800F0DCF806B010BD74740208FFFF0300EC42020890920208649A020838A202088004324000007F4334A202088892020841
:400E400045A2020840A2020844A202088C920208F0B58446DDF814E000240C60012628E052F8267077451FDD06F18044013C52F82440A74202DC17E0013500E001257419C1
:400E8000A34203DD52F824008742F5D052F8240087420BDD0F680E2F0ADC7C1C0C604CF8276001352E4404E0013602E0264600E026465C1EA642D3DBF0BD00BF30B4012506
:400EC00012E050F825402B4602E040F82320013B002B06DD03F18042013A50F822209442F3DB40F8234001358D42EADB30BC7047F0B54FF0010E17E051F82E70734602E0A8
:400F000041F82340013B002B0ADD50F8276003F18044013C51F8244050F82450AE42EFDC41F823700EF1010E9645E5DBF0BD00BFF8B504460D4610461E460A682146FFF72B
:400F4000D7FF4FF0FF3022E000F1010CC5F800C0634619E04FEA830E54F82320B0F1FF3F02D054F8207001E04FF0FF37D21BB24202DC7742BA4206DA2A68571C2F6054F89E
:400F80000E7044F8227001338B42E3DB604629688842D9DB2046FFF791FFF8BDF0B583B005460C461646089F0097FFF751FF099B324621462846FFF7BBFF22680A9B9342D6
:400FC000A8BF1346236003B0F0BD00BF2DE9F04FBBB007460C4690460593DDF814A1DDF818910023184603E057F8232010440133A342F9DBB0FBF4F0002306E057F8232059
:40100000121AC54941F823200133A342F6DB002115E0C14E56F821004A1C56F8223018448B1C56F823300344C81C56F820001B1800D503339B10B84840F821301146B1F5CA
:40104000F87FE6DB00230BE0581CB34A52F8201052F82360891B02EB8302C2F8D0170346B3F5F77FF0DD00220FE0AB4B03EB8201D1F8D007013203EB8203D3F8D0370344B0
:4010800003EBD3735B10C1F8D037B2F5F77FECDB00211EE0A04A02EB8302D2F8D067C1EB030E9E4A32F81E2006FB1200013301E00B4600204A1D9342ECDB994B83FB002343
:4010C000C017C0EB6320944B03EB8103C3F8D0070131B1F5F47FEBDD00210B4609E08E4A02EB8302D2F8D027002AB8BF524211440133B3F5F77FF2DD8A4B83FB0123C9178D
:40110000C1EBA3130522029208220192009340F2EF13854A39A90CA8FFF740FFDDF8E4E0BEF1010F0FDC21E03AAB03EB810353F8B83C4A1E3AAE06EB820252F8B82C9B1AF2
:401140001844013101E0002001217145ECDB0EF1FF3E90FBFEF041F2707393FBF0F0CAF80000012389F8003000230FE06F4BCAF80030002389F80030F6E73AAA02EB8301AD
:4011800051F8B82C023241F8402C013339988342F3DB00230BE057F823105F4A42F8231058F8231002EB8302C2F8901F0133A342F1DB4FF000094C4624E03AAB03EB840370
:4011C00053F8403C591DB1F5F77F1ADC053B002B0FDC16E0504A52F82320964207DD07B100273AAE06EB840646F87C3C1646013302E04FF0807601278B42EBDB0FB909F115
:40120000010901348442D8DBB9F1010F38DC474B059A13600023449A137002E13E4E56F82120481C56F820301A448C1C56F824301344CF1C56F827209B1800D503339B1018
:40124000354A42F8213002EB8103D3F8906F02EB8003D3F8903F1E4402EB8404D4F8903F334402EB8702D2F8902F9B1800D503339B10294A02EB8101C1F8903F014600E03D
:401280000021B1F5F87FC9DB002306E03AAA02EB8302002142F8CC1C0133042BF6DD00230FE03AAA02EB830252F87C2CB2F5FA7F06DD1E4B059A13600023449A1370B0E088
:4012C00001334B45EDDB00273B46B8465E4674E003F1010E3AAA02EB8E0252F87C4C3AAA02EB830353F87C7CC7EB040CBCF10A0F1EDC61E0084A52F82320914201DA1E4600
:401300001146054A02EB8302D2F8902F904201DA1D46104601330FE088740208247B0810ED9B5F7267571921587C020819FCFFFF3B464FF07F410846A342DBDBDFF8F0A0B4
:401340000AEB8403D3F8903F0AEB8702D2F8902FC2EB030BEB1B03FB0BF393FBFCF313440AEB8502D2F8902FD21A5AF824305AF827401B1BF71B07FB03F393FBFCFC04EBBA
:401380000C035AF82540E31A02FB01F2D21103FB00F3DB11002B0FDDB8F1040F0CDC5AB1642101FB02F292FBF3F33AAA02EB880242F8CC3C08F10108734609F1FF329342B4
:4013C00086DB414607A8FFF779FD08EBD8777B10012B0EDD5A1E3AA901EB820252F8CC2C01EB830353F8CC3C134403EBD3735B1004E03AAA02EB830353F8CC3CDA1EB42ADA
:4014000009D8094A134493F84030059A13600123449A137005E0054B059A13600023449A13703BB0BDE8F08F247B081019FCFFFF8874020838B50022114B5A8018E0194649
:40144000104A02EB432292F8FF41302C0AD80C4D4FF400720B4B03EB4121281D05F02FFE2C8038BD312C00D9FEE70133044A5380034B5B88472BE2D90022014B5A8038BDF1
:40148000E88B0208007E08101F4B98422DD00CD840282ED003D8E8B1102828D02FE0802829D0B0F5807F28D029E0184B984228D006D8B0F1204F0DD0154B984212D01EE07B
:4014C000144B98420AD00133984209D0023B984215D101E0002070470F4870470F4870470F4870474FF4A0007047074870470D4870470D4870470D487047034870470C48F9
:4015000070474FF4A400704706005200010000F0090000A0040000F0010052000200520003005200010050000200500005005200FF00520038B5124B1B6893F83130012B44
:4015400004D840F2C3110F4800F0E8FB0C4B1D682A6AB5F8B03013442C46D5F8B420D358002B0BDB084B1868FFF78EFF6B6801229A6063689B68002BFBD138BD034838BD7C
:4015800048A2020830100910F48F0208020050001A4B186128B102230370FF23437000234380174B1B6893F850202AB300B583B0B3F93830ADF800300023019311496846A8
:4015C00000F04EFBBDF90030002B08DB590903F01F03012202FA03F30B4A42F82130084B1B6893F8513023B102220849012000F077FA03B05DF804FB704700BFF48F02089B
:4016000048A20208CD43020800E100E08544020808B50248FFF7BCFF08BD00BF0890020838B50B4B1B68D3F8B4301B58002B0DDA0D4604460B0C1B0423B140F2D521054814
:4016400000F06CFBA9B26160002038BD024838BD48A202087010091001008A0038B50368002B01DA002300E0094B73B90D460446C2600B0C1B0423B140F2BB21054800F096
:401680004DFBA9B2A160002038BD014838BD00BF01008A007010091038B504460D4619B99921084800F03AFB074B1B68D3F8B4301B59002B03DAE3682B60002038BD03488F
:4016C00038BD00BFB010091048A2020801008A00254B1B6893F8313083423AD900293AD00B6813F01F0F38D170B50D4604461E4B1B6893F83130984204D340F2C3111B4893
:4017000000F00CFB184B1B68186AB3F8B03004FB0304174E34602A68D2080021686805F0D9FC00212046FFF77BFF346825B940F293310E4800F0F2FA2A4600212046FFF713
:401740008DFF60B900210A4B1868FFF769FF40B970BD084870470748704706487047064870BD054870BD00BF48A20208701009100C90020803018A0001018A0010B5044628
:401780001346B2B9A9B9124B1B6893F83130984204D340F2C3110F4800F0C0FA0C4B1B681A6AB3F8B03004FB03240B4B1C60002010BD43B149B1084A51609360111D204639
:4017C000FFF786FF10BD054810BD044810BD00BF48A20208701009100C90020803018A002DE9F0411B4B1B68DC68236883422CD90D464609A0EB4610012303FA00F819B9B7
:4018000000F0F7FA074600E00027124B18680368002B01DA002300E00F4B83B9626852F8263018EA030F05D023EA080342F82630002400E0094C0021FFF7F2FE00E0084CFD
:4018400025B9384600F0D9FA00E0064C2046BDE8F08100BF0C90020801008A00020188000301880004018A000B4B1B68DB681A6882420CD94109A0EB4110012202FA00F089
:401880005B6853F82130184203D004487047044870470448704700BF0C9002080101880004018A0000018800024B1B680BB9014B18607047189002082DE9F8430446884662
:4018C00091461D46089F2C4B1B681BB9B5212B4800F024FA284B1B682C2000FB04F01C18EEB21E50C5F3072363602D0CA560244B1B6893F831309E4204D340F2C311214888
:4019000000F00CFA1E4B1B68196AB3F8B02006FB02162661666893F832309E4204D340F2DF11184800F0FAF9154B1B681D6A803605EB46156561A668330C1B0423B14FF49C
:40194000FF71104800F0EAF9330C1B0423B140F2FF110C4800F0E2F9B3B243EA0646AE60C4F81C90C4F820800023A36117B1B7F90030A381BDE8F88318900208F0100910AB
:4019800048A2020870100910F0B58FB0044618B95221274800F0C2F9A369072B03D95621234800F0BBF9E36A1BB95821204800F0B5F9236B1BB959211D4800F0AFF907AD41
:4019C00004F114060FCE0FC537682F6002AD26460FCE0FC533682B60164B1B68B3F93620079B1344ADF83030089B0D93A26AE16A0CAD00953B460A98FFF75EFF0021009113
:401A0000069B0A460598FFF757FF216B284600F027F9BDF93030002B08DB590903F01F03012202FA03F3044A42F821300FB0F0BDF010091048A2020800E100E0F8B5064606
:401A40000F461D4614461AB9FD211F4800F066F91E4B1B681BB9FE211B4800F05FF91B4B1B682C2101FB063001FB07314B68012202FA03F31B04466802FA06F60269EAB1F4
:401A80008F69EFB91268002A01DA002200E0104AC2B92288134323600369DC6001238B614D620469330C1B0423B140F2BB21094800F034F9B2B2A2600020F8BD0648F8BDED
:401AC0000648F8BD0548F8BDF01009101890020801008A007010091004028A0007028A00F8B505460F4616460E4B1B6823B94FF4AF710D4800F012F90A4B1B682C2404FB94
:401B00000534236A23B94FF4B171074800F006F9E369B34204D9236A43F826700020F8BD0248F8BD18900208F01009100A028A0070B582B000230193044620B940F2D1116A
:401B4000284800F0EBF8236923B94FF4E971254800F0E4F8636923B940F2D311214800F0DDF8236A23B94FF4EA711E4800F0D6F86369DD682A0C20D012041A601B682069FA
:401B8000194B1B68D3F8B430C358002B15DA01A9FFF782FD60B9019803681E0CDBB2E269934206D2226A52F8233013B1984700E0002631462069FFF733FDADB275B1636926
:401BC000ADB21D601B68636A1BB198470023636202E0A36A03B198470023A36163691B6802B070BDF010091048A2020810B50446074B1B6823B940F2B111064800F08EF8CA
:401C0000034B1B682C2000FB0430FFF791FF10BD18900208F010091038B50D4B9A680D4B9A420FD10D46044621B940F237110A4800F074F804F11003064A52F8230042F841
:401C4000235038BD1030054B53F8200038BD00BF00ED00E000400208301109100000081048B338B504460D464368072B03D93221134800F053F8B4F900306268002B08DBE8
:401C80005201D2B203F1604303F5614383F8002305E003F00F035201D2B20A49CA540A4B9A680A4B9A4208D12946B4F90000FFF7B3FF002038BD06487047002038BD00BF37
:401CC0003011091014ED00E000ED00E0004002080100560010B5044605E0084B186800F07FF8A4F50044B4F5004FF6D8044B186800FB04F000F074F810BD00BFE842020890
:401D0000E442020808B5034B1B7800FB03F000F067F808BDE042020801BEFEE738B50D46044C18220146204605F000FAA5610020FFF7F2FFF8480208FEE700BF08B502687B
:401D4000254BDA6142681A6282685A62C2689A620269DA6242691A6382695A63C2699A631E4A916AD963D16A1964516A5964516B9964926BDA64F1EE103A13F0900F27D0A2
:401D8000026A154B1A65426A5A65826A9A65C26ADA65026B1A66426B5A66826B9A66C26BDA66026C1A67426C5A67826C9A67C26CDA67026DC3F88020426DC3F88420826DE0
:401DC000C3F88820C26DC3F88C20026EC3F89020FFF7B2FF08BD00BFF848020800ED00E00230800803D001300238FCD100BF00BF7047EFF3108072B6704780F310887047C0
:401E000010B30246C3680BB303680BB330B40579114B03EB85035C682346002103E0934205D019465B69002BF9D1012000E0002080B124B9084B03EB85056A6000E04A610F
:401E400011610023536105E000207047002070470020704730BC70471C90020830B583B004460D46022808D9042806D0032804D040F6B2112848FFF751FF6B1EDBB2012BA4
:401E800008D9042D06D0082D04D040F6B3112248FFF744FF214800EB84004468042D12D0012D1AD111E0A3681D420AD1E3681A6800925B6801932368294668469847174B0F
:401EC0009C61646902E0002000E0002014B3144B9842E8D1012DE6D11CE0022D01D104E01C466369002BFBD103E00C4B9C6904B1246900200CE0A3681D4208D1E3681A68D5
:401F000000925B68019323682946684698472469002CF0D103B030BD741109101C900208FF00420010B5044620B940F6A1211748FFF7F4FE164A1368DB6803F5F2431B688D
:401F400023601368DA6802F5F04212686260D96847F604028A58A260D96847F608028A58E260D96847F60C028A582261D96847F610028A586261D96847F614028A58A26109
:401F8000DA6847F61803D358E36110BD7411091048A2020810B5044620B940F6C9211748FFF7BCFE164B1B68DA68616802F5F0421160D968A06847F604028850D968E0682C
:401FC00047F608028850D968206947F60C028850D968606947F610028850D968A06947F614028850D968E06947F618028850DB68226803F5F2431A6010BD00BF74110910D8
:4020000048A2020870B50446012804D94FF426713A48FFF783FE3A4B9B682BB101210846FFF71CFF054600E00025002D5ED1FFF7E0FE0646324B9B681BB104210120FFF72B
:402040000DFF304B1B6893F8432042B19B68D3F8E03013F0100F02D02B48FFF763FF4FF0B0539B899BB223B14FF0B0539B899BB201E04FF48073B3F5807F03D1204605F0B1
:40208000CBFC1AE0214A136943F004031361012C01D030BF07E020BF194B1B7803B120BF0122174B1A70174B1B681A68D3F89430D35803F00303022BE4D0124B1B6893F818
:4020C000432042B19B68D3F8E03013F0100F02D00D48FFF75FFF3046FFF78FFE084B9B684BB108210120FFF7B9FE04E002210120FFF7B4FE064D284670BD00BF74110910B2
:402100001C90020848A202083890020800ED00E0FF004200014B1860704700BF48A2020810B4D0F8003303F00F03072B06D900230DE0D0F84043CC54013300E0002393428B
:40214000F7D306E0D0F8404321F8134001339342F8D35DF8044B704710B51446D0F80833C3F308039A4200D31C462246FFF7D8FF204610BD10B4D0F8003203F00F03072B78
:4021800006D900230DE0CC5CC0F84042013300E000239342F7D306E031F81340C0F8404201339342F8D35DF8044B704710B51446036813F4006F01D0802200E04022D0F8B0
:4021C0000832C3F30803D31AA34200D81C462246FFF7D0FF204610BD30B4036813F4006F01D0802200E04022002408E0D0F80832C3F308039A42F9D0C0F8405201340D5DA1
:40220000002DF3D130BC704702E0C0F84012013A002AFAD1704700BF10B51446036813F4006F01D0802200E04022D0F80832C3F30803D31AA34200D81C462246FFF7E4FFB3
:40224000204610BD10B54A6841F201039A4231D1D0F80833C3F30803B3B10B6A43F040030B620B7873B1D0F8043343F48033C0F80433D0F8043323F48033C0F80433D0F820
:40228000043301E0D0F840330B6A43F020030B620B6A23F010030B62036E23F4204303660023C0F8C83F0123C0F8C03FD0F8C03F202221E0D0F80832C3F30802D0F80832AC
:4022C000C3F3C03313440A6BD21A4A630A6A12F0080F05D1CA6A1A44CA628A6AD31A8B620B6A43F004030B620B6A23F001030B620023C0F8883F1022D0F84C4F40F201134F
:402300001C420DD0036823F00043036000238366C366036843F000430360036842F040024FF080534B604B6C0BB11046984710BDD0F80C3F13F0020F1DD00222C0F8002F95
:40234000D0F8002FD0F8002F12F0040F02D04FF4001001E04FF480108A6802438A604A68B2F5B81F07D00A7B12B14FF4C01201E04FF4B0124A6013F4807F03D08A6842F46B
:4023800000028A6013F0010F03D08A6842F480028A6040F21112134202D04FF4C0134B60704700BF0023C0F8C83FC0F8883F836E23B140F21713C0F8083F704740F2131374
:4023C000C0F8083F182383664FF4B8134B60704738B5D0F80C4F036E23F4807303660023C0F8C83FC0F8883FC0F8083F40F21713C0F8003FD0F8003F8B6823F480338B60F4
:402400004B7B13B18B69CB610BE08D69D0F80822C2F30802D0F80832C3F3C0331344EB1ACB6140F201131C421BD0036E9B0F032B05D114F4827F14BF0123002300E0012358
:402440005BB1036823F00043036000238366C366036843F00043036003684FF080534B601BE00B7893B1D0F8043343F48033C0F80433D0F8043323F48033C0F80433D0F871
:4024800004330123C0F8C03FD0F8C03F0B7B0BB10B4B01E04FF080534B604A6C72B14B7B13B14FF4802001E04FF400308B6813F0F87301D04FF400231843904738BD00BFF5
:4024C000000010100346002940DB11F0C00F06D0002181664FF0805050602F4844E011F4807F36D111F0010F0ED050682B49884232D1196E11F0804F0CBF012100214FF090
:402500008050506026482FE011F0020F06D050682249884223D10021224825E011F0100F05D04FF080515160002108461CE050681A49884216D1517B11B14FF4881101E00D
:402540004FF4A0115160002108460DE0012116480AE00121154807E00121114804E00021134801E00021084679B1196821F00041196000219966D966196841F0004119601E
:402580001B684FF080535360704740F21712C3F8002FD3F8003F70470820AA00000013100620AA000420AA000320AA000720AA000520AA00036853B110B504460120FFF781
:4025C000A1FB2368013B23601BB1002010BD002070474FF0004010BD70B505460C4691F8243013F0FF0F0ED1CB6A63B94B6C0BB108209847E36AB3FA83F35B0984F824301B
:402600000123C5F8883F94F8243013F0FF0F16D063783BB12B6813F4006F01D0802202E0402200E00122FF212846FFF7F5FD236B18442063236A43F00803236270BDE26AE5
:40264000012A11D963780BB1013A00E00122A16A2846FFF7ABFD236B03442363E36A1B1AE362A36A1844A062D5F80832C3F30803802B23D0E36A012B20D1FFF7BAFBA36A44
:402680001B78C5F840324026C5F8806FD5F8803FFFF7B3FB236B013323630023E362A36A0133A362C5F8886F63783BB1236A43F002032362636C0BB10420984770BD00BFE1
:4026C00038B54B68B3F5A81F03D14FF4C0134B6038BD4B68B3F5A01F4DD10C4605464A69012A11D94B780BB1013A00E0012221692846FFF75BFDA3690344A36163691B1A49
:402700006361236903442361D5F80832C3F30803802B14D06369012B11D1FFF76AFB23691B78C5F840324023C5F8803FD5F8803FFFF763FBA3690133A361002363616369EE
:40274000CBB9237B33B14023C5F8883F4FF4A813636005E00023C5F8883F4FF4B0136360637843B1A36843F40033A360636C13B14FF48030984738BD70B504460D468A6CFD
:4027800082B3036813F4803F06D0D0F84C3F13F0400F03D0022002E0002000E00020236E13F4006F06D1D4F84C3F13F0800300D001231843C0B190470123C4F8C03FD4F844
:4027C000C03F024648B91023C4F8403FD4F8403F40F2D113C4F8483F07E040F2C113C4F8483F02E0002200E00022D4F8043243F48033C4F80432D4F8043223F48033C4F8E3
:402800000432D4F804320AB9012300E00223E366002A59D1666E06F010066B6C23B10EB1012000E0022098477EB141F202036B602B6A43F001032B626B6B2B63002385F8FC
:4028400024300123C4F8883F70BD41F201036B602B6A43F010032B620123C4F8C83F2B78BBB1EB6BBBB1236E43F400532366ED6B802D05D9A5F18003802B0ED8813D0DE032
:40288000013D236E43F4004323660023C4F8C83F04E0002502E0002500E03F25236813F4006F01D0802300E040239D4204D34FF420710648FFF732FAD4F8043323F0FF0342
:4028C000EDB21D43C4F8045370BD00BF2413091038B54B68B3F5881F03D0B3F5901F1AD038BD0B69D0F840231A708B6901338B614B69013B4B612BB10B6901330B610423A2
:40290000836638BD0B7B13B14FF4C01301E04FF4B0134B6038BD0C4605464A690969FFF71BFCA3690344A36163691B1A6361226910442061012B24D82B6E23F480732B662B
:402940006369012B16D12B6813F4006F01D0802300E0402323B94FF420711848FFF7DEF9D5F8043323F0FF03C5F804334FF48813636038BD0023C5F8C83F4FF4B013636088
:4029800038BD402B01D89C1E00E03F242B6813F4006F01D0802300E040239C4204D34FF420710648FFF7BAF9D5F8043323F0FF02E3B21343C5F8043338BD00BF24130910A6
:4029C00038B5CB6B002B50D00B78002B3FD00C460546D0F80423D2B20132896BFFF7BCFB236C03442364E36B1B1AE363A26B1044A063802B06D9A3F18002802A0FD8A3F179
:402A000081040DE02B6E43F400432B66E36B0BB15C1E00E000240023C5F8C83F00E03F242B6813F4006F01D0802300E040239C4204D34FF420711048FFF770F9D5F80433CA
:402A400023F0FF02E3B21343C5F8043338BD0123C3668A6B0B6CD0F84003D0540B6C01330B64CB6B013BCB6338BD0223C3660023C0F8C83F38BD00BF24130910F8B50B7873
:402A8000012B03D00C7A1CB9002702E0002700E00127002800F0A780002900F0A680002A00F0A58016460C460546013BDBB2022B03D94F214F48FFF731F9637803B163796A
:402AC0001BB150214B48FFF729F994F90330002B03DA51214748FFF721F9237913F0010F03D052214348FFF719F92369102B03D953214048FFF712F9E368102B03D9542116
:402B00003C48FFF70BF9637913B14FF4803100E00021E27912B14FF4807300E000230B4343F400632B60A37913B94FF4006300E000232269013A02F00F021A43E368013B7A
:402B40001B01DBB21343227843EA82732B6617B140F2073301E040F20713C5F800330FB1254B00E0254B2B6763780BB17F2300E00023C5F80433E3785B00DBB2227943EA6B
:402B80000243C5F810331E4BC5F80032A3780BB1402300E00123C5F804320023C5F8C83EC5F8883EC5F8C83FC5F8883FC5F8083F2378022B02D040F2D11300E00023C5F822
:402BC000483F63783370A37873704FF0805373600020B060B06130623064F0633063F0627064B064F8BD0748F8BD0648F8BD0548F8BD00BF6813091003002A0013102A00DB
:402C0000070101000120AA00036823F0004303604FF080534B6000238B600B62704700BF38B505460C4621B940F2C3211948FFF775F82B6E9B0F012B17D1174B2344174A2F
:402C400093421ED9A4F5BD13A3F5D66302F5611202F56162934216D9A4F57104A4F533440F4B9C4211D80F4838BD84B1286EC0F303102B6E03F00F0318440230B4FBF0F08F
:402C800038BD094838BD094838BD002038BD002038BD00BF6813091020AD88FF405B730040555C0440420F00801A0600A08601002DE9F84307468846914622B940F21221E4
:402CC0006248FFF72BF808F1FF34614B9C4204D940F213215D48FFF721F83B6E9B0F012B0DD149463846FFF79BFF0546D7F8003323F40073C7F80033564B3B67A2E0544B3D
:402D00009C421FD8544B984509D8A9F5BD13A3F5D663524A934218D90021012328E0504B984507D84F4B4B444F4A934213D9002101231DE04D4B4B444D4A934212D90021B8
:402D4000012315E00021012312E0002141F288352E460B460CE000214FF461754FF4C8660B4605E001214FF4BE754FF41B760023002B66D13F4BB3FBF9F3B6FBF3F404FBB4
:402D800003F2964200D90134102C00D910240F2C8CBF00220122B5FBF3F606FB03F39D4200D90136102E00D91026A519B9FBF5F50FE022B10F2C09D80134002206E00F2EA4
:402DC00004D801360F2C8CBF00220122A519B9FBF5F5454502D9A3191F2BEAD941B1D7F8003343F40073C7F80033234B3B6707E0D7F8003323F40073C7F80033154B3B6764
:402E0000E31F092B04D940F283511C48FEF786FF3B6E23F0F003013C2401E4B223433B66731F0B2B04D94FF4B4611448FEF776FF3B6E23F00F03013E06F00F061E433E660D
:402E400000E000252846BDE8F88300BF681309103F420F0013102A00A0860100502D1900801A060020AD88FFA0432100807E25FFC02BAF0000CA9A3B03002A00A81309107E
:402E80002DE9F04182B005460C4617469846089E11F0800F04D04FF4D9613148FEF73EFF304B984504D940F2C9612D48FEF736FF012F04D940F2CA612948FEF72FFF00233E
:402EC000C5F8483F7368B3F1805F41D14FF47A7303FB08F30193244B7360012F14BF00230123737340F21713C5F8003FD5F8003F0423C5F8C03FD5F8C03FD5F8043243F4A2
:402F00008033C5F80432D5F8043223F48033C5F80432D5F804326400E4B23C43C5F840420223AB66D5F8004F24F0F804E405E40DD5F8403F03F0C0031C4301A8FFF73AFBFF
:402F400054EA0001EED032462846FFF7BBFA00E0064840F2D113C5F8483F02B0BDE8F0816813091037894100000013100220AA002DE9F04182B005460F4614469846089EF8
:402F800011F0800F04D040F229712A48FEF7C6FE294B984504D940F22A712648FEF7BEFE012C04D940F22B712248FEF7B7FE736813F4801F39D04FF47A7303FB08F3019369
:402FC0001E4B7360012C14BF0023012373736B6E13F0200F01D0092300E00123AB666B6E13F0200F05D0002009E001A8FFF7E2FA00E0002018B9AB6E13F0010FF5D170B9FB
:403000007F00FFB23C43C5F84042D5F8000F40F20714044001A8FFF7CDFA2043F5D0324601462846FFF74EFA00E0054802B0BDE8F08100BF681309103789410000001310D0
:403040000220AA0070B582B005460C461646134B994204D940F28C711148FEF75FFE736813F4801F17D04FF47A7303FB04F401941823AB66D5F8004F24F0EE04E405E40DD9
:4030800001A8FFF797FA54EA0001F3D032462846FFF718FA00E0034802B070BD37894100681309100220AA002DE9F04383B0074688461C460A9D914622B94FF4FB61244828
:4030C000FEF72CFE234B9C4204D940F2D9712048FEF724FEB8F1010F04D940F2DA711C48FEF71CFE6B68B3F5881F2BD14FF47A7303FB04F40194D7F8C06F06F00406D7F861
:40310000001F40F201140C4001A8FFF753FA44EA00010EB90029EED046B1D7F8403389F800300523C7F8C03FD7F8C03F2A463846FFF7C8F9034630B9B8F1000F03D10422ED
:40314000BA6600E0044B184603B0BDE8F08300BF68130910378941000220AA00F0B583B005460F4614461E46134B9A4204D940F632011248FEF7D2FD7368B3F5A01F17D1B9
:403180004FF47A7303FB04F40194C5F84072D5F8004F24F0F804E405E40D01A8FFF70AFA54EA0001F3D032462846FFF78BF900E0034803B0F0BD00BF3789410068130910FB
:4031C0000220AA0070B504460E46D0F88C3E13F0010F07D04FF480534B600123C0F8803ED0F8803ED4F84C5F40F201131D420FD0336A15F4807F02D04FF4807200E08022BA
:40320000134333620023C4F8C83F45F010050EE015F0100F0BD0D4F80833C3F3080333B1F36B23B10123C4F8C43FC4F8C83FD4F8CC3F13F0010F08D031462046FFF7C0FBB2
:403240000123C4F8C03FD4F8C03F15F0100F0AD031462046FEF7F6FF1023C4F8403FD4F8403FD4F84C5F15F0C00F0DD031462046FFF782FA0123C4F8803ED4F8803EC023A4
:40328000C4F8403FD4F8403FD4F88C3F13F0410F08D031462046FFF79FF90123C4F8803FD4F8803F70BD00BF70B506460D46D0F8004E14F0020F0AD0836E2BB100238366A3
:4032C0008B6843F080738B604FF4C0136B6014F0010F05D029463046FFF72AF824F0040414F0080F08D029463046FFF7F1FA0123C6F8C03FD6F8C03F14F0040F08D0294622
:403300003046FFF7DDF90123C6F8803FD6F8803F6B68B3F5C01F03D129463046FFF758F86B68B3F5B01F03D129463046FFF73AF870BD00BF08B54B6813F4801F02D0FFF7CF
:40334000B3FF08BDFFF73EFF08BD00BF2DE9F84305460C46036813F4006F02D04FF0800801E04FF04008D5F8007207F00F07A26A012A19D9D4F82490E262561EB9F1000FE9
:4033800000D026B940F273512548FEF7C7FC324649462846FEF70AFFA36A1B1AA362072F00D9400048446062D5F80832C3F30803984533D0A36A012B30D10023A362072FAC
:4033C00002D8636A1E7801E0636A1E88FEF711FDC5F840624FF40073C5F8803FD5F8803FFEF70BFDD5F8883F23F4007222F0010242F4007623F4EE6323F0030323B140F2BA
:403400002A410848FEF78AFCC5F8886F236843F002032360236B0BB101209847BDE8F883E8130910241309102DE9F04105460C46036813F4006F01D0802600E0402676088E
:40344000A769D4F81C8017B1B8F1000F04D14FF499613148FEF762FC424639462846FEF77BFE236A03442362E3691B1AE36173BBA368FBB1E3689E4201D8013E00E05E1EF1
:403480002B6813F4006F01D0802300E040239E4204D34FF420712148FEF740FCD5F8043323F0FF03F6B21E43C5F804630123C5F8C83F02E00023C5F8C83F636823F001034E
:4034C0006360236B33B304209847BDE8F081A169D5F8002302F00F02072A00D940000844A0619E4216D95C1E2B6813F4006F01D0802300E040239C4204D34FF42071074807
:40350000FEF70CFCD5F8043323F0FF02E3B21343C5F80433BDE8F081E813091024130910002800F0A48170B50546002900F0A18116460C460B78022B03D93F21A248FEF7BC
:40354000EDFB637B023BDBB2062B03D940219E48FEF7E4FBA37B3BB1022B05D0032B03D041219948FEF7DAFB94F82130012B03D942219548FEF7D2FB94F82830012B03D9A6
:4035800043219148FEF7CAFB2378012B06D86368083B082B94BF0023012307E0A37F2BB16368013B062B94BF002301231BB145218548FEF7B3FBA368053B042B03D946217E
:4035C0008148FEF7ABFB6369FF2B03D947217E48FEF7A4FBA369FF2B03D948217A48FEF79DFBA37C6BB1237833B9A368092B05D1A37B2BB1012304E0012302E0012300E026
:4036000000231BB14A217048FEF788FB636B23F4366323F00D031BB14C216B48FEF77EFBE36B23F4EE6323F003031BB14D216648FEF774FB2378022B01D1A37F13B16268A0
:40364000013A00E00022237F13B14FF4803100E00021A368082B02D84FF4006300E000230B4302F00F02134343F000732B60226B2B6813F4006F01D0802300E040239A42F0
:4036800003D362215048FEF749FBA26B2B6813F4006F01D0802300E040239A4203D363214948FEF73BFB626A2B6813F4006F01D0802300E040239A4203D364214248FEF7DF
:4036C0002DFB23781B0603F040732B64637F0BB1402200E00022A37C13B14FF4806300E000231343227C12B14FF4807200E000221343627C12B14FF4007200E000221A43AA
:40370000E36A013B1B0403F470231343627B013A02F007021343A27B120102F030021343AB64237B13B14FF4807200E00022E37B23B92378022B03D1012302E0012300E066
:40374000002313B14FF4007300E000231A43A368013B03F00F031343C5F80033227DA3691B0403F47F031343C5F81033E26AD5F8003303F00F0303339A4201D3102A03D9D4
:403780007A211148FEF7CAFAE37F23B12378012B03D0002302E0002300E0012313B14FF4807200E00022637B013B03F007031A43A37B1B0103F0300313436B64237B2BB1F2
:4037C0004FF4807203E000BF281409100022A368013B03F00F0313432278012A02D14FF4803200E000221343C5F8003294F83030C5F8043394F8203013B14FF0007200E0F4
:40380000002294F82130012B02D14FF0807300E00023134394F82820012A02D14FF4803200E00022134394F8242013432B6594F83830C5F80432636B23F4926323F0020351
:403840001B051B0DC5F8C83FE36B23F08C035B055B0DC5F8883F76B1002070603060B060F0603062F0623063044B736370BD04487047034870BD002070BD00BFEFCDAB0042
:403880000160AA00036823F00043036021B100224A600A600A62CA62704700BF0B694A69934202D34869181A7047CA694869101A184470472DE9F04107460D46036813F4DE
:4038C000006F02D04FF0800801E04FF040084FEA5808D7F80863C6F308062C6926E00134EB689C4200D100246B699C420FD12B6B0BB1082098476B699C4208D10023C7F870
:40390000C83F0CB1013C13E0EC68013C10E0D7F84023D7F8003303F00F03072B02D8AB681A5502E0AB6823F81420013E002ED6D12C61EC6829463846FFF7B0FF201A804581
:4039400019D908B1441E00E000243B6813F4006F01D0802300E040239C4204D34FF420710648FEF7DBF9D7F8040320F0FF03E0B21843C7F80403BDE8F08100BF2413091006
:40398000486870470868704738B504460D46D0F8003E13F0080F35D0D0F8CC3F13F448730AD04A681A434A60C0F8C03FD0F8C03F0B6B0BB110209847D4F8CC3F13F4006F96
:4039C00009D06B6843F400636B604FF40063C4F8C03FD4F8C03FD4F8CC3F13F0010F11D0EB6923B129462046FFF71EFD05E0AB681BB129462046FFF75DFF0123C4F8C03FE7
:403A0000D4F8C03FD4F8003E13F0040F2ED0D4F88C3F13F4A0630AD02A681A432A60C4F8803FD4F8803F2B6B0BB120209847D4F88C3F13F0010F08D029462046FFF786FC63
:403A40000123C4F8803FD4F8803FD4F88C3F13F4007F0BD00022C4F8882F2B6823F001032B60EA622B6B0BB10220984738BD00BF08B502490248FFF787FF08BD4CA202087C
:403A80000000664008B5114B1B785BB9104A11491148FFF745FD11491148FEF7E1F801220A4B1A700E4BB3F90030002B08DB590903F01F03012202FA03F30A4A42F821302A
:403AC000054A136843F00043136008BD589002084CA202086814091000006640713A08100810091000E100E00B4B10B519680B4B0C691A688B69126A80335B019B18012236
:403B0000D868A24080B2824205D11A601B68CB69002B00D0984710BD5C90020848A20208084B1A684369126A80335B019B189A68036901209840120C801A43425841C0B267
:403B40007047C04648A20208074B1A681300116AB0321288B43350431B685B1818180068C043C00F7047C04648A20208134B10B51C682000FFF7D4FF00281BD02069FFF709
:403B8000E3FF002818D001210D4B62691B6891401A00B032108822691B6A50432200C018FDF75CFD43425841064B40421840064BC01810BD0548FCE70548FAE75C90020869
:403BC00048A20208FCFFCDFF040032000600320007003000114B70B51C680500002C16D02378002B13D02000FFF79AFF002810D0002D06D12069FFF7A7FF00280BD06068F5
:403C000070BD2069FFF7A0FF0028FAD0F7E70448F6E70448F4E70448F2E7C0465C900208080032000600320007003000F7B505006B6800684B61AB6808618B616B691E4F0E
:403C4000CB614B1C01932B7B4A1CD3773B680C001A000126B03212881B6A50430021C018FDF7DEFC26702000FFF75AFF002820D0E369002B19D0280010490C30FDF7F0FF5F
:403C8000A3693A688033126A5B019B18320021698A4092B29A60A319DB7F5BB2002B04DB1F2213409E40064B1E600020054B1C60FEBD0548FCE7C04648A20208E93A0810DA
:403CC00000E100E05C90020806003200094B10B51B68002B0BD0012400221C709A62FFF745FF002802D12000FFF774FF10BD0248FCE7C0465C9002080800320070B5094DFB
:403D0000059C2D68002D0BD01326AC622E70E361049B6161A261E0602362FFF727FF70BD0148FCE75C90020808003200002807DB1F23C02218401E3B8340024952008B5034
:403D40007047C04600E100E030B5F8250F4B104A18681468436A226C6D039A181168294010D01160226C9B181B680A4B1A68531CD97F002907D1416A086A496A50629162AB
:403D80000122DA7730BD0022FBE7C04648A202086C900208609002080022F8B5060004000368471C0B60436828364B6083690D008B60C369CB604B1CDA77FB7F0B74337847
:403DC0000B7603F06DF8A169002900D11F4920002030FDF745FF1F23FB56002B06DB1F2213401E3A9A401300194A1360194F63683A688033126A5B019B18802221685202F6
:403E00008A40E1699A60002900D113493000FDF727FF00203056FFF789FF0023F356002B06DB1F2213401E3A9A401300084A13600A4A3B6812685B6A926C00209B18F82279
:403E400052031A60064B1D60F8BDC046C941081000E100E048A20208493D08106C9002086090020810B5084B084A1B6829331B78012B05D1064B60335360FFF78DFF10BDB1
:403E8000044B3833F8E7C04648A2020860900208BC1509103C160910F0B5BA4D87B0AC68002C1CD0B84BB94E636032682378506A012B16D103F006F860600023AB603368C8
:403EC000E1691A00B032108822691B6A5043C018002902D00121A3699940FDF7A1FB07B0F0BD0268002AE8DAA94A62606A68002A11D00E2B00D1EAE04CD8082B00D1ACE003
:403F00002DD8042B00D194E01BD8022B00D182E0032B00D183E06368002BCED12A68511CC87F002800D045E13268526A106A526AD70F012F01D1974BCF77A060E2606360B9
:403F4000BBE7062B00D17DE0072BE4D1D768002FE1D0A16A4A7D0B008969B8475DE00B2B00D194E006D8092B00D181E00A2BD2D197697EE00C2B00D19AE00D2BCBD1576A23
:403F8000002FC8D0A16A0B7B00938B684A680968B84742E0142B00D1D2E025D8112B00D1B2E00FD80F2B00D1A1E0102BB3D1176B002FB0D0A16ACB680A699BB2D2B28968AB
:403FC000B8479EE0122B00D1ADE0132BA3D1D76B002FA0D0A16A0B6A0193CB6900938B694A69C968B84718E0172B00D1BFE006D8152B00D1B0E0162B8DD1976CADE0192BC8
:4040000000D1C9E000D2B4E0552B00D083E7A06A02F0E2FF01E002F0E3FF60607BE71768002F00D177E7A16A8B684A680968B847F3E75368002B00D16DE7A16A0A69C968A1
:404040009847EAE79768002F00D164E7A16ACB6800938B684A6809687CE01769002F00D159E7A26A117D0092136BD26AB847D4E75769002F00D14EE7A26A117D0292136B02
:404080000193D36A0093536AD269B847C5E7D769002F00D13FE7A16A03910B6B0293CB6A01938B6A00934B6A0A6AC969B847B4E7176A002F00D12EE7A16A0291CB6A0193A6
:4040C0004B7D00938B69CA69096BB847A5E7976A002F00D11FE7A16A0B7B02934B6901930B6900934B680A688968B84795E7D76A002F00D10FE7A16ACB680A689BB289680D
:40410000B8470023636006E7576B002F00D102E7A16A8B684A680593CB6809689BB2B847059B1860EDE7976B002F00D1F3E6A16ACB689BB200934B680A688968B847E0E709
:40414000176C002F00D1E6E6A16A0B6900934B680A688968B84760E7576C002F00D1DAE6A26AD36811780093936852687EE7D76C69E7136D002B00D1CDE6A26A116898475C
:404180004BE7C046609002080900320048A202080A00320001003200576D002F00D1BAE6A16A0B690A790193CB6800938B680968B84732E7506A926A002A00DA014B0027C6
:4041C000CF77BAE60100320070B5124C124B22681E68106853680122356A80335B01EB18D9688240090C8A4212D1210012041A60B0361B683388083158434019FDF74CFAAC
:40420000002805D123689B68002B01D1FFF744FE70BDC0466090020848A2020837B505001400012A18D149682800069A013C02F079F80C236142614100932800083B443183
:40424000002202F0D7F8054B1B681B68ED1801232A681A42FCD137BD0968E5E76C90020813B519001300049A040002F05BF80823200000930022043B482102F0BBF8044B73
:404280001B681B68E418012322681A42FCD113BD6C900208F8B504000327134E080031681A721D004B693A40E3181A60096D020061180B0080336B6020002023E960296077
:4042C00001F04EFF06CD200002F012F8082320000022462102F078F833681B68E418012320681840FCD1F8BD6C900208F0B50500160085B01A000A9B0391DC681023671C73
:40430000FF3711343900FF3401F02AFF2300039A0A9928000097FFF781FF280010232200310001F01DFF002005B0F0BDF0B5160087B0040004911A0033076AD10E9B3500AF
:40434000DB681F00591C31371133FF31FF33FF37039102933900102301F002FF049B012B4BD00C9B9B195B1B05930D9B9A19521B002D4BD010230399200001F0F1FE039BCF
:404380003A000E9920000097FFF76AFF029B049A0E9920000097FFF741FF1023029A3900200001F0DDFE1023029A0599200001F0D7FE103DD5E710230399200001F0D0FE39
:4043C000039B012200930E99029B2000FFF726FF029B029A00930E993B002000FFF740FF1023039A3900200001F0BAFE1023029A0499200001F0B4FE103D0C9B9B195B1BC8
:4044000004930D9B9A19521B002DD4D1002007B0F0BD0148FBE7C04602003200F0B5170089B006000C001A003B0747D1109BDD682B003133FF3303930399102301F090FE52
:404440000E9B0593012C01D10F9B05933C006B1CFF3311350493FF35059BDB191B1B07930E9BDB191B1B06930F9BDA19121B002C02D1200009B0F0BD10230499300001F0A4
:404480006FFE039B0022009310992B003000FFF7C5FE049B2A00109930000095FFF7E0FE10232A000699300001F05AFE1023079A0399300001F054FE103CCDE70048D9E714
:4044C00002003200F0B58DB00793159B0691DD680B922B003133FF3302936B1CFF3303931033049310330593079A10230299040001F036FE2B00F8331A6C5B6C17BA1BBAA8
:404500000893069B089E1B090A93089B1399F31A1A018918099114998A180A998B420ED3029A20001023079901F01AFE0F23069A00201A4013000B9A13600DB0F0BD039971
:404540002000102301F00CFE029B159900932000059B0022FFF762FE01220023B6185F412B0032BA39BAF83319645A64059B049A00931599039B2000FFF772FE1023049A3F
:404580000999200001F0ECFDBFE70200002310B50F32441E1178013A49000B4353701B0A9442F7D1002B04D07923C27B5B425340C37310BDF7B505000F0096685468310095
:4045C0001023002201F0E8FD39002800009623000022FFF723FE2000FFF7D7FFF7BDF0B585B003939368166802930F00102300220299050001F0D0FD0A9C039B0A9A9A18C3
:40460000121B102C07D83C61A3B23100280001F0A7FD05B0F0BD10233100280001F0A0FD029B32000093390033002800FFF718FE0096029B002239002800FFF7EFFD103CF0
:40464000DBE7F0B587B0059393680C690393536806000F00156804930F2C0DD81800FFF794FF80232B55713B1B1B611C9BB269180022300001F090FD039B2A0000933900A5
:404680002B003000FFF7ECFD049B2A00009339002B003000FFF7E4FD039B3900300000950022FFF7BBFD1023039A0599300001F057FD07B0F0BD0000F0B585B003911900BF
:4046C0000AAB17001A78134B05001B681C6D0C9B4134FF340419FFF7DDFD230026001033303623631033A36332000C9928006463FFF760FF039B32000C9928000097FFF7AB
:404700006EFF28000B9B32000C99FFF79AFF002005B0F0BD6C900208F0B58BB0069312AB09921A78604B08911B6804001F6D5F4BC719FD188D3BFF3BFB180493F0239B009D
:40474000FB1805938823DB00FB1801923A0003933B00C0328033009229003A00119E01F0C9FB9823049ADB00FA50059AFB185A60039A9A60AB689E4200D86FE02900200075
:4047800001F01EFC3300109A2900200001F020FC3300039A2900200001F034FC296AAB68039A5B1A9BB251180022200001F0F4FC3E4A0023BE1836225C209446B2689342D2
:4047C00064D32900200001F0FBFB049A2900200001F072FB069B099A2900200001F0F8FBB268069B944629006344049A200001F009FC2900200001F0E3FB059A2900200083
:4048000001F05AFB336A049A2900200001F0E0FBB268336A29009B182000089A01F0F2FB9821C900795820008023002201F0B4FC9823DB00FE18716820008023002201F07B
:40484000ABFC80230022B168200001F0A5FC2000290001F032FC00200BB0F0BDB2B207929E420CD213000399109A200001F078FCAB68B2B29B1A039A9BB2911994E7079B9B
:40488000109A0399200001F06BFC91E76146039AD25C4A400499CA54039A0599D25C4240CA5401338AE7C0466C900208CC040000034B1B689B68C0180F230068184070472C
:4048C0006C900208F8B504000D0017001E002000FFF7EEFF0C28FAD8082D04D00C4AA358002BFCDB04E086225201A358002BFCDBE221084BC9051B680D43DA68A218156016
:40490000DA68A2181760DB68E4182660F8BDC046D01000006C900208F8B507000C0016001D003800FFF7C4FF0E28FAD8064B24031B682D04D8688023DB051E43344338189B
:404940002C430460F8BDC0466C90020870B505000C0016002800FFF7ABFF0E28FAD8054B24021B68DB68ED18D023DB051E4334432C6070BD6C90020810B504002000FFF7FD
:4049800097FF0E28FAD8044B1B68DB68E418A023DB05236010BDC0466C90020810B504002000FFF785FF0E28FAD8044B1B68DB68E418A223DB05236010BDC0466C900208CC
:4049C00070B504000E0015002000FFF771FF0C28FAD8064B06491B68DA68A2181160DA68A2181660DB68E418256070BD6C9002080C00007070B505000C7A0A680234E4002E
:404A000023000821FFF75EFF1023082204212800FFF782FF2300103B002B04D0082205212800FFF779FF70BD70B505000B7A0233DC00FFF7DFFF2800FFF79EFF102306228C
:404A400004212800FFF768FF2300103B002B04D0072205212800FFF75FFF70BDF8B51E0004000F00150031001423002202F0E8F8054B35721B6837605B690020E4180323C1
:404A80001D402560F8BDC0466C900208F8B50D00040016001F000699002D1FD1FFF7AAFF10233A0008212000FFF70CFF102231002000FFF785FF2000102308220021FFF7BD
:404AC0002BFF2000002D0CD1FFF756FF2000102301220C21FFF720FF0020F8BDFFF7A4FFDEE7FFF75BFFF1E7F8B504000E0015001F0013075CD10899002E1ED1FFF77AFF9D
:404B000010233A0009212000FFF7DCFE2B00079A08212000FFF7D6FE2A0006992000FFF74FFF10230922002E20D101212000FFF7F3FE002D04D10020F8BDFFF775FFDFE735
:404B40002000FFF7B5FE0E28FAD81A4B1A4A1B682000DB68103DE3181A60FFF70DFF102301220C212000FFF7D7FEE2E702212000FFF7D2FE002DDED0200010230822002138
:404B8000FFF7CAFE2000FFF709FF2000FFF790FE0E28FAD8074B094A1B680221DB682000E3181A6010230022FFF7B6FE103DE1E70348C1E76C9002081800104121C01041A2
:404BC00002003200F7B50F260400019115001F0016404DD10A99FFF70DFF10233A0009212000FFF76FFE1023092231002000FFF793FE2B00099A08212000FFF763FE2A00D5
:404C000008992000FFF7DCFE019B002B2CD0002D2CD02000FFF7B0FE1023082200212000FFF77AFE2000FFF743FE0E28FAD8114B114A1B68103DDB68E3181A60E7E720009B
:404C4000FFF79AFE2000FFF733FE0E28FAD8094B0A4A1B680C21DB682000E3181A6010230022FFF759FE103D002DE8D10020FEBD0348FCE76C90020801C0104118001041C8
:404C800002003200F0B51D008BB004926A781B7812021A43AB7804001B041A43EB782E7A1B0613436A7906932B7912021A43AB7902911B041A43EB7913991B06134307933D
:404CC0006B7A6A7B1B023343AE7A120236043343EE7A36061E432B7B08961A43AB7B1B041A43EB7B1B061343099332BA1BBA05920193FFF77FFE102306AA09212000FFF728
:404D0000E1FD1023092200212000FFF705FE019B0C211A0E2000FFF719FE019B0D211A0CD2B22000FFF712FE019B0E211A0AD2B22000FFF70BFE6B460F211A792000FFF729
:404D400005FE2000FFF718FE029B129A08212000FFF7B8FD029A11992000FFF731FE029B019E1B09059F0393019B039AF31A93420ED306AA20001023290001F025FF0F2333
:404D8000029A00201A401300049A13600BB0F0BD2000FFF7F1FD01220023B6185F413ABA33BA08920C21320E20000993FFF7CEFD320CD2B20D212000FFF7C8FD320AD2B2A9
:404DC0000E212000FFF7C2FDF2B20F212000FFF7BDFD2000FFF76CFD0E28FAD8084B094A1B68DB68E3181A602000FFF761FD0E28FAD8034B044A1B68DB68E3181A60B3E7B6
:404E00006C9002081010006610100067034B1B689B68C0180F230068184070476C90020810B504002000FFF7F1FF0E28FAD8044B1B68DB68E418A023DB05236010BDC04623
:404E40006C9002080200002310B50F32441E1178013A49000B4353701B0A9442F7D1002B04D07923C27B5B425340C37310BD000070B504000E0015002000FFF7C7FF0C2857
:404E8000FAD886225201A358002BFCDB064B07491B68DA68A2181160DA68A2181660DB68E418256070BDC0466C9002080800007170B504000D002000FFF7A8FF0C28FAD8B6
:404EC000064B07491B68DA68A2181160DA68A2181560DB68E4181023236070BD6C9002080C000070002370B504000E000B602000FFF78CFF0E28FAD8144D154A2B6820002B
:404F0000DB68E3181A60FFF78BFF71682000FFF7CFFF2000FFF77AFF0E28FAD82A680D49D368E31819601368E3181A68002AFCD17068FFF787FF2000FFF768FF0E28FAD886
:404F40002B68DB68E418044B236070BD6C9002080000104101C010401110104170B50E001100326805009C181A00FFF781FF102C01D8346070BD2800FFF748FF0E28FAD81C
:404F8000054B064A1B682800DB68103CEB181A60FFF746FFEBE7C0466C90020818001041F0B5102587B00F000400019200212A0002A802F08FF880237E683F6802AA137094
:404FC00002A9EA1B2000FFF753FF2000FFF71EFF0E28FAD8184D194A2B68DB68E3181A600F2F02D83000FFF72DFF102231002000FFF73EFF2000FFF709FF0E28FAD82B6872
:405000000F4ADB682000E3181A60FFF709FF01992000FFF74DFF2000FFF7F8FE0E28FAD82A680849D368E31819601368E4182368002BFCD107B0F0BD6C90020818001041D2
:405040000800104101C0104070B504000D00160086B019000AAB1A780C9BFFF7FFFC0C992000FFF7C7FC02AB694620000193FFF739FF33002A0069462000FFF76FFF2000E0
:405080000B9A6946FFF78CFF002006B070BDF0B5F3B005937AAB0391049269A91A78040001F0EAFBC02306AA5B0006A9D250043326AACA5046AE0433CE500833CF5810339D
:4050C000CB58BDB2019300222B003100200001F0B7FD799BBB4254D969A9200001F02AFC799B789A69A9200001F040FC320069A9200001F06DFC019B019AEB1A9BB2B1182B
:405100002000002201F09CFD3622002394465C269F424ED169A9200001F00CFC3B0006AA69A9200001F022FC059B049A69A9200001F01CFC06AA69A9200001F049FC69A9D2
:40514000200001F0F7FB3B0026AA69A9200001F00DFC019B06AA69A9200001F007FC039A69A9200001F034FC0C23002266A9200001F066FD200069A901F0A0FC002073B0BD
:40518000F0BD799B9BB20293799BBB420AD2029B789A3100200001F017FD029B799AED1AABB2ACE7029B789A3100200001F00CFDAAE7654606A95A18501CFF300178803296
:4051C000694006ADE95401780133714011709FE7034B1B681B68C0180368002BFCD170476C90020810B5064C246829342478012C02D100F0EDFF10BD01F05CFDFBE7C046EE
:4052000048A2020810B51300064A146829342278012A03D1002200F0BFFF10BD002201F00FFDFAE748A2020810B5094B1B6829331B78012B0AD0A023064C090324689B0571
:40524000E468114300191943016010BDB023F3E748A202086C9002080B03094912010968C96840180749096829310978012905D19421890511431943016070470249F9E705
:405280006C90020848A202080F00002410B50A4B0C241B6829331B78012B00D00434074BA1401B68DB68C018531E902252051A431143016010BDC04648A202086C900208A7
:4052C00010B50A4B89061B6829331B78013B5C1EA3410C339A408023054C1B0624681943E4680A430019026010BDC04648A202086C900208F7B504001D005F1C0E00019219
:4053000000213A00FFF7C2FF3A0001212000FFF7BDFF3A0002212000FFF7B8FF2A0003212000FFF7CDFFD022204F92053B680021DB682000E3181A600322FFF775FF3A680E
:405340001B49D368E3181960D023D26831039B050B43A21813603601164B0E431E433A68D368E318002D02DA134A1A60F7BD1349019801431960D3681149E3181960D368F2
:40538000E3181E600F4B1B6829331978D368E318012909D1842292051A60022220001100FFF75AFF013DDAE7074AF5E76C900208002000300200303A0700001300100037C6
:4053C0000100300348A202080F000021F7B5060015001C00099B01915F003A000221FFF755FF3A0003213000FFF750FF099A00213000FFF765FF2C4F2D013A68D368F11886
:405400002A4B23432B430B60294B1B6829331B78012B47D08C2327499B051943D3680898F3181960D3682449F31801431960D368224AF31815431D60099B30009C1C220070
:405440000021FFF723FF3A681D49D3683000F3181960D3681B4AF3181A6001212200FFF715FF3B680898DA681749B21801431160DA681649B2181160DA681549B21801439B
:405480001160019AD96813481203711810430860D9681148711802430A60DB680F4AF3181A60F7BD9023B6E76C9002080020003348A2020820300000302000330030002084
:4054C000320000370C000013001000371000400310000037010040300000303003000013F8B5040080274A4D1E002B687F05D86820180760E027D8683F02394320180160BC
:405500009021DB680902E3180A431A600B2132002000FFF7BBFE32000C212000FFF7B6FE32000D212000FFF7B1FE2B683949DA680227A2181160DA683749A2181160DB6854
:40554000364AE3181A60721E04260A212000FFF7B7FE0A220B212000FFF766FE2B68304ADB68E3181A602000FFF732FE2B682D4ADB682000E3181A60FFF72AFE2B68DA6BD1
:40558000A2181268324238D10B2220001100FFF763FE2B68244ADB682000E3181A60FFF717FE2B68DA6BA21812683A420AD00D2220001100FFF750FE0E2220001100FFF744
:4055C0004BFED0E7DA681949A2181160184ADB681268E31829321278012A0CD1154A1A600E2220001100FFF737FE0A220E212000FFF71AFEB7E7104AF1E7DA680F49A218C3
:405600001160DB68E41888235B052360F8BDC0466C90020800D0003500E0003400B0003409C000300B00003F0D00003FDCD0003648A20208D0D00026DFD000250038001324
:40564000F7B504001500089F00917E007A1C01210193FFF71BFE320002212000FFF716FE320003212000FFF711FE3A0000212000FFF726FE3A4E3B4933680198DA680143FF
:405680002D010D43A2181560DA683749374DA21811602A68DB6829321278E318012A5AD1334A1A60012220001100FFF7D5FD33683049DA68A2181160DA682F49A218116048
:4056C000DA682E49A21811602A6829321278012A43D08C222A4992051143DA682000A2181160DB68274AE3181A6000221100FFF7E7FD200000220121FFF796FD3A002000FB
:405700000021FFF7DDFD32681F49D3682000E3181960D3681D4AE3181A60FFF759FD33681B49DA681B48A2181160DA681A49A2181160DA68A2181060DA68A2181160009933
:40574000DA6808031549A21801431160DB68E418134B2360F7BD134AA3E79022BAE7C0466C900208003000333A10003348A2020810100021182000332320003600400005B7
:40578000202000000010003410100020040000042130003A2830003723003003020000300E0000131F100021F0B585B006000F0002930A9D0B98062A37D8214C930019598B
:4057C000A31823341B7FA45C01223A701A190B32824232D82A78002A2FD16A78012A2CD1021B0092D21A9446AA18501E00780192002822D162462800033A0392421B944678
:40580000039A624515D89BB2019A3000FFF7EAFC002812D1009AA3B2AA1802993000FFF7E1FC002809D1387007E0002423002100CAE701304278FF2AE0D0002005B0F0BDF9
:40584000CC160910F0B504008BB009938B68B74E0593CB68089206930B684F6807930B697D1C02934B6903938B690493B04B1B68DA6C33689200196D92B24118FFF7C2FCB4
:405880003A0005212000FFF701FD3A0006212000FFF7FCFC3A0007212000FFF7F7FC3A0008212000FFF7F2FC2A000A212000FFF7EDFC3A000B212000FFF7E8FC3A0009211B
:4058C0002000FFF7E3FC3B00079A0821200001F0B5FB069B059A0721200001F0AFFB099B089ADB000621200001F0A8FB029B002B00D0CBE020003B0008220A21FFF7FAFCEF
:405900002000FFF765FC049B002B00D0C5E03368884ADB682000E3181A60082301970093092202330B21FFF751FD2000FFF750FC039B002B00D0B7E020003B000822092105
:40594000FFF7CEFD2000FFF743FC802133684905DA682000A2181160DA687749A2181160DA687649A2181160DA687549A2181160DA687449A2181160DA687349A218116023
:40598000DA687249A2181160DB68714AE3181A6009213A00FFF77AFC3A000D212000FFF775FC3A000B212000FFF770FC082306220D210093200004330197FFF707FD200088
:4059C000FFF706FC32686349D3682000E3181960D3686149E3181960554BD2681B68A218029329331B78013B591E8B41A0215B4289055B065B1859490B431360FFF7E8FB2B
:405A000033680E211B692000E3189A6BDD6A9200ED04ED0C920C0135AD1AFFF751FC33684F4ADB68E3181A603368DB68E318002D41DC404A20001A60052209231100009729
:405A4000FFF7FEFD33684749DA68A21811608821DA684905A2181160354A1B681268E31829321278012A5DD17F3219681142FCD13B0020000522109901F0F3FA002033686E
:405A8000DB68E418384B23600BB0F0BD2B00029A0A21200001F0D2FA35E73B00049A0B21200001F0CBFA43E73B00039A0921200001F0C4FA49E71E4A1268029229321278ED
:405AC000012A21D1294A1A602000FFF781FB01223368DB6BE3181B680097134216D004320D2311002000FFF7ABFD2000FFF770FB0D2300971A0019002000FFF7A1FD200032
:405B0000FFF766FB013D8FE7194ADCE70D23052219002000FFF794FD2000FFF759FB00970523E7E71A68002AFCDBA1E76C90020848A20208009000350660000005500000A1
:405B4000077000000880000009A000000AC000000B50003007B0003000900034B9E00000BEB00020002A0013E00F0013B0B00021BFB00021F0B504000B6887B002930B69AA
:405B8000344E03934B694D6804938B696F1C0593314B1B68DA6C33689200196D92B24118FFF730FB2A0020000B21FFF76FFB3A0020000D21FFF76AFB2A0020000C21FFF7DA
:405BC00065FB2A0020000E21FFF760FB2B00029A20000B2101F032FA2B000B220D212000FFF788FB2000FFF7F3FA3B000B27039920000D2201F035FA3368184ADB680E2142
:405C0000E3181A6020000D230C2201950097FFF7DDFB2000FFF7DCFA2B00059920000E2201F01FFA2B003A000C212000FFF758FC2000FFF7CDFA2B0020000C22049901F087
:405C400010FA00203368DB68E418054B236007B0F0BDC0466C90020848A2020800C0003500780013F0B580270C4C7F002568DBB22C6A0619059C24023C40FF3F3A40224317
:405C800032606A6A82181360AB6AC3181960EB6AC018069B03600020F0BDC0466C90020870B50D001100862204000498D200A0501A00200000F01CFB04230022582120008E
:405CC00000F082FB0821064B1A681368E31818680840FCD1136BE41823682B6070BDC0466C9002087FB50D0019000E4B16000393099A089B040000F015FB03AB6900591836
:405D00000823895D200000930022043B00F072FB054B1B681B68E418022322681A42FCD17FBDC046707172736C900208F0B5040016000025082787B005931B4B04911B6849
:405D40001B6DC3180393194BE900C9183A00300001F0A6F9002825D00135102DF3D10025039F3200103739002000082300F0F8F90C9A03992000082300F0F2F9039E039B62
:405D800008360193049A3B00200000960021FFF7A9FF200008233200059900F0E1F9280007B0F0BD024DDBE76C9002087817091003003100F0B589B00593274B04001B68F0
:405DC00016001B6D0027C3180393130008330693083304910793214BFD00ED1808222900300001F05DF9002833D008222900069801F056F900282CD008222900079801F081
:405E00004FF9002825D00137102FE4D10025039F3200103739002000182300F0A1F90E9A03992000082300F09BF9039E039B08360193049A3B00200000960121FFF752FF57
:405E4000200008233200059900F08AF9280009B0F0BD034DDBE7C0466C900208781709100300310010B58024A4000151812152005208890042508222DB00DB08920083507D
:405E8000002010BD70B50400150000F01BFA00225C21200000F086FA2021064B1A681368E31818680840FCD19369E41823682B6070BDC0466C9002080B0013B51100DA68F7
:405EC000040000925B6900F04BFA0C230193043B00932000043B00224C2100F0A5FA044B1B681B68E418042322681A42FCD113BD6C900208F0B5050005A840C80478022003
:405F0000062C11D82000402701F0C0F80416222B394A410027488F6048621420086108622D30FF3088610020CB60C0239B004E610C704A60E850F0BD1E488F6014304862A1
:405F40002020086104380862E4308861FF38EBE718488F6034304862202008610862E030F3E7144854304862802088604038086110380862A020800088610220D4E70E4871
:405F8000143048628020886040380861F1E70A485430486280208860403808612438E8E706481430486280208860403808612038DFE7C046F817091078180910F8180910DB
:405FC00010B50B694A6A9BB2C96800F0C9F810BDF7B50E0017001C008D680190F361AC4208D26B1E23403A0071689BB2019800F0B7F8F7BD3A0031000198FFF75DFF7F1903
:40600000641BECE7F0B589B007938B6816000193013B0493049ACB6903901340029370230693019B0C00CF684D68802B01D0382306938023029A0398AB546B469B88511C8F
:406040000593013B9B1A9BB20022691800F0A4F8069B029A93420AD82A0021000398FFF72BFF059B00222900039800F095F8079BDA00019B100EEB18191F0870D91E100C22
:406080000870023B110A1970049B2100EA5403982A00FFF711FF236A9B08002B01D109B0F0BDFA78013B3270BA7872707A78B2703A780437F2700436EFE770B50C0005001E
:4060C0008B6800229BB2496800F066F823692800E1689BB2002200F05FF8A36928009BB20022616900F058F870BD0000F0B587B004930CAB1B7817000593184B03911B68CC
:4061000000221E6DD02386199B00F51829002823040000F041F8059A330001923200C03280330092290032002000FFF7E3FE29002000FFF745FF3B00039A29002000FFF71D
:4061400047FF3B00049A29002000FFF75BFF20002900FFF7B2FF002007B0F0BD6C90020813B50400080011000200200000F0DAF80823200000930022043B502100F03AF951
:40618000044B1B681B68E418102322681A42FCD113BDC0466C90020813B5040010001A000300200000F0BEF80C23200000930022043B512100F01EF9044B1B681B68E41800
:4061C000102322681A42FCD113BDC0466C90020813B5040000F0A6F80823002200935221043B200000F006F91022054B1B681B68E31819681142FCD1C0235B00E05816BD75
:406200006C90020813B50400080011001A0004AB1B880090200000F0A3F80C230193043B00932000043B0022532100F0FDF8044B1B681B68E418102322681A42FCD113BD56
:406240006C90020870B50400A020164D800025503F2504302550002501263C3025500830255008302650104E1030265040382150A921890062502000190000F023F82A00D2
:406280006021200000F08EF84021084B1A681368E31818680840FCD1D369E4182268049B1A6070BD00000331010001006C900208034B1B689B68C0180F23006818407047ED
:4062C0006C90020870B504000D002000FFF7F0FF0628FAD88021054BC9051A68D368E3181960D368E418256070BDC0466C90020870B504000E0015002000FFF7D9FF052811
:40630000FAD8064B06491B68DA68A2181160DA68A2181660DB68E418256070BD6C90020810000041F8B504000F0016001D002000FFF7BEFF0428FAD8074B08491B68DA6815
:40634000A2181160DA68A2181760DA68A2181660DB68E4182560F8BD6C90020810020042F8B504000F0016001D002000FFF7A0FF0328FAD8094B0A491B68DA68A2181160FE
:40638000DA68A2181760DA68A2181660DA68A2181560DB68E418069B2360F8BD6C9002081032004370B504000D002000FFF780FF0728FAD8034B2D061B68DB68E418256050
:4063C00070BDC0466C90020870B505000C001E002800FFF76DFF0728FAD8054B24061B68DB68ED180123B3401C432C6070BDC0466C900208F8B507000C001D0006AB1E78E1
:406400003800FFF755FF0728FAD8064B02211B68B140D8680123AB4024061943381821430160F8BD6C90020870B506000C001D003000FFF73DFF0728FAD80221084B059A80
:406440001B682406D868049B301899400123AB4019430323934019432143016070BDC0466C900208F0B580270C4C7F002568DBB22C6A0619059C24023C40FF3F3A4022435F
:4064800032606A6A82181360AB6AC3181960EB6AC018069B03600020F0BDC0466C900208F0B504000F2716480568A8682618306838400C28FBD8E868124E20180660E86849
:4064C00020180260EA680F20A21813608C23059A5B01E250AB68E218136803400F2BFBD0B022EB68D205E3181A602B68E31818680028FCD12B6BE41823680B60F0BDC046F9
:406500006C9002080800007070B50F260B4B1B689C6805192C6834400C2CFBD886256D014459002CFCDBDC68054D04192560DC6804192160DB68C018026070BD6C900208F2
:406540000800007130B50F25064B1C68A368C21813682B400F2BFBD0E3680906C018016030BDC0466C900208F0B50F27094C2668B46805192C683C400F2CFBD0F4680903E2
:4065800000198024E405224311431B0419430160F0BDC0466C90020830B50F25094B1B689A68841822682A400C2AFBD8DA68064C82181460DA6882181160DB68C018082327
:4065C000036030BD6C9002080C000070F7B5040016001F00002501911C4BEA00D21831000823200000F066FB00282CD00135102DF2D10025310020000822FFF785FF082386
:4066000020001A000421FFF7AFFF082208992000FFF77AFF39002000FFF7BEFF082320001A000021FFF7A0FF019920004B1E99415231FFF787FF2000082301220C21FFF749
:4066400093FF2800FEBD024DD4E7C0464C19091003003100F7B504001600002700910193284BFD00ED182A0008233100200000F021FB002843D008232A00F118200000F001
:4066800019FB00283BD0310008232A001031200000F010FB002832D00137102FE0D10025310020001822FFF72FFF2000102308220421FFF759FF082320001A000521FFF71A
:4066C00053FF082208992000FFF71EFF01992000FFF762FF082320001A000021FFF744FF009920004B1E99415431FFF72BFF2000082301220C21FFF737FF2800FEBD024DE0
:40670000CEE7C0464C1909100300310010B58024A4000151812152005208890042508222DB00DB0892008350002010BD83239B0010B5C15001210433C150064B19680B68AA
:40674000C3181C68002CFCDB8B69C01803680020136010BD6C900208034B1B689B68C0180F230068184070476C900208034B1B681B68C0180368002BFCD170476C90020873
:40678000F8B504000F0016001D002000FFF7E4FF0C28FAD8E021074BC9051B680F43DA68A2181760DA68A2181660DB68E4182560F8BDC0466C90020870B504000D00200031
:4067C000FFF7CAFF0E28FAD8034B2D061B68DB68E418256070BDC0466C90020810B504002000FFF7B9FF0E28FAD8044B1B68DB68E418C823DB05236010BDC0466C900208FA
:4068000010B504002000FFF7A7FF0E28FAD8044B1B68DB68E418CA23DB05236010BDC0466C90020870B505000C0016002800FFF793FF0E28FAD8054B24021B68DB68ED184C
:40684000D023DB051E4334432C6070BD6C90020870B504000D002000FFF77EFF0E28FAD8CC21044BC9051B682943DB68E418216070BDC0466C90020870B524231500002248
:406880000C0000F0DDF9062D23D8280000F0FEFB04160D2B2236410069232360224B2362402363602C3BA36012E06A2323601E4B1433236240236360203BF4E76A232360A8
:4068C000194B3433236240236360203BA360043B636170BD6B232360134B5433236280236360403BDFE76B232360104B1433236280236360403BA360103BE9E76B2323602A
:406900000A4B5433236280236360403BA360203BDEE76B232360064B1433236280236360403BA360243BD3E7CC1909104C1A0910CC1A0910002370B504000D00CB61CB609B
:40694000FFF74CFF2000FFF711FFAB682A6A20000821FFF715FFA9682000FFF779FF2000FFF704FF2000FFF74BFF70BDF8B51E0004000D001700CB689B19CB602000FFF756
:40698000EBFE0C28FAD886225201A358002BFCDB0D4B0E491B68DA68A2181160DA68A2181760DB68E3181E606968B14201D9EE61F8BD2000FFF74CFF6B6829682000F61A8B
:4069C000FFF7FAFEF0E7C0466C90020808000071F0B50E004D68CF69C96885B04B0F0192CA0002920393702304000093802D01D0383B009339002000FFF72AFF2000FFF72A
:406A0000B5FE802239002000FFF70CFF009BBB4206D820003168FFF7CFFE2000FFF7A6FE029A039B691FDAB22000FFF7FBFE029A039B291F120E2000FFF7F4FE029A039BBA
:406A4000120CE91ED2B22000FFF7ECFE029A039B120AA91ED2B22000FFF7E4FE029A039B691ED2B22000FFF7DDFE31682000FFF7A3FE2000FFF77AFE7369019A0C212000FC
:406A8000FFF77EFE2000FFF7BBFE75692000FFF763FE0E28FAD8CE22064BD2051B682A43DB68E3181A60044AA358002BFCDB05B0F0BDC0466C900208F010000010B50400F6
:406AC0002423002200F0BCF82000FFF787FE2000FFF74CFE10BDF0B504000E0017001D008BB010AB1A7801A9FFF7C6FE01A92000FFF720FF3B00320001A92000FFF736FFA9
:406B00002A0001A92000FFF763FF200001A9FFF7D5FF00200BB0F0BD034B1B689B68C0180F230068184070476C900208034B1B681B68C0180368002BFCD170476C90020846
:406B4000F8B504000D0017001E002000FFF7E4FF0C28FAD8082D04D00C4AA358002BFCDB04E086225201A358002BFCDBE221084BC9051B680D43DA68A2181560DA68A21887
:406B80001760DB68E4182660F8BDC046D01000006C90020870B504000E0015002000FFF7BBFF0C28FAD8064B06491B68DA68A2181160DA68A2181660DB68E418256070BDE3
:406BC0006C9002080C00007070B51E000C0005000821FFF7B5FF210032002800FFF7DAFF34000F2C18D81024330964425C43A419A4B2002C0CD02800FFF78EFF0E28FAD8C0
:406C00000C4B0D4A1B682404DB681443EB181C602800FFF78BFF70BD2800FFF77DFF0E28FAD8044B054A1B68103CDB68A4B2EB181A60D6E76C90020808C0004008C0104005
:406C4000F8B51F0016001A0005003C00FFF7A2FF0F2C19D810243B0964425C43E419A4B2002C0DD02800FFF757FF0E28FAD80E4B0E4A1B683243DB682404EB1814431C6095
:406C80002800FFF753FFF8BD2800FFF745FF0E28FAD8054B064A1B683243DB68103CEB181A60A4B2D4E7C0466C90020800C0004200C0104270B51C008C2316000022050043
:406CC0005B01C2500A0023000821FFF739FF3200230009212800FFF733FF26000F2E1BD8102322095B4253431C19A4B2002C0CD02800FFF711FF0E28FAD80E4B0E4A1B68EF
:406D00002404DB681443EB181C602800FFF70EFF8C235B01E85870BD2800FFF7FDFE0E28FAD8044B054A1B68103EDB68B6B2EB181A60D3E76C900208980000439800104331
:406D4000F8B505001F000C0006AB1E8808213300FFF7F6FE33003A0009212800FFF7F0FE210032002800FFF715FF34000F2C18D81024330964425C43A419A4B2002C0CD042
:406D80002800FFF7C9FE0E28FAD80D4B0D4A1B682404DB681443EB181C602800FFF7C6FEF8BD2800FFF7B8FE0E28FAD8044B064A1B68103CDB68A4B2EB181A60D6E7C046B9
:406DC0006C90020898C0004198C01041F7B504001000A022214D9200A126A5503F22B600A251B02200259200A550B4270832A55001220193B823BF00E251194F9B00E750BD
:406E0000A827BF00E151A921019B890060501C3963500323134FA1593800194217D0A42189006250104A019611680A68A218280008E0002809D1019D6559AC466646094DF7
:406E40001E42F4D01568002DF3DBB84200D1FEBDCB69E4182268089B1A60F8E70000033101000100010032006C90020810B50A4B89061B6829331B78013B5C1EA3410C33D7
:406E80009A408023054C1B0624681943E4680A430019026010BDC04648A202086C900208054B064A1B68293319781300012900D05433034A1360704748A20208201B0910B7
:406EC0006C90020870B50400FFF7EAFF3D4B3E4A19680B0029331B78012B5DD13B4B2360012512682000536BE3181D60936B126DE318A2181A60CA6C0F21FFF7B7FF2000C2
:406F000000220E21FFF7B2FF200000220D21FFF7ADFF200000220C21FFF7A8FF200000220B21FFF7A3FF200000220A21FFF79EFF200000220921FFF799FF200000220821D0
:406F4000FFF794FF200000220721FFF78FFF200000220621FFF78AFF200000220521FFF785FF200000220421FFF780FF200000220321FFF77BFF200000220221FFF776FF4E
:406F8000290020000022FFF771FF002220001100FFF76CFF002070BD23680D48034080202360136880025B68E3181860802320681B060343236003238020A360054BC00197
:406FC000E0508DE748A202086C90020803000080FFFFFE7F881400000323037000207047054B1B6829331A7800230360012A01D1002070478360FBE748A20208064B89003B
:407000001A681369126DC91809180B6880189B009B0C9B00181870476C90020810B5064C246829342478012C02D1FFF799F810BDFFF7CAFDFBE7C04648A2020870B5DC086A
:4070400005001600A4B25B0701D00134A4B22800FFF7D4FF3200010023002800FFF7DEFF70BD70B5DC0805000E00A4B25B0701D00134A4B211002800FFF7C0FF3100020021
:4070800023002800FFF7CAFF70BD000002B4714649084900095C49008E4402BC704700BF10B501390244904207D010F8013B11F8014FA342F7D0181B10BD002010BD10B5F5
:4070C000431E0A44914204D011F8014B03F8014FF8E710BD02440346934202D003F8011BFAE770470EB400B59CB04FF402711DABADF81410029006906FF000410A48049150
:4071000007914FF6FF7153F8042BADF816100068019302A900F076F8029B00221A701CB05DF804EB03B070475043020810B5034642B111F8014B03F8014B013A002CF7D18C
:407140001A4400E010BD934202D003F8014BFAE710BD2DE9F0478E689E4282460C46914698463ED88A8912F4906F3AD0256809696F1A6569022305EB450595FBF3F57B1C7A
:4071800043449D4238BF1D4653050FD5294600F089FB064698B13A462169FFF790FFA38923F4906343F08003A38113E02A4600F0D7FB064670B92169504600F025FB0C23C3
:4071C000CAF80030A38943F04003A3814FF0FF30BDE8F087266165613E44ED1B2660A5604646464528BF464632464946206800F0EFFAA3689B1BA36023681E4426600020A2
:40720000BDE8F0872DE9F04F9DB0804603938B891C060D4616460DD50B695BB9402100F041FB2860286118B90C23C8F80030CDE040236B610023099320238DF82930DFF8C4
