:020000041000EA
:4000000000400208230100100D00000085010010000000000000000000000000000000000000000000000000000000008101001000000000000000008101001081010010E9
:400040008101001081010010810100108101001081010010810100108101001081010010810100108101001081010010810100108101001081010010810100108101001060
:400080008101001081010010810100108101001081010010810100108101001081010010810100108101001081010010810100108101001081010010810100108101001020
:4000C00010B5064C2378002B07D1054B002B02D0044800E000BF0123237010BD3C060008000000000C3F0010084B10B5002B03D00749084800E000BF07480368002B00D1DF
:4001000010BD064B002BFBD09847F9E700000000400600080C3F0010E8000008000000007047FFF7FDFF72B60F4C104DAC4209DA21686268A368043B02DBC858D050FAE75E
:400140000C34F3E70A490B4A0020521A02DD043A8850FCDC084809490860BFF34F8F00F02BF900F01DF8FEE7103F0010283F00103C0600084C0800080000000808ED00E073
:40018000FEE7FEE700B504207146084202D0EFF3098001E0EFF30880043001F0E1FCFEE710B562B6114800F08DF9114B1A683123D35C0E2B04D8C421FF310E4801F0A2FC10
:4001C0000B4B1B68186AB0229A5AD3009B1A5B00C01800228021C90100F03AFF064801F06BFC002002F0CEF9F8E7C0460000081048080008F82E00108813000010B50020E3
:4002000001F012FA10BDC04670B56249E0239B00CB580F2213401A00D0329200525807210A40032A05D0042A06D0002A12D15A4814E05A4A106811E01A00C032920055491D
:4002400052581F210A40112A06D0132A04D0FA20C00103E0524801E080200002002B36D14C4BB222D2009A5801211140B125ED005A59120F032422405B591B0F1C4207D046
:40028000444C63591B0F03242340012B02D102E0012300E00023002B01D0002901D1032A4BD13C4BB022D2009D58AD03AD0B3D495958C904C90C9C58240E01231C400134BA
:4002C00002F054FD6843210002F050FD35E0012B33D1304BC822D2009A5801251540C024E4001A59120F03210A401B591B0F194207D028490B591B0F03210B40012B02D1C0
:4003000002E0012300E00023002B01D0002D01D1032A12D11F4DC022D200AB587F210B40A958090A1F263140AC58240C3440584302F01CFD210002F019FDE0239B00154A5D
:40034000D3581B0903221340D840144C6060164B1D692D0AFC32154001351969090E013102F004FDA060290002F000FD0500E06020610E4BC0180E4902F0F8FC20750D4BB0
:40038000E818FA21890002F0F1FCA061C003E06170BDC0460000264000127A00C000000800366E0184050000000021403F420F0040420F00E703000010B5284802F0FAF914
:4003C000274CB022D200A3585B005B08A350E0218900635830208343635080235B04A350204A214BE250A02292010433E250FF221E4BE25002F0CCF9C0225200A3580121AD
:400400008B43A35000F054FAFFF7FEFEB0235B055B78002B04D0B0235B055B78DBB200E02123212B03D1124B0022DA605A60114C22008021042000F09DFE2000103000F05D
:4004400031FF0D4B1A685123D35C002B02D00B4800F09EFF00F0CCFB10BDC046E83D00100000264001000200840500008C050000E00023405806000848080008382F001038
:400480008023024AD3580320184070470000214010B501F0F6FB084980228C58074B2340074C23438B508823034AD358DB06FAD501F0EBFB10BDC04600002140FCFF0000EF
:4004C0000100FA0570B50500830504D0E821FF310F4801F017FB01F0D4FB0400FFF7D0FF032801D1FFF7D4FF0A4AB0239B00D55080215058084B03400848034353508823EA
:40050000044AD358DB06FAD5200001F0BEFB70BD6C2F001000002140FCFF00000300FA05FEE7C046F0B50025002711E0BB00C658F3B2FF22964308E06A008A181478A41910
:40054000527822700135013BDBB2002BF4D10137002FEBD0F0BDC04680221206054B1A60054A064B1A60064A064B1A60064A074B1A60704700001D410902010000031D4104
:400580000B00010044031D4101001180000E1F4110B50A00002102F07EFC10BD10B502F071FC10BD30B587B0AE4A116808230B431360AD4C03E0012001F098FA013CA94B46
:4005C0001B695B0701D4002CF5D1002C01D1A74B00E00023002B02D00520FFF7A1FFA448A021C900435803229343023A134343500332A04901A802F045FC01A802F08CFA57
:400600009D4A116808688823CB58C31818689B49084018601368186884241B59C01803681B021B0A80256D042B430360106805680359EB1818680140196013683E229A5C4B
:40064000002A06D08A48E02189004258753CA24342503E229A5C002A06D08548E021890042583024A24342503E229B5C002B07D07F49E02292008B588020000603438B50EB
:400680000021012001F002F80021022000F0FEFF0021032000F0FAFF0021042000F0F6FF0021002000F0F2FF01A80200714B043332CB32C212CB12C201F016F8002802D02B
:4006C0000420FFF72DFF6A496D4A8B588020000603438B506B4801F0C1F8002802D00420FFF71EFF624C684BE158684A0A40E250E158674A0A40E250E25880252D062A4365
:40070000E250043BE158634A0A40E250E158624A0A40802189010A43E250E258802109020A43E2504F4A11685C4B0B401360002001F0A4FF5A4BE2582A43E250E1580122A3
:4007400091430A43E2506421002001F021FA4A4B1B683F229A5C032A03D90021514A986881509A6874215B5AD2181168434B0B40A021C9000B4313603F4B1B687322995C06
:40078000703A8A40110070229A5C7220185C82400A43802109060A438021C900986842509A6852583F229A5C052A06D970229A5C01210A403C49986842509A6874215B5AB6
:4007C000D21851682D4B0B408C2189010B435360294B1B6873229A5C0321914070229A5C7220185C140084402143012002400A43802109060A438021C900986842509A686F
:4008000052583F229A5C392A06D970229A5C02210A402649986842509A6874215B5AD2189168164B0B40C42189010B439360124B1A687323D35C032199407023D35C7220FF
:40084000105C1C0084402143022003400B43802109060B438021C9009068435093685B5807B030BD0000274020A1070002004A0000002640842F001048080008FF00FFFFD7
:40088000087F0000400D030004050000FEFCFFFFFFFF00FFFFF0FFFFFF8FFFFFFFFCFFFF0C0500000C0C0000140C0000E40C000070B58EB03221012001F06AF901F040F963
:4008C000002801D101F02CF9002001F0E7FC022001F04CFD052001F091FC9621002001F057F9574A516C574B0B40E82189010B435364536C1B0AFF2213403A2B07D1504ACB
:40090000516C514B0B40E82189010B435364002300224E494E4801F0CFFE002300224D494D4801F0C9FE3422002101A802F0B3FA4A4C01AA0021200000F062F93422002120
:4009400001A802F0A8FA01AA0121200000F058F9FFF728FE424A434B1A6000240CE0620012195300404AD318998B1A8B588B00041043FFF70DFE01340B2CF0D900240AE0B0
:40098000620012199300384AD3189A6E596E186EFFF704FE0134112CF2D9344D2900383128003C30FFF7BEFD0F22314B1A60314A314B1A60314A1368812149000B4313608E
:4009C00001AC24220021200002F065FA2100234800F0B0FA22002B00403343CB43C243CB43C243CB43C22100254800F0A3FA22002B00643323CB23C223CB23C223CB23C2DB
:400A00002100204800F096FA22001F4B083323CB23C223CB23C223CB23C221001B4800F089FA24220021200002F035FA0B2301932100174800F07EFAFFF78EFD0EB070BDB8
:400A400000002740FF00FFFFFFC5FFDF0F0E0040050E0000000700402A070000000032400300FA05F0012140842F00108430001000006440070101000002644000793440FB
:400A80008002324000033240043100108003324000053240214B984230D00ED8402831D004D800281FD010282AD031E080282BD080235B00984229D02AE0194B984229D09C
:400AC00007D8A0231B0698420DD0164B984212D01EE0154B98420AD0144B984209D0144B984215D101E0002016E0124814E0124812E0124810E0A020C0030DE007480BE097
:400B00000F4809E00F4807E00F4805E0034803E00E4801E0A420C0037047C04606005200010000F0090000A0040000F0050000F0030000F001005200020052000300520088
:400B4000010050000200500005005200FF00520070B5124B1A683123D35C002B04D1C421FF310F4800F0CEFF0C4B1D682C00B423EB582A6A944663441B68002B0BDB094B5B
:400B80001868FFF787FF6B6801229A6063689B68002BFBD100E0044870BDC04648080008F82E0010E80700080200500010B50D4B1861002805D002230370FD33437000231D
:400BC0004380094B1B6850229A5C002A08D051229B5C002B04D04F3A0449002000F092FC10BDC046E8070008480800086101000810B502481430FFF7D9FF10BDE8070008A3
:400C0000F8B54F464646C0B406000D001400002800D16FE1002A00D16EE1072903D94521B84800F06FFF2368012B03D94621B54800F068FF0F2362689A4303D04721B1488D
:400C400000F060FF237A1F22934303D04821AD4800F058FFE368032B03D94921A94800F051FF2369012B03D94A21A64800F04AFF6369012B03D94B21A24800F043FFA3697B
:400C8000012B03D94C219F4800F03CFFE369032B03D94D219B4800F035FF236A012B03D94E21984800F02EFF636A012B03D94F21944800F027FFA36A012B03D9502191484B
:400CC00000F020FFE36A032B03D951218D4800F019FF236B072B03D952218A4800F012FF2768072D03D98849884800F00BFF012F04D9CA218900854800F004FF002F03D1DF
:400D00000123AB40736002E00123AB40B3606768072D04D9F12189007C4800F0F3FE0F233A009A4303D07A49784800F0EBFEA900784B1A687D23D35C9B191A6890460F223B
:400D400091468A40404690430200484607408F4017431F60277A072D04D9A22189006B4800F0D0FE1F233A009A4303D06A49674800F0C8FE674B1A689369F31ADB0952696B
:400D80001B01D318032D0AD81968E8001F22824091431F22174087400F431F600AE02A1F5968D2001F20904081431F20074097400F435F60E768082D04D9DD21C9005348E0
:400DC00000F0A0FE032F03D95449504800F09AFE6900504B1A687C23D35C9B191A689046032291468A40404690430200484607408F4017431F602769082D03D948494348DF
:400E000000F080FE012F03D94649404800F07AFEB36901221100A9408B431740AF401F43B76163699846072D03D93F49374800F069FE4346012B03D93C49344800F062FEF8
:400E400034487E230268D35C9B191A6801273900A9408C468A43110042463A40AA400A431A606B0010229046984403210B00424693406246134399467F2203689A5C944647
:400E8000B44463461A684B469A43A3693B40AB401A43E3691940434699400A4363461A6002688023D35CF6183368FF22944693431800236A1F40636A5A00022313403B4384
:400EC000A26A9100042739400B431F00E36AD900182319403B000B43226B520161460A401343AD00FE2292001540AB4003433360002002E00E4800E00D480CBC9046994658
:400F0000F8BDC046603A001027030000A03A0010C50300004808000889020000E9060000690600006A060000030400000404000001005A0070B505000C0000285DD00029A1
:400F40005DD0FF230A689A4303D099212D4800F0D9FDFF2322699A4303D09A21294800F0D1FDA3685B0D03D09B21264800F0CAFD63685B0A03D09C21224800F0C3FDE36977
:400F80005B0F03D09D211F4800F0BCFD236A5B0F03D09E211B4800F0B5FD1B4A11688B69EB1ADB0949691B01CB18216829607D211068415C6918E06808607E211068415C82
:400FC0006918206908607F211068415C6918606908607C211068415C6918A06808606168A961116880228A5CAD18A2692A60E2691A60226A5A60002002E0044800E00348C3
:4010000070BDC046603A00104808000801005A0070B504000D000A4B1A68B423D3581B181B68002B0ADA0B0C03D00649064800F069FD2D042D0C6560002000E0034870BDC8
:4010400048080008D5020000E03A001001008A0070B505000C000368002B01DA002300E0084B002B0BD1EA60230C03D00649074800F048FD2404240CAC60002000E00148BC
:4010800070BDC04601008A00BB020000E03A001070B505000C1E03D19921084800F032FD074B1A68B423D3585B191B68002B03DAEB682360002000E0024870BD203B0010AD
:4010C0004808000801008A0070B504000D00234B1A683123D35C834236D9002936D00B68DB0635D13123D35C984204D3C421FF311B4800F007FD194B1B681A6AB0215B5A76
:401100005C431419174E34602B68DA080021686801F0C1FE00212000FFF77AFF3468002D03D111490E4800F0EDFC2A0000212000FFF78EFF00280DD10A4B18680021FFF71E
:4011400067FF002808D108E0084806E0074804E0064802E0064800E0054870BD48080008E03A0010000800089303000003018A0001018A0010B50400002A17D1002915D1B3
:40118000124B1A683123D35C984204D3C421FF310F4800F0B7FC0D4B1B681A6AB0215B5A5C4314190B4B1C6000200EE0002A09D0002909D0074B59609A60191D2000FFF726
:4011C00083FF02E0044800E0034810BD48080008E03A00100008000803018A00F0B583B00D001C4B1B68DC68236883422DD947097B01C01A012383401E00002903D100F026
:4012000040FD019001E000230193124B18680368002B01DA002300E00F4B002B0ED16368BF00DF193B68334203D0B3433B60002400E00A4C0021FFF7EBFE00E0084C002DDA
:4012400004D1019800F021FD00E0064C200003B0F0BDC0460008000801008A00020188000301880004018A000A4B1B68DA68136883420BD943095901401A0121814052681E
:401280009B009B580B4203D0034802E0034800E003487047000800080101880004018A0000018800034B1B68002B01D1014B18607047C0460C080008F0B5474680B404009F
:4012C0000F0090461E002D4B1B68002B03D1B5212B4800F017FC294B1B682C2060431C18FF22150035402560330A13406360360CA660244B1A683123D35C9D4204D3C421B1
:40130000FF31214800F0FEFB1E4B1A68B023D35A6B43116A8C466344236166683223D35C9E4204D3E021FF31174800F0EBFB154B1B681D6A80367601AD196561A668330C3B
:4013400004D0FF214900104800F0DCFB330C03D00E490D4800F0D6FB3604330C1E43AE604346E36127620023A361069B002B02D000229B5EA38104BC9046F0BD0C080008F1
:40138000603B001048080008E03A0010FF010000F0B58FB0041E03D15221294800F0B2FB6368032B03D95421254800F0ABFBE36A002B03D15821224800F0A4FB236B002BE1
:4013C00003D159211E4800F09DFB07AA1300210061C961C321C921C302AD290023001433C1CBC1C141CB41C10821535E0CAE3380144B1B6836215B5E07998C466344B370DD
:40140000089B0D930B9B0A980096A26AE16AFFF753FF2B69E868002200920021FFF74CFF216B300000F0E6FA0023F25E002A05DB1F231A401E3B9340034A13600FB0F0BDF5
:40144000603B00104808000800E100E0F8B505000F0016001C00002A03D1FD21224800F051FB224B1B68002B03D1FE211E4800F049FB1E4B1B682C21280048431818794373
:401480005918012213004D68AB401B044568AA4015000269002A20D08F69002F1FD11268002A01DA002200E0114A002A19D132681204120C134333600369DE6001238B611D
:4014C0004C6204692B0C03D00A490B4800F01AFB2A04120CA260002004E0084802E0084800E00748F8BDC046603B00100C08000801008A00BB020000E03A001004028A0095
:4015000007028A0070B504000D0016000F4B1B68002B04D1AF2149000D4800F0F3FA0B4B1B682C2060431C18236A002B04D1B1214900074800F0E6FAE369B34204D9236A36
:40154000B6009D51002000E0024870BD0C080008603B00100A028A0070B582B0040000230193002804D1D221FF312D4800F0CAFA2369002B04D1E9214900294800F0C2FA9C
:401580006369002B04D1D421FF31254800F0BAFA236A002B04D1EA214900214800F0B2FA6269D5682B0C24D01B041360136820691C4B1A68B423D358C3181B68002B18DA14
:4015C00001A9FFF765FD00280ED1019803681E0CFF221340E269934207D29B00226AD358002B02D0984700E0002631002069FFF70FFD2D042D0C0FD063691D601B68636A75
:40160000002B03D098470023636203E0A36A002B00D098470023A36163691B6802B070BD603B00104808000810B50400084B1B68002B04D1B221FF31064800F063FA044B37
:401640001B682C2060431818FFF786FF10BDC0460C080008603B001010B50400094B1B689B6CC340DB0703D4BE21074800F04AFA044B1B681B691034A402E3580F201840EC
:4016800010BDC04648080008A03B0010134B1A683C23D35C83421DD9042904D94B1EFF3B9BB2132B18D8FF290CD91F2319400C4A0300C0339B009950D030800004238350D1
:4016C00000200AE007231940D0308000044BC150002002E0034800E002487047480800080000264001004A0070B5041E03D14A494A4800F007FAB023DB00494AD358002B7E
:4017000000DA87E0474B22689A4203D94649434800F0F8F923689B039B0BE279002A02D08022520400E000221343B022D2003C498B50A2883D4B9A4204D984218900374807
:4017400000F0E0F92289344B9A4203D93849334800F0D8F9A388DB04D90C23891B04354A13400B43344A2E498B50A37A0F2B04D986218900294800F0C5F9E37A0F2B03D961
:401780002E49264800F0BEF9A289284B9A4203D92B49224800F0B6F9A37A0F211940E27A1201FF2313400B43A289120225490A401343A27B1207C02189050A401343B1228D
:4017C000D20017498B50A379042B03D91E49134800F098F9228A104B9A4204D9892189000E4800F08FF90E4818494558184B1D40A3791B02E022D20013402B43435045589F
:40180000144B1D40238A1B040A4A13402B434350002000E0104870BDFF010000E03B001000002640FFFF030009020000FF1F0000110200000000FF01840500001902000081
:401840001A02000000FF1F00230200008C050000FFF8FFFFFFFF00FE03004A0070B505003149324A8B588020000603438B502C0003E0012000F03AF9013CB223DB002A4ABC
:40188000D3585B0701D4002CF3D12749B122D2008858274B03408020800503438B50002D01D0002C0CD02049B022D2008B588020000603438B5003E0012000F017F9013CE8
:4018C000B223DB00184AD358DB0701D4002CF3D1002D01D0002C08D01349B122D2008B58C020800503438B5013E00F4BB121C90058580F4A02408020800502435A50083910
:401900005A58520052085A5008495A58520052085A50002D03D0002C03D0002002E0002000E0044870BDC046000026408C050000FFFFFFCF02004A0070B505000C001A4B1C
:401940001B6828229A5C012A15D1820807211000884327D19200AD1AED00FF20A8401B6820339A181168AC4023004B40184004004C40146016E03A229B5EDBB2994203D143
:4019800076210A4800F0BEF8074B1B681B68072215408022120615438022920194466444A400E55070BDC04648080008683C001070B504000D000B4B9A680B4B9A420CD144
:4019C000002904D13821FF31084800F09BF81034054BA400E058E55003E01034A400044BE05870BD00ED00E000000008683C001000000010F0B5474680B482B0061E019182
:401A00004AD04368032B03D93221264800F07AF80023F05E002804DBB178FFF78DFF002400E0214C0023F15E7368002912DB88081E4FC0308000C55903221140C900FC32C5
:401A400090468A4095439A01434613408B402B43C35116E089B20F220A40083A92080632920013481018476803221140C900FF252A008A4097439A012B0013408B403B4313
:401A800043600B4B9A680B4B9A4206D10023F05E0199FFF78DFF00E0034C200002B004BC9046F0BD683C00100100560000E100E000ED00E00000000810B5040006E0084BAE
:401AC000186800F0D5F8074B9C46644480231B029C42F4D8044B1868604300F0C9F810BDDC0000080080FFFFD800000810B5034B1B78584300F0BCF810BDC046D40000089D
:401B000001BEFEE770B50D00044C18220100200001F0C9F9A5610020FFF7F2FF00060008054B802212069A649B6C002B01DB002000E002487047C046000027400300460089
:401B4000054B8022120198585B68FF221A4202D08023DB021843704700002640FEE7C04610B50A4B0268DA6142681A6282685A62C2689A620269DA6242691A6382695A6353
:401B8000C2699A63FFF7EAFF10BDC04600060008F0B5474680B4002801D0192300E064238B429B415B42304D2C682268A826A45BA41822680327BA433B401A4322602C6832
:401BC0002268A45BA2181668284CA046264016602C682668AA229446A25A96193268BA43134333602A6813686546525BD3181A68444614401C60002805D010291BD921295B
:401C00001BD8012024E0184B1B6855229A5C914215D956229A5C914213D957229A5C914211D958229A5C91420FD959229B5C99420DD804200CE000200AE0022008E000207E
:401C400006E0012004E0022002E0032000E00520054A1268526813680F218B430343136004BC9046F0BDC04648080008FFFCFFFF0230800803D001300238FCD1C046C0462D
:401C80007047EFF3108072B6704780F31088704710B5B0235B059B899BB2002B04D0B0235B059B899BB201E080235B0080225200934215D1184C23681968683A9B58C918DA
:401CC0000B680F208343963A13430B6021680C689C23CB58E318196881430A431A6019E00D4C2368196898229B58C918B02040050A4BC2580A4B13400A681343C0229200B1
:401D000013430B60226811689C23D358CB18054A82581A6010BDC0464808000848180000FFFCFFFF4418000030B5B0235B059B899BB2002B04D0B0235B059B899BB201E082
:401D400080235B0080225200934215D1184C23681968683A9B58C9180B680F208343953A13430B6021680C689C23CB58E318196881430A431A6019E00D4D2B6819689822D1
:401D80009B58C918B0246405C12040012258094B13400A681343C022920013430B602A6811689C23D358CB1822581A6030BDC04648080008FFFCFFFFB0235B059B899BB21E
:401DC000002B04D0B0235B059B899BB201E080235B008022520093420DD1104B1B681A6898215B58D21811680D4B0B40C021C9010B43136011E0094B1B68196898229B5886
:401E0000C918084BB0225205D258074B13400A681343C022920013430B60704748080008FF8FFFFF18180000FFFCFFFF30B5B0235B059B899BB2002B04D0B0235B059B89D6
:401E40009BB201E080235B008022520093420DD1134B1B681A6898215B58D2181168114B0B408021C9010B43136018E00C4D2B68196898229B58C918B02464050A4822588E
:401E80000A4B13400A681343C022920013430B602A6811689C23D358CB1822581A6030BD48080008FF8FFFFF4C180000FFFCFFFF10B5B0235B059B899BB2002B04D0B02348
:401EC0005B059B899BB201E080235B0080225200934217D10020FFF7BFFBB0235B055B78002B04D0B0235B055B78DBB200E02123222B03D8002803D1013004E0012002E0B9
:401F0000002000E0012010BD10B50400012803D910491148FFF7F6FD002C03D10F4B5869C00F00E000200E4B1A684423D35C002B0ED0012C0CD1094B9B695B0005D4074BFE
:401F40009B69002B03DA012002E0012000E0002010BDC04662070000AC3C0010000026404808000870B504000D00154B1A684423D35C002B22D0072803D912491248FFF7BE
:401F8000C1FD0F4B1A684423D35C002B04D00F4B9B690722134000E0002321009C420DD00A4882690726B243344014438461002D04D0994202D9C820FFF798FD70BDC046CD
:401FC00048080008CC070000AC3C00100000264030B585B004000D00022807D9042805D0032803D02A492B48FFF78CFD6B1EDBB2012B07D9042D05D0082D03D026492548B3
:40200000FFF780FDA400254BE458042D13D0012D1CD112E0A3682B420BD1E3681A6802925B6801930393290002A8236898471B4B5C61646902E0002000E00020002C24D0CB
:40204000174B9842E6D1012DE4D11EE0022D01D104E01C006369002BFBD104E00F4B5C69002C00D0246900200DE0A3682B4209D1E3681A6802925B6801930393290002A8BC
:40208000236898472469002CEFD105B030BDC046B2090000AC3C0010B309000010080008FF00420010B5FFF7ECFD074B5A6807490A40E824A40122435A605A6811405960D7
:4020C0005B68FFF7E2FD10BD00002640FF00FC0FF8B50700012803D93D493E48FFF712FDB0235B055B78002B04D0B0235B055B78DBB200E021239DB2B0235B059B899BB292
:40210000002B04D0B0235B059E89B6B201E0802676000020FFF7A0FA002814D180235B009E4212D1222D12D82B4B1B685C682B4821582B4B19403B068022520413400B43D8
:402140002350002404E0274C02E0264C00E0254C80235B009E4201D1222D03D880235B009E4232D01C4B1A683123D35C002B04D1C421FF311C48FFF7C5FC174B1B681D6A0A
:4021800080235B009E4203D1002F05D0174A06E0002F03D0164A02E0164A00E0164A01212800FEF755FF00280FD10B4B1A68B423D3585B191B68002BF7DBEB681B0E1B0638
:4021C000A0221206934200D100242000F8BDC0464C0A0000AC3C00104808000818F00000FFFFFFFE04004200F82E0010010100300300000C010000300100000C70B5040093
:40220000022805D0052803D020492148FFF77AFCFFF74EFE002836D0FFF733FD0600022C07D10120FFF754FF051E0FD1FFF730FD0CE018494B6907229343043A13434B61EF
:402240003420FFF753FCFFF7F1FD0025002D16D110494B69072293431A000723234013434B61022C02D1FFF7A7FD08E09120FFF73DFCFFF759FD0020FFF72AFF05003000D0
:40228000FFF703FD00E0044D280070BD02070000AC3C00100000264003004200F8B50500012804D9822109012948FFF72BFCFFF7FFFD002849D0FFF7E4FC0700002D11D1E4
:4022C0000021244B244AD150E823DB00B0225205D65CF6B20120FFF7FBFE041E19D1FFF7D7FC16E0B02252051C4BD0581A4B194958501B49565CF6B21A481A581F218A4335
:4023000014390A431A500320FFF7F0FBFFF78EFD0024002C15D11049124A8B581F20834306401E438E50002D02D1FFF745FD08E00720FFF7DBFBFFF7F7FC0020FFF7C8FEE4
:4023400004003800FFF7A1FC00E0074C2000F8BDAC3C0010307F00000000264010180000410700001CFF000003004200F8B50400022806D0052804D0CC21C9003E48FFF7C5
:40238000C1FB3E4B1B681B0268D4FFF77AFC0700022C1CD13A4B394AD3581F221340E822D200B02149058A5C9A4204D00020FFF775FF050000E00025002D09D12F4830498B
:4023C00043581F229343143A1343435000E02D4D052C1BD12A4B294AD3581F221340E822D200B02149058A5C9A4204D10120FFF755FF050000E00025002D07D11F482049FA
:4024000043581F229343043A13434350002D21D10920FFF76BFB194E3368E022D20313433360726907239A431C401443746173698022D20513437361736980221206134388
:402440007361E1208000FFF751FB336880221204134333603800FFF718FC0BE0074B5B69072213409C4204D02000FFF7C7FE050000E000252800F8BDAC3C001000002640F8
:402480001CFF00000300420010B5041E03D115491548FFF737FB154B1A68D168F222D2018A5822601B68F022D201D9688A5862600F4AD9688A58A2600E4AD9688A58E26030
:4024C0000D4AD9688A5822610C4AD9688A5862610B4AD9688A58A261DA680A4BD358E36110BDC046A10A0000AC3C00104808000804780000087800000C780000107800004C
:40250000147800001878000010B5041E03D114491448FFF7F7FA144B1B68F022D201D96860688850114AD968A0688850104AD968E06888500F4AD968206988500E4AD968B1
:40254000606988500D4AD968A06988500C4AD968E0698850DA682168F223DB01D15010BDC90A0000AC3C00104808000804780000087800000C780000107800001478000028
:402580001878000070B50500012804D9A62189003548FFF7B7FA354B5B68002B05D001210120FFF715FD040000E00024002C53D1FFF767FB06002D4B5B68002B03D0042145
:4025C0000120FFF705FD2A4B1B6843229A5C002A08D09A68E023D358DB0603D523481830FFF752FFB0235B059B899BB2002B04D0B0235B059B899BB201E080235B008022C2
:402600005200934203D1280000F06EFC09E0194A116904230B431361012D01D030BF00E020BF134B1B6843229A5C002A08D09A68E023D358DB0603D50C481830FFF764FFA5
:402640003000FFF722FB094B5B68002B09D008210120FFF7BDFC04E002210120FFF7B8FC054C200070BDC046AC3C0010100800084808000800ED00E0FF004200042805D10D
:402680000B4A116804230B4313600FE0094B1A681168A023D358CB180006C022920410401860034A136804218B4313607047C04610E000E048080008F0B54F464646C0B4C2
:4026C00083B006000D0000921F00012B03D95B212B48FFF717FA330B03D05C212848FFF711FA284B1A686E23D35A9B08013B264A13432A009A4301D16B0003D45D2120488D
:40270000FFF700FA32006A40F0231B011A40141E2FD1FFF7B6FA01901A4B18686C23C15A83689C4661446E23C35A9A08013A2A40920090466A22825A15402D0A5D432A00BF
:40274000424455182A68920A9202FF231E40009B002B01D00134FF3426437F0280239B001F403E4316432E600198FFF78EFA002000E0064803B00CBC90469946F0BDC046EE
:40278000EC3C001048080008000F00400100CE000749C02252008B589B009B088020C00503438B508B588020000603438B50704700002640014B18607047C04648080008A0
:4027C00070B50D000F4B184300040F4BD861FA24A40003E0013C0120FFF788F90A4B1B6CDB0701D4002CF5D1002C08D0064B196C01220A431A64DB6A2B80002000E0034859
:4028000070BDC0460080FFFF00003C400400160010B500040E4B184001430E4BD961FA24A40003E0013C0120FFF760F9094B1B6CDB0701D4002CF5D1002C06D0054A116C5C
:4028400001230B431364002000E0034810BDC0460000FF7F00003C4004001600F0B583B006000A24C02149017548FFF7D1FF002804D16B46991D7248FFF7A2FF002C01D0D1
:40288000013C00E06F48002805D16B46DA88C0235B019A42E6D1002825D16B46991D6A48FFF78EFF00281ED16B4606331B885B0519D40A248021C9006348FFF7A9FF0028AD
:4028C00004D16B46991D6048FFF77AFF002C01D0013C00E05B48002805D16B46DA888023DB009A42E6D1002804D16B46991D5748FFF766FF002844D16B4606331B883F221D
:402900009343B278012A15D1F178012904D88FB20222D21B95B201E000250227402213439BB2302213436A46D380494BCB40494A136013E0F178002904D18FB20122D21B4F
:4029400095B201E00025012740229343102213436A46D380404BCB403E4A13606B469C1DD9883943D9803948FFF752FFF378DB1B03221340AA0092B213432380374A384964
:402980008B50B0235B055B78002B04D0B0235B055B78DBB200E02123212B4FD0314BB0225205D35A9BB2002B48D0002804D16B46991D2D48FFF704FF002824D16B469A1D5C
:4029C000DB8860218B4318001380B0256D05254C2B5B60310B405B08034324490B401380295BC901F020C00001400B43204919401180285BC0239B000340DB001943118060
:402A00001948FFF705FF002804D16B46991D1948FFF7D6FE002811D16B469A1DD988C023994311800F4BB0204005C05A302303409B00194311800F48FFF7EAFE03B0F0BD4D
:402A4000021E000004001600031E0000091E00000048E801C00000080024F40064F0010000003C4016180000071E00007FF5FFFFFFE7FFFF061E000070B50C004000084963
:402A800001430848FFF7C4FE051E04D106490748FFF7BEFE05006001FFF728F8280070BD01100000081E0000376800000F1E0000F0B59DB013A9144B0A00180070C870C215
:402AC00070C870C270C870C20AAD28001A002432D0CAD0C0D0CAD0C0D0CAD0C001AC22004833C1CBC1C2C1CBC1C2C1CBC1C20748FEF720FA29000648FEF71CFA2100054870
:402B0000FEF718FA1DB0F0BDA03E0010000132408001324000023240F8B5051E00D1DDE0734B5B689B0301D5FFF7BCFA714C03E0013C0120FEF7DAFF6F4B704AD358002BB7
:402B400001D0002CF4D16E4B6C4AD358DB0704D56C4BD358DB0700D5C2E0674B674AD358002B00D0BEE0FFF7A3FF644B6649674A99502A78A02109030A4365495A5065498A
:402B8000654A9950802252009B58DB0700D5ABE0624B1B6F1B0709D4614B1868614B984206D9190000F0E2F8013802E0012000E00020524B1B68002803D040035A4A104319
:402BC00000E05A4818434D4B1860494B5B695B0017D501210320FFF7C5F9454B5B699B0F01221340524A116844228A5C002A0ED0002B0CD03E4A93698021C9050B43936137
:402C000005E03E494B4A8858032303438B503B4C3B4AA658484B3343A3504020FEF766FF464BE358DB070BD42700444C01233B514020FEF75BFF03233B514020FEF756FFAD
:402C40003F4F37403F4E3E432D4B2C4AD650FA24E40003E0013C0120FEF748FF3A4B3B4AD358DB0601D4002CF4D1002C01D0002400E0374C002C23D12049364A885808233A
:402C800003438B500120FFF73FF9002801D1324E3E43324B1E4001231E43194B174AD650144E03E0013E0120FEF720FF154B134AD358DB0701D4002EF4D1002E00D1244CA4
:402CC000002C03D12800FFF7C9FD0400002C0CD168782978FFF7D0FE040006E0204C04E0204C02E01F4C00E01F4C2000F8BDC04600002640F07E0E006CF0010000003C40CA
:402D0000A0F00100B4F0010006000001A4F00100A8F0010001000100ACF0010000F03D40C800000800093D00041A0080040A008048080008C4F0010030000300B0F00100F9
:402D4000EFFFFEFF2000020010400000000032400400160068F0010028000200FFFFFBFF010016000300160002001600002243088B4274D303098B425FD3030A8B4244D32A
:402D8000030B8B4228D3030C8B420DD3FF22090212BA030C8B4202D31212090265D0030B8B4219D300E0090AC30B8B4201D3CB03C01A5241830B8B4201D38B03C01A5241E6
:402DC000430B8B4201D34B03C01A5241030B8B4201D30B03C01A5241C30A8B4201D3CB02C01A5241830A8B4201D38B02C01A5241430A8B4201D34B02C01A5241030A8B42AD
:402E000001D30B02C01A5241CDD2C3098B4201D3CB01C01A524183098B4201D38B01C01A524143098B4201D34B01C01A524103098B4201D30B01C01A5241C3088B4201D3A1
:402E4000CB00C01A524183088B4201D38B00C01A524143088B4201D34B00C01A5241411A00D20146524110467047FFE701B5002000F006F802BDC0460029F7D076E77047CB
:402E80007047C046002310B59A4203D0CC5CC4540133F9E710BD03008218934202D019700133FAE77047030030B5002A0DD00C7801335D1E013A2C700131002CF5D19A1835
:402EC0009A4202D01C700133FAE730BDF8B5C046F8BC08BC9E467047F8B5C046F8BC08BC9E4670470000000001B40248844601BC604700BF3503000847656E6572617465B3
:402F0000645F536F757263655C50536F43365C70646C5C647269766572732F7065726970686572616C2F6970632F63795F6970635F6472762E6800000300000001000000CE
:402F4000010000000000000005036000040000000100000000000000010000000604600008000000C8070008FD01001073797374656D5F70736F63365F636D30706C757379
:402F80002E63000019200102F4010000140004010A0009050800000063010000002034407400802034407400002234407400802234407400002434407400802434407400F6
:402FC000002634407400802634407400002834407400802834407400002A34407400802A3440740000213440303100109000000000233440C031001090000000002534409A
:40300000503200109000000000273440E032001090000000002934407033001090000000002B3440003400109000000000603440903400107C000000806034400C35001005
:403040007C00000000613440883500107C00000080613440043600107C00000000623440803600107C00000080623440FC3600107C00000000633440783700107C0000005D
:4030800080633440F43700107C00000000643440703800107C00000080643440EC3800107C00000000653440683900107C00000080653440E43900107C000000683000004E
:4030C00001713440220000000000000000000000680060080000000000000000000000001212000000000000030000000800000080000000CC8000BA000000000000000043
:40310000000000001313000000001D1D1C0000000000000000000000006606000000000000000000000000000000030000000000000000000000000000000000FFFFFFFFA8
:40314000FFFFFFFFFFFFFFFFFFFFFFFFFFFFFFFFFF000000FFFFFFFFFFFFFFFFFFFFFFFFFFFFFFFFFFFFFFFFFF000000000000000000000000000000000000000000000075
:4031800000000000FFFFFFFFFFFFFFFFFFFFFFFF111111111111111111111111111111111111111111111111111111111111111111111111111111111111111111111111EB
:4031C000000000000000000000000000FFFFFFFFFFFFFFFFFFFFFFFFFFFFFFFFFFFFFFFFFF000000FFFFFFFFFFFFFFFFFFFFFFFFFFFFFFFFFFFFFFFFFF00000000000000F9
:403200000000000000000000000000000000000000000000FFFFFFFFFFFFFFFFFFFFFFFF11111111111111111111111111111111111111111111111111111111111111117A
:4032400011111111111111111111111111111111000000000000000000000000FFFFFFFFFFFFFFFFFFFFFFFFFFFFFFFFFFFFFFFFFF000000FFFFFFFFFFFFFFFFFFFFFFFF5F
:40328000FFFFFFFFFFFFFFFFFF0000000000000000001F0000000000000000000000000000000000FFFFFFFFFFFFFFFFFFFFFFFF1111111101111111111111111111111104
:4032C0001111111111111111111111111111111111111111111111111111111111111111000000000000000000000000FFFFFFFFFFFFFFFFFFFFFFFFFFFFFFFFFFFFFFFFC2
:40330000FF000000FFFFFFFFFFFFFFFFFFFFFFFFFFFFFFFFFFFFFFFFFF00000000000000061F001F000000070007001F000000F000000700FFFDFFFFFFFFFFFFFFEFFFFF59
:40334000111111111111111111111111111111111111111111111111111111111111111111111111111111111111001111011111900096090000000000000000FFFFFFFF13
:40338000FFFFFFFFFFFF0FFFFFFFFFFFFFFFFFFFFF000000FFFFFFFFFFFFFFFFFFFFFFFFFFFFFFFFFFFFFFFFFF000000001F1F001F00001F1F00001F0000000050000FF01A
:4033C00000000000FFFFFFFFFFFFFFFFFFFFCFF71111110111111D111111111111111111111111111111111111111111111161111111111111111111111111111111111195
:40340000000018200000000000000010FFFF77FFF56FFFFFFFFFFFFFF6F7FFF7FFFFFF6F7F000000FFFFFFFFFFFFFFFFFFFFFFFFFFFFFFFFFFFFFFFFFF00000006071F1F6E
:403440001F1F1F0000000000071F000000050F00F00000007FFFFFFFFFFFFFFFFFFFFFFE111111111111111111111111111111111111111111111111111111111111111132
:40348000171111B1131111111EB111E11191E17200000000000000001F1F1F1F1F1F1F1F1F1F1F1F1F1F1F1F1F1F1F1F1F1F1F1F1F1F1F1F1F1F1F1F000000000000000046
:4034C00000000000000000000000000000000000FFFFFFFFFFFFFFFFFFFFFFFF11111111111111111111111111111111111111111111111111111111111111111111111174
:4035000011111111111111111111111100000000000000001F1F1F1F1F1F1F1F1F1F1F1F1F1F1F1F1F1F1F1F1F1F1F1F1F1F1F1F1F1F1F1F000000000000000000000000DF
:40354000000000000000000000000000FFFFFFFFFFFFFFFFFFFFFFFF11111111111111111111111111111111111111111111111111111111111111111111111111111111AF
:40358000111111111111111100000000000000001F1F1F1F1F1F1F1F1F1F1F1F1F1F1F1F1F1F1F1F1F1F1F1F1F1F1F1F1F1F1F1F0000000000000E00000000000000000095
:4035C0000000000000000000FFFFFFFFFFFFFFFFFFFFFFFF1111111111111111111111111111111111111111111111111111111111111111111111111111111111111111EB
:403600001111111100000000000000001F1F1F1F1F1F1F1F1F1F1F1F1F1F1F1F1F1F1F1F1F1F1F1F1F1F1F1F1F1F1F1F00000000000E000F000000000000000F00000040FA
:4036400000000000FFFFFFFFFFFFFFFFFFFFFFFF111111111111111111111111111111111111111111111111111111111111111111111111111111111F1111111111111118
:4036800000000000000000201F1F1F1F1F1F1F1F1F1F0D1F1F1F1F1F1F1F1F1F1F1F1F1F1F1F1F1F1F1F1F1F001F00000000041F1F00001F00000000F00000F200000000BA
:4036C000FFFFFFFFFFFFEF7FFFFFFFF711111111111111111111111111111111111D11111111111111111111111111111111111E111111111D711111ED11111100000000DD
:40370000000000081F1F1F071F1F1F1F1F1F1F1F1F1F1F1F1F1F1F0F1F1F1F1F1F1F1F1F1F1F1F1F001F07001F06040000000000001F0000000F070050000000FFFFFFFFF9
:40374000FFFFFFFFFFFFF7FF11111111111111111111111111111111111111111111111111111111141111011111111111111111111ED1111101111E00000000000000006C
:403780001F1F1F1F1F1F1F1F1F1F1F1F1F1F1F1F1F1F1F1F1F1F1F1F1F1F1F1F1F1F1F1F000000000000000000000000000000000000000000000000FFFFFFFFFFFFFFFF31
:4037C000FFFFFFFF11111111111111111111111111111111111111111111111111111111111111111111111111111111111111111111111100000000000000001F1F1F1F21
:403800001F1F1F1F071F1F1F1F1F1F1F1F1F1F1F1F1F1F1F1F1F1F1F1F1F1F1F000000000000000000000000000000000000000000000000FFFFFFFFFFFFFFFFFFFFFFFF48
:4038400011111111111111111111111111111111111111111111111111111111111111111111111111111111111111111111110100000000000000801F1F1F1F1F1F1F1FB0
:403880001F1F1F1F1F1F1F1F1F1F1F1F1F1F1F1F1F1F1F1F1F1F1F1F0000000000001F000000001F000000000000000000000000FFFFFFFFFFFFFFFFFFFFFF7F111111112A
:4038C0001111111111111111111111111111111111111111111E1111111111111111111111111111111111111111111100000000000000041F1F1F1F1F1F1F1F1F1F1F1F57
:403900001F1F1F1F1F1F1F1F1F1F171F1F081F1F1F1F1F1F000000000000001F0000001F071F001F000000F000000F00FFFFFFFFFFFFFFFFFFFFFFFF11111111E11111116C
:4039400011111111111111111111111111111111111F111111111117111111E1111D1111111E11171E11DE1100000000000000001F051F1F1F1F1F1F1F1F1F1F1F1F1F1FEC
:403980001F1F1F1F1F1F1F1F1F1F1F1F1F1F1F1F000F0E000F00000D0E00000C000000000000075000000000FFFFFFFFFFFFFFFFFFFFFFFF111111111111111111111111AD
:4039C0001111111111111111111111111111111111111114111111F111111111111111131111111100000000000000021F1F1F1F1F1F1F1F1F1F1F1F1F1F1F1F1F1F1F1F10
:403A00001F1F1F1F1F1F1F1F1F1F171F00001F0607000000000000000007000000000F00F0000000FFFFFFFFFFFFFFFFFFDFFFFF1111111111111111111111111111111104
:403A40001111111111111111111111111111111111111111111111111111111111D118D147656E6572617465645F536F757263655C50536F43365C70646C5C647269766547
:403A800072735C7065726970686572616C5C6770696F5C63795F6770696F2E630000000047656E6572617465645F536F757263655C50536F43365C70646C5C64726976655F
:403AC00072735C7065726970686572616C5C6770696F5C63795F6770696F2E680000000047656E6572617465645F536F757263655C50536F43365C70646C5C64726976651A
:403B000072735C7065726970686572616C5C6970635C63795F6970635F6472762E68000047656E6572617465645F536F757263655C50536F43365C70646C5C647269766514
:403B400072735C7065726970686572616C5C6970635C63795F6970635F6472762E63000047656E6572617465645F536F757263655C50536F43365C70646C5C6472697665D9
:403B800072735C7065726970686572616C5C6970635C63795F6970635F706970652E630047656E6572617465645F536F757263655C50536F43365C70646C5C647269766537
:403BC00072735C7065726970686572616C5C70726F745C63795F70726F742E630000000047656E6572617465645F536F757263655C50536F43365C70646C5C6472697665F2
:403C000072735C7065726970686572616C5C737973636C6B5C63795F737973636C6B2E630000000047656E6572617465645F536F757263655C50536F43365C70646C5C64BF
:403C40007269766572735C7065726970686572616C5C737973636C6B5C63795F737973636C6B2E680000000047656E6572617465645F536F757263655C50536F43365C7054
:403C8000646C5C647269766572735C7065726970686572616C5C737973696E745C63795F737973696E742E630000000047656E6572617465645F536F757263655C50536FAC
:403CC00043365C70646C5C647269766572735C7065726970686572616C5C737973706D5C63795F737973706D2E63000047656E6572617465645F536F757263655C50536F03
:403D000043365C70646C5C647269766572735C7065726970686572616C5C747269676D75785C63795F747269676D75782E63000000002040000024400000004000000000E3
:403D400000002340000030400000314000009F40000022400000104002020202020202020210101D800017007500FF030602063604102000000000007FC000000004000056
:403D8000000000000019324B647D00804000080B100000000000FF012002001F00800004FF081018001000140018001C4044484C50000000081000000800000004000000D1
:403DC000041000000012000004210000002100000016000040114002C41300138013A013200000001C000000000021400000254000000140000034400000244000003140F2
:403E00000000324000001F410000234000001140010101010101010101101010800019005500F0000501053B04101C01010000000FC000000004000001010101011D3A57E7
:403E4000789600082000101208000000001F00000010000F002000023F06080E00080009000A000B24282C3034000000100000009000000088000000080000008000000075
:403E800004F0000000F00000400200002005A000D00100018001A001200000001000000000000000000000000000000066666666000000000000FFFF000000001C1C1C1CED
:403EC0001C1C1C1C00000000000000000000000066E6EE66000000000000FFFF000000001C1A1A1A1A1A000000000000000000000000000066E66666000000000000FFFF00
:403F0000000000001A1A001C00000000000000000000001000000008C0000000303F0010C0000008400500003C0600081002000000127A0000127A0000093D0000093D00CD
:403F400000093D0004000000A00F00000000D007E9000010C10000100000000010B50004400B27D0144B1A68146AB023D15ACA00531AE3181B68002BF4DA3E220F4B1A605D
:403F80000F4A104B1A60104B0621A322D20099500E4A98509B58084B1A68106AB023D15ACA00531AC31800225A60084B064AD358002BFADA10BDC046480800080401264000
:403FC0001E1F000008012640000026401C05000010B54378FF2B20D100F02AFA04000F4B1A683123D35C042B04D8C421FF310C4800F0FEF9094B1A68116AB023D35A9B0035
:40400000CB18DB685A68116801230B4313601368DB07FCD4200000F0F3F910BD48080008F82E0010F0B585B001900291544B1A683123D35C002B04D1C421FF31514800F076
:40404000D7F94F4B1B681E6AB4229A58971950229B5C002B77D000F0FBF9050003283CD1474B1A683123D35C062B04D8C421FF31444800F0BDF9424B1968B023CB5A5A000C
:40408000D21853000A6A94466344B4228A58D3181B68002B23DB002000F0D2F93A4B98421FD03A4B1A6900230021012000F0D8F9002803D0364C17E0013400E0002400205B
:4040C00000F0BEF9304B984202D0324B9C42F3D9304B9C4207D92E4C06E0002404E02C4C02E02B4C00E00024002C46D100F0A0F90390294B294AD358002B13DA234A01213D
:40410000300000F085F900280ED10298FFF726FF019B002B0AD03B68002BFCDB00F060F9040004E01A4C02E0194C00E01C4C032D05D10121002000F073F90028F9D1039888
:4041400000F05EF919E000F073F905000F4A0121300000F05DF9002809D1019B002B08D03B68002BFCDB00F03BF9040002E0084C00E00B4C280000F043F9200005B0F0BDFC
:4041800048080008F82E001001018800E807000805005200EF4902001C0500000000264001005000F0B54F464646C0B4824B1A685468B0235B055B78002B04D0B0235B050A
:4041C0005B78DBB200E02123212B67D1B023D15ACB005B1A116A8C46634419680029F5DADD6802212943D960B023D15ACB005B1A116A8C466344D968C9073ED5D96809045B
:40420000090C8C4684271168D559A84641440968090A0904FF26360431400D0088261168894691598846C14449460968090A0906294365462943D9601168D359C9180A68DB
:404240005E4B98461A4090252D012A430A605A4B99461A6813689C46925962441368414619400B002B4313604B461A681568D15969180B689359EB181B684F4B1A68B0215B
:40428000555AEB005B1B156AAC46634400255D60156A515ACA00531AEB185B68484A116904230B431361012801D030BF00E020BF414B1A68B023D15ACB005B1A116A8C4697
:4042C000634419680029F3DAB02149054978002904D0B02149054978C9B200E02121212932D1D968C90722D510688421525880180468324A1440DB681B0C1B02FF210902A4
:404300000B40234303602C4B19688823C8580B689C46604403681A400D6AB023CC5AE1000B1BEB18DB681B0E1B021A430260224B1A68106AB023D15ACA00531AC318DA686B
:4043400002218A43DA6028E086235B00E358002B23D11C4807681C4BA321C9005E581B4A904615681A4A0260062058503E21424611600631174A9950164B134AD358002BF7
:40438000FADA154A86235B00E2500E4B1F60A323DB000D4AD6500D4B1D60074B1A68106AB023D15ACA00531AC31800225A600CBC90469946F0BDC04648080008FF00FFFF0A
:4043C00000ED00E00801264000002640040126401E1F00001C050000AAAAAAAA0000000001B40248844601BC604700BF510B001001B40248844601BC604700BF051B001036
:4044000001B40248844601BC604700BF8B1C001001B40248844601BC604700BF5110001001B40248844601BC604700BFDD11001001B40248844601BC604700BF831C0010F7
:4044400001B40248844601BC604700BF6912001001B40248844601BC604700BF8104001001B40248844601BC604700BF4D14001000000000000000000000000000000000E7
:4044800000000000000000000000000000000000000000000000000000000000000000000000000000000000000000000000000000000000000000000000000000000000FC
:4044C00000000000000000000000000000000000000000000000000000000000000000000000000000000000000000000000000000000000000000000000000000000000BC
:40450000000000000000000000000000000000000000000000000000000000000000000000000000000000000000000000000000000000000000000000000000000000007B
:40454000000000000000000000000000000000000000000000000000000000000000000000000000000000000000000000000000000000000000000000000000000000003B
:4045800000000000000000000000000000000000000000000000000000000000000000000000000000000000000000000000000000000000000000000000000000000000FB
:4045C00000000000000000000000000000000000000000000000000000000000000000000000000000000000000000000000000000000000000000000000000000000000BB
:020000041008E2
:4000000000780408EB0208100D00000051030810510308105103081051030810000000000000000000000000000000004D0308104D030810000000004D0308104D030810DA
:400040004D0308104D0308104D0308104D0308104D0308104D0308104D0308104D0308104D0308104D0308104D0308104D0308104D0308104D0308104D0308104D03081000
:400080004D0308104D0308104D0308104D0308104D0308104D0308104D0308104D0308104D0308104D0308104D0308104D0308104D0308104D0308104D0308104D030810C0
:4000C0004D0308104D0308104D0308104D0308104D0308104D0308104D0308104D0308104D0308104D0308104D0308104D0308104D0308104D0308104D0308104D03081080
:400100004D0308104D0308104D0308104D0308104D0308104D0308104D0308104D0308104D0308104D0308104D0308104D0308104D0308104D0308104D0308104D0308103F
:400140004D0308104D0308104D0308104D0308104D0308104D0308104D0308104D0308104D0308104D0308104D0308104D0308104D0308104D0308104D0308104D030810FF
:400180004D0308104D0308104D0308104D0308104D0308104D0308104D0308104D0308104D0308104D0308104D0308104D0308104D0308104D0308104D0308104D030810BF
:4001C0004D0308104D0308104D0308104D0308104D0308104D0308104D0308104D0308104D0308104D0308104D0308104D0308104D0308104D0308104D0308104D0308107F
:400200004D0308104D0308104D0308104D0308104D0308104D0308104D0308104D0308104D0308104D0308104D0308104D0308104D0308104D0308104D0308104D0308103E
:400240004D0308104D0308104D0308104D0308104D0308104D0308104D0308104D0308104D0308104D0308104D0308104D0308104D0308104D0308104D0308104D030810FE
:400280004D0308104D0308104D03081010B5054C237833B9044B13B10448AFF300800123237010BD0477020800000000387A0910084B10B51BB108490848AFF3008008481D
:4002C000036803B910BD074B002BFBD0BDE81040184700BF0000000008770208387A0910AC470208000000007047FFF7FDFF72B6104C114DAC4209DA21686268A368043B65
:40030000A2BFC858D050FAE70C34F3E70B490C4A00209142BCBF41F8040BFAE709480A490860BFF34F8F00F03DFF00F017FF00F02FF8FEE740920B1058920B10047702089F
:4003400014B702080040020808ED00E0FEE7FEE700B504207146084202D0EFF3098001E0EFF30880043003F025F8FEE7044B1A78044B1A70044B1A78044B1A70704700BF4A
:40038000017902083CA40208007902083DA4020800B591B062B601F0CFFB00F0B3FB01F03DFD012001F04CFD0028FAD08E4B1B6803EB83039A008D4B1A44536823B94FF408
:4003C00076718B4802F0DEFF00218A4802F056FD80B2894B18807B2802D800229A7011E00122854B9A7000F09DF900F0F3FC00F011FC00F049FD00F0A5FD00F0E7FE7F4841
:4004000000F056FF7C4B9B78002B00F0CE8000F065F90022134606E07949C95C012901D90132D2B20133002BF6D0EAB101F0F6FC012001F005FD0028FAD06B4B1B6803EB13
:4004400083039A00694B1A445368012B04D84FF47671674802F096FF0121664802F00EFD654B988001229A7101F090FB00F062F9B0B1614BDB799BB100F0F8FA614B1B5CEB
:4004800013F0FF0F0CD101F007FC5B4A936801339360B3F5616F03D1134600229A60DA71554B9B7943B915E05549C95C012901D90132D2B2013301E000221346002BF3D0E6
:4004C00042B91022504B5A602022A3F580739A6000F04EFF00F0C0FC002866D000F0C2FC01F09CFC012001F0ABFC002838D03E4B1B6803EB83039A003C4B1A44536823B9B6
:400500004FF476713A4802F03DFF0021394802F0B5FC394B9881344B1B6803EB83039A00324B1A445368012B04D84FF47671304802F028FF01212F4802F0A0FC83B22E4AC2
:40054000D381324C9289324920460BF03FFA2146304803F0BBFC6422002120460BF02EFAFFF704FF2C4E08A800F0B0FC344608AD0FCD0FC495E80F0084E80F001E4B9B898F
:40058000264A13701B0A5370254B1B780693254B1B7805931388ADF8103094E80F008DE80F0096E80F0001F0F3FA0022134606E01349C95C012901D90132D2B20133002B33
:4005C000F6D0002A7FF41EAF124AD2F80832C3F30803D2F80822C2F3C032D3427FF412AF002003F089FB0DE770940208645809102CC3081000001D412077020860A4020844
:4006000068B602087CB602088003324024A502084CC308100000664040A4020820A502083DA402083CA4020800B58BB08DF8241000218DF8251006AA0791089109AB06937D
:400640000223ADF81C30ADF8200001AB0491059107CA83E80700074B1A88ADF812201B7813B140238DF8143001A806F047FC0BB05DF804FB3877020830B58BB00546ADF87D
:40068000040007A80024089409940792ADF82030ADF8241002AB07C883E80700ADF81440ADF816508DF81840184631F0DDF80BB030BD00BF08B5074B002159701970012294
:4006C0009A70D9700822044B9A601420FFF7ACFF08BD00BF387702088003324000B583B017F02EFB0C4B1B881B0A02D10B4AD35C00E00023022B0CD0094B1B78022B08D0A7
:40070000054B9B782BB10020034B9870014606F037FB03B05DF804FB3877020868B6020869B6020808B5024807F0ACF808BD00BFB9090810024BD878003018BF0120704708
:40074000387702082DE9F0418CB080460F4609AB00250A950B9509911646ADF828201222ADF82C2004AC93E8070084E80700ADF81C50124B1B88ADF81E308DF820502046FE
:4007800031F072F8FFF7D6FFA8B10C4B5B780C4AD35C13F0FF0F0ED10195029503950097ADF80460ADF80880044B1B88ADF80C30684630F097F90CB0BDE8F081387702089D
:4007C0007CB602080389162B40F0B28030B583B00179002305E00268D45C564AD4540133DBB28B42F7D3534B1B78FE2B40F09780504B5B78012B02D0052B6AD08FE04D4BBC
:400800009B78012B21D14B4800F0C4FB002840F08680494CFE23237001236370A370474B53F8080FC4F803009B88A4F807300821204600F0AFFB6072C0F30720A0721422CE
:4008400021461220FFF77EFF69E0022B1BD1394800F0A0FB002862D1374CFE232370012363700223A370E01C00F056FB0921204600F090FB6072000AA07214222146122038
:40088000FFF760FF4BE0042B19D12A4800F082FB002844D1284CFE232370012363700421A1706423E370204600F074FB2071000A6071142221461220FFF744FF2FE0032BDE
:4008C0002DD11C4800F066FB48BB01221C4B1A7025E0184B9B78022B21D1164800F05AFBE8B9144CA37962792179E078257A0195E479009400F0FCFA0F4CFE2323700523C4
:4009000063700223A3700321204600F043FBE070000A2071142221461220FFF713FF1423044A122105480068FFF7A6FE03B030BD704700BFB4A502088CA5020838770208BE
:400940002777020810B584B004460389142B09D103685A78012A05D81978154BD9701420FFF762FE124BDB78012B04D1142211491220FFF7E7FE2389122B17D106E022684F
:40098000D15C0C4AD1540133DBB200E000239AB2A1888A42F3D31223ADF80C30054B0193A388ADF8083001A806F04CFB04B010BD38770208A0A5020845F20103984223D04B
:4009C00010B50C4607D8B0F5805F11D043F2030398423CD010BD45F20C0398421ED045F20E0398422AD045F20203984236D112E02DF0A4FC1A4B1A6B1A4B106898609288DF
:400A00009A8101229A7010BD0A88164B1A800822154B5A607047FFF74DFE10BD114B186830F06EF82046FFF7CDFE2389142B01D0122B13D12046FFF785FF10BD0B89142B25
:400A400001D0122B0AD12046FFF77CFF10BD4B681A68044B1068986092889A8110BD00BF144302083877020880033240014B5878704700BF3877020838B5194BD3F810426C
:400A800014F0010F1DD0072C04D940F23161154802F078FC124DC5F81042D5F810320021284602F0EBF902460021284602F03CFA0121284602F0E2F902460121284602F096
:400AC00033FA072C04D940F23161064802F05AFC034BC3F81042D3F81022D3F8103238BD00001D4174C3081008B5042903D1006802F02EF904E0082902D1006802F004F9DA
:400B0000002008BD08B5064801F0D6F9054802F023FE18B90449054803F0D8F908BD00BF790A08108C420208B0C3081000006640704700BF10B5046843680139072959D861
:400B4000DFE801F004255835585858420022C4F8482F5A68B2F1805F13D1226812F4807F05D040F21113C4F8483F002010BD1946204603F0C3FE40F2D113C4F8483F002064
:400B800010BD40F2D113C4F8483F1C4810BD236813F4807F05D040F2D113C4F8483F002010BD236843F000432360002010BD236813F4807F20D00123C4F8883E236F23F0F5
:400BC00002032367002010BD236813F4807F0BD0236F43F0020323670020C4F8880E40F2D113C4F8483F10BD236843F000432360002010BD014810BD002010BDFF0042006C
:400C000008B50249024804F00FFA08BD94B602080000644010B5174C174A1849204603F0A7FD174A1749204603F0BCFE164C1749204602F049FBB4F90030002B08DB590942
:400C400003F01F03012202FA03F3114A42F82130084A136843F0004313600E4A064B5A640D4802F079FD18B90C490D4803F02EF910BD00BF0000644094B60208EC6009100C
:400C800015287F00801A060044580910010C081000E100E0310B0810AC420208DCC30810000066402DE9F04782B00446884617461E46214B00930A23002201461F4803F04D
:400CC00059FF054640BBDFF870A0DFF8709053460A224146484604F0BBF80546CDF800A00A2301222146484603F0BCFFA0B94FF000084446731E9C4201D14FF001080E4B68
:400D000000930A233A1941460C4804F047F80134054608B9A642EDD82DB1094B9D4202D0013B9D4204D1044A0A21044804F004F802B0BDE8F08700BF94B602080000644097
:400D40000520AA0070B582B00C4615461E46154B00930A2300220146134803F00BFF034688B9104B0A2221460F4804F071F800240C4B0A22295D0C4804F06AF801340346DA
:400D800008B9B442F4D32BB1084A934202D0013A934204D1034A0A21034803F0CDFF02B070BD00BF94B60208000064400520AA00064B9B6913F0020F06D0044B02229A6167
:400DC0009B690122024B1A70704700BF000226404C77020810B51B4C1B49204602F074FAB4F90030002B08DB590903F01F03012202FA03F3154A42F82130154C0223236288
:400E00001449204605F064F8636943F4807343F0010363613E2002F0A9FA2369E3681B0C1B0443F4FA43E360002002F09FFA2369E3689BB243F41023E360002002F096FAC8
:400E400010BD00BF5C580910B10D081000E100E00002264048630910014B1878704700BF4C7702080022014B1A7070474C77020808B5034B1978034805F00CF808BD00BF57
:400E80002C950208E0B6020810B50C4804F01AFC012004F0A9FD0A4C0A49204602F014FAB4F90030002B08DB590903F01F03012202FA03F3044A42F8213010BD0061091043
:400EC00054580910710E081000E100E070B50646064C204604F0FAFB35460FCC0FC594E80F0085E80F00304670BD00BF5077020800B589B007900691059202939DF828302A
:400F000001939DF82C30009301230493684604F027FB09B05DF804FB38B50546084C204604F0D4FBE3692B70A3696B706369AB70A368EB7063682B7123686B7138BD00BFBB
:400F40005077020810B582B00D4C0E49204606F087FE0D49204606F053FD06F0A1FD012006F022FD094B01930022009201231946074806F0ADFD012006F016FD02B010BD95
:400F800008C4081018A60208ECA50208C8A502080000058000B585B0064B0093064B0DF10E0206F0ADFD00B1FEE7BDF80E0005B05DF804FBC8A502080000FFFF08B501206C
:400FC00001F014FD08BD00BF704700BF5C4AD2F8803303F00F0303F1D00152F8212002F00702032A04D0042A05D092B9554914E0554A116811E003F1C002514951F82220BD
:4010000002F01F02112A06D0132A04D04FF4FA4103E04E4901E04FF400418BBB484BD3F8902502F00100D3F88825C2F30172D3F8883513F0405F07D0414BD3F88835C3F367
:401040000173012B02D102E0012300E0002303B108B9032A46D13A48D0F88025C2F31103D0F88425C2F30C02D0F88005C0F300600130B1FBF2F202FB03F2B2FBF0F131E09D
:40108000012B2FD12E4BD3F8402602F00100D3F80026C2F30172D3F8003613F0405F07D0274BD3F80036C3F30173012B02D102E0012300E0002303B108B9032A12D1204842
:4010C000D0F8002602F07F02D0F80036C3F30423D0F80006C0F3044002FB01F2B2FBF3F2B2FBF0F1164BD3F88033C3F3011321FA03F215494A601648D0F89030C3F3072358
:4011000001330069000E0130B2FBF0F08860B2FBF3F3CB600B6103F5742202F23F220D48A0FB0202C2F387420A7503F2E7330A4AA2FB03239B098B61DB03CB61704700BF2A
:401140000000264000127A00CC42020800366E010000214083DE1B43D34D621008B50D4802F052FEFFF730FFFFF730FF00221146042001F0BFF9084801F096FA074B1B6884
:4011800093F8513013B1064801F0FEFA00F092FF08BD00BFB05C09107077020864B6020838C4081008B502F060F9074AD2F8883043F47003C2F88830BFF34F8FBFF36F8F9E
:4011C00002F057F908BD00BF00ED00E030B583B002AC402304F8013D0123224609215720FFF7B0FD012002F0A9F80123224609215720FFF7A7FD022002F0A0F80C258DF84C
:4012000007500123224602215720FFF79BFD00238DF807300123224603215720FFF792FD0123224604215720FFF78CFD0123224605215720FFF786FD0123224606215720A5
:40124000FFF780FD0F238DF807300123224608215720FFF777FD03238DF807300123224609215720FFF76EFD27238DF80730012322460A215720FFF765FD24238DF8073078
:401280000123224629465720FFF75CFD012322460D215720FFF756FD7F238DF807300123224610215720FFF74DFD03B030BD00BF10B584B00022254B1A8033E0244B1B6997
:4012C00013F0080FFAD1214C0623221D07215720FFF7E8FC218823791B0403F44033627943EA0223A2791A431A4B43F82120E3791B0403F44033207A43EA0023607A034378
:40130000154840F82130154B1B689A4201D2134B1A600E4BDB689A4201D90C4BDA6001310A4B1980094B1B88B3F5FA7FC6D30C4B02930C4B01930C4B00930C4B054A4FF4FF
:40134000FA71054800F0C4F904B010BDF0780208000332404CA6020820AE0208EC42020801B60208FCB5020800B6020848A6020810B584B0694B6A496A4A11600022DA607F
:4013800064221A801CE0A3F16402674951F8230041F82200654850F8234040F8224051F82320604909688A4201D25E490A605B49C9688A4201D95949CA600133574A1380A9
:4013C000564B1B88B3F5FA7FDDD34FF4C872534B1A808DE0013B544A52F82320544B1A60544B1B6913F0080FFAD14C4C0623221D07215720FFF756FC208823791B0403F4ED
:401400004033627943EA0222A3791343464A42F82030E279120402F44032217A42EA0122617A0A43414941F82020414A1268934223D99B1A07EE903AF8EE677AE368394AB4
:4014400012689B1A07EE103AF8EE476A87EEA67ADFED397A67EE277A384BC3ED007AFDEEE77A374A136817EE901A5B1A1360002B27DA0022324B1A6023E0D31A07EE903ADD
:40148000F8EE677A254BDB68264A12689B1A07EE103AF8EE476A87EEA67ADFED277A67EE277A264BC3ED007AFDEEE77A244A136817EE901A19441160FF2902DDFF22204B65
:4014C0001A60204B93F90030012B09D11E4B1B68772B05DC114A13741C4B1B68537403E00E4B00221A745A740C4A1388013313800A4B1B88B3F5FA7FFFF46CAF114B0293B9
:40150000114B0193124B0093104B074A4FF4FA71064800F0DDF804B010BD00BFF0780208FFFF0300EC4202084CA6020820AE0208F4B502080003324000007F43F0B5020806
:4015400044A6020801B60208FCB5020848A6020800B60208F0B58446DDF814E000240C60012628E052F8267077451FDD06F18044013C52F82440A74202DC17E0013500E03A
:4015800001257419A34203DD52F824008742F5D052F8240087420BDD0F680E2F0ADC7C1C0C604CF8276001352E4404E0013602E0264600E026465C1EA642D3DBF0BD00BF56
:4015C00030B4012512E050F825402B4602E040F82320013B002B06DD03F18042013A50F822209442F3DB40F8234001358D42EADB30BC7047F0B54FF0010E17E051F82E7032
:40160000734602E041F82340013B002B0ADD50F8276003F18044013C51F8244050F82450AE42EFDC41F823700EF1010E9645E5DBF0BD00BFF8B504460D4610461E460A68E6
:401640002146FFF7D7FF4FF0FF3022E000F1010CC5F800C0634619E04FEA830E54F82320B0F1FF3F02D054F8207001E04FF0FF37D21BB24202DC7742BA4206DA2A68571C15
:401680002F6054F80E7044F8227001338B42E3DB604629688842D9DB2046FFF791FFF8BDF0B583B005460C461646089F0097FFF751FF099B324621462846FFF7BBFF22686E
:4016C0000A9B9342A8BF1346236003B0F0BD00BF2DE9F04FBBB007460C4690460593DDF814A1DDF818910023184603E057F8232010440133A342F9DBB0FBF4F0002306E06A
:4017000057F82320121AC54941F823200133A342F6DB002115E0C14E56F821004A1C56F8223018448B1C56F823300344C81C56F820001B1800D503339B10B84840F821302E
:401740001146B1F5F87FE6DB00230BE0581CB34A52F8201052F82360891B02EB8302C2F8D0170346B3F5F77FF0DD00220FE0AB4B03EB8201D1F8D007013203EB8203D3F8FA
:40178000D037034403EBD3735B10C1F8D037B2F5F77FECDB00211EE0A04A02EB8302D2F8D067C1EB030E9E4A32F81E2006FB1200013301E00B4600204A1D9342ECDB994B8F
:4017C00083FB0023C017C0EB6320944B03EB8103C3F8D0070131B1F5F47FEBDD00210B4609E08E4A02EB8302D2F8D027002AB8BF524211440133B3F5F77FF2DD8A4B83FBE9
:401800000123C917C1EBA3130522029208220192009340F2EF13854A39A90CA8FFF740FFDDF8E4E0BEF1010F0FDC21E03AAB03EB810353F8B83C4A1E3AAE06EB820252F880
:40184000B82C9B1A1844013101E0002001217145ECDB0EF1FF3E90FBFEF041F2707393FBF0F0CAF80000012389F8003000230FE06F4BCAF80030002389F80030F6E73AAA7E
:4018800002EB830151F8B82C023241F8402C013339988342F3DB00230BE057F823105F4A42F8231058F8231002EB8302C2F8901F0133A342F1DB4FF000094C4624E03AAB6D
:4018C00003EB840353F8403C591DB1F5F77F1ADC053B002B0FDC16E0504A52F82320964207DD07B100273AAE06EB840646F87C3C1646013302E04FF0807601278B42EBDB5B
:401900000FB909F1010901348442D8DBB9F1010F38DC474B059A13600023449A137002E13E4E56F82120481C56F820301A448C1C56F824301344CF1C56F827209B1800D530
:4019400003339B10354A42F8213002EB8103D3F8906F02EB8003D3F8903F1E4402EB8404D4F8903F334402EB8702D2F8902F9B1800D503339B10294A02EB8101C1F8903F7C
:40198000014600E00021B1F5F87FC9DB002306E03AAA02EB8302002142F8CC1C0133042BF6DD00230FE03AAA02EB830252F87C2CB2F5FA7F06DD1E4B059A13600023449A6D
:4019C0001370B0E001334B45EDDB00273B46B8465E4674E003F1010E3AAA02EB8E0252F87C4C3AAA02EB830353F87C7CC7EB040CBCF10A0F1EDC61E0084A52F82320914225
:401A000001DA1E461146054A02EB8302D2F8902F904201DA1D46104601330FE0047902086CC40810ED9B5F7267571921D480020819FCFFFF3B464FF07F410846A342DBDB43
:401A4000DFF8F0A00AEB8403D3F8903F0AEB8702D2F8902FC2EB030BEB1B03FB0BF393FBFCF313440AEB8502D2F8902FD21A5AF824305AF827401B1BF71B07FB03F393FB33
:401A8000FCFC04EB0C035AF82540E31A02FB01F2D21103FB00F3DB11002B0FDDB8F1040F0CDC5AB1642101FB02F292FBF3F33AAA02EB880242F8CC3C08F10108734609F1CC
:401AC000FF32934286DB414607A8FFF779FD08EBD8777B10012B0EDD5A1E3AA901EB820252F8CC2C01EB830353F8CC3C134403EBD3735B1004E03AAA02EB830353F8CC3CA3
:401B0000DA1EB42A09D8094A134493F84030059A13600123449A137005E0054B059A13600023449A13703BB0BDE8F08F6CC4081019FCFFFF0479020838B50022114B5A80B1
:401B400018E01946104A02EB432292F8FF41302C0AD80C4D4FF400720B4B03EB4121281D09F021FF2C8038BD312C00D9FEE70133044A5380034B5B88472BE2D90022014B6B
:401B80005A8038BD6490020800C608100020704784B010B502AC84E80F00394B1B88312B3CD803EB83035900354A131D0B4411440998087108995970079999700499D970B7
:401BC00003991971029959719DF8281099719DF82910D9719DF82C1019729DF830105972138801339BB2138082F8033200231A4606E02449895C012901D90133DBB201325E
:401C0000002AF6D0002B36D11D49488804311E4B03EB402000F056FA68B3FEE7184B00221A805B88472B08D922E01648405C012801D90132D2B2013101E000221146002960
:401C4000F3D0C2B901339AB20D4B5A800F4C0E4B03EB42230E49204609F0B8FE21460D4802F034F964220021204609F0A7FE02E00022034B5A80BDE8104004B0704700BF30
:401C80006490020868B6020800C6081024A50208005809100000664010B586B000230193029303930493ADF81430FE238DF8043001238DF8053003238DF8063009238DF88F
:401CC0000930FEF7D3FE284B1B5C13F0FF0F49D1264CB4F8043201339BB2A4F804321A0A8DF807208DF80830B4F80A12B4F8082202EB8202530003EB41231D4A13441968A9
:401D00005A68CDF80910CDF80D201B89ADF81130102101A8FFF73EF9C0F307238DF814308DF81500122201A91046FEF70BFDB4F80832302B03D80133A4F8083212E00B4BA1
:401D40000022A3F80822B3F80A32462B04D80133064AA2F80A3205E0044B0022A3F80422A3F80A2206B010BD7CB602086490020800C6081038B50446264B1A68916892F8C8
:401D8000703003F00203DBB243F08043C1F800340369FF2B0AD89168B2F874200A44916821F47F411B029BB20B439360194B1A68906892F87310032303FA01F592F8703077
:401DC00092F8721003FA01F1294303F002030B4343F00043C0F800349368D3F800340E4D0021284600F032FFA168284600F02EFE01234FF480320021284601F0CFF8636811
:401E0000012B05D901224FF48031284601F0ECF838BD00BF64B6020800001D4108B5074B5B6813F4802F04D00121044800F056FF08BD0021014800F051FF08BD00001D4167
:401E400008B50146034800F0A3FF08B1002008BD012008BD00001D4108B5084B1B7963B90749084801F030FA044B5B792BB90122024B5A710448FFF77DFF08BD7094020851
:401E8000F11E0810345809106458091008B5084B1B7913F0010F06D1FFF7DEFF044A137943F001031371034800F008FF08BD00BF7094020800001D4138B50546FFF7E6FF46
:401EC000094C2946204601F0FFF9B4F90030002B08DB590903F01F03012202FA03F3034A42F8213038BD00BF3458091000E100E010B5094BD3F81042072C04D940F231615C
:401F0000064801F03FFA044BC3F81042D3F81022D3F8103210BD00BF00001D4174C30810C0F30800B0FA80F0400970471F4B98422DD00CD840282ED003D8E8B1102828D086
:401F40002FE0802829D0B0F5807F28D029E0184B984228D006D8B0F1204F0DD0154B984212D01EE0144B98420AD00133984209D0023B984215D101E0002070470F48704735
:401F80000F4870470F4870474FF4A0007047074870470D4870470D4870470D487047034870470C4870474FF4A400704706005200010000F0090000A0040000F0010052005D
:401FC0000200520003005200010050000200500005005200FF00520038B5124B1B6893F83130012B04D840F2C3110F4801F0CAF90C4B1D682A6AB5F8B03013442C46D5F888
:40200000B420D358002B0BDB084B1868FFF78EFF6B6801229A6063689B68002BFBD138BD034838BD64B60208F058091078940208020050001A4B186128B102230370FF23F2
:40204000437000234380174B1B6893F850202AB300B583B0B3F93830ADF80030002301931149684601F030F9BDF90030002B08DB590903F01F03012202FA03F30B4A42F851
:402080002130084B1B6893F8513023B102220849012000F025FC03B05DF804FB704700BF7894020864B602081D48020800E100E0D548020808B50248FFF7BCFF08BD00BF28
:4020C0008C94020838B505460C46FFF729FF002833D0002C33D0FEF779FF1A4B1A4A1A6000225A609D60DC60184B1B6893F85220EAB11968D3F88430CA58CB58C3F307214E
:40210000120E531C01FB0333114901FB03F3114A12681149A1FB02218909B3FBF1F101F5195108314FF480700AF0EEF838BD00214FF480700AF0E8F838BD084838BD07482A
:4021400038BD00BF789402080001000564B60208C0EA2101D0420208D34D62100600520008B5FFF739FF08BD10B50446FFF7D8FE00283AD0FEF72AFF4FF0E0521C4B1A606C
:402180001C4B1B7813F0FF0F04D0194A136843F480731360164B5C6000229A60DA60164B1B6893F85420DAB11968D3F88430CA58CB58C3F30721120E531C01FB03330F49A8
:4021C00001FB03F30E4A12680E49A1FB02218909B3FBF1F101F6980100200AF095F810BD002108460AF090F810BD074810BD00BF789402080B00001664B6020860F5900006
:40220000D0420208D34D62100600520038B505460C46FFF785FE00283DD0002C3DD0FEF7D5FE4FF0C0621E4B1A601E4B1B7813F0FF0F04D01A4A136843F480731360184B5B
:402240004FF480725A609D60DC60174B1B6893F85320DAB11968D3F88430CA58CB58C3F30721120E531C01FB0333104901FB03F30F4A12680F49A1FB02218909B3FBF1F18D
:4022800001F5617100200AF03FF838BD002108460AF03AF838BD084838BD074838BD00BF789402080B00001664B60208808D5B00D0420208D34D621006005200002861D016
:4022C000F8B5054600295FD00C460B6833F0FF0303D099212D4801F055F8236933F0FF0303D09A21294801F04DF8A3685B0D5B051BB19B21254801F045F8636823F4FF7334
:4023000023F001031BB19C21204801F03BF8E36913F0604F03D09D211C4801F033F8236A13F0604F03D09E21184801F02BF8184A11688B69EB1ADB0949691B01C818266829
:402340002E60166896F87D60E768AF51166896F87E602769AF51166896F87F606769AF51166896F87C60A768AF516668AE61126892F88020A669AE50E269CA50236A436048
:402380000020F8BD034870470248F8BD3059091064B6020801005A0038B50B4B1B68D3F8B4301B58002B0DDA0D4604460B0C1B0423B140F2D521054800F0E4FFA9B2616021
:4023C000002038BD024838BD64B60208B059091001008A0038B50368002B01DA002300E0094B73B90D460446C2600B0C1B0423B140F2BB21054800F0C5FFA9B2A160002083
:4024000038BD014838BD00BF01008A00B059091038B504460D4619B99921084800F0B2FF074B1B68D3F8B4301B59002B03DAE3682B60002038BD034838BD00BFF0590910AA
:4024400064B6020801008A00254B1B6893F8313083423AD900293AD00B6813F01F0F38D170B50D4604461E4B1B6893F83130984204D340F2C3111B4800F084FF184B1B6809
:40248000186AB3F8B03004FB0304174E34602A68D2080021686809F091FA00212046FFF77BFF346825B940F293310E4800F06AFF2A4600212046FFF78DFF60B900210A4B11
:4024C0001868FFF769FF40B970BD084870470748704706487047064870BD054870BD00BF64B60208B05909109094020803018A0001018A0010B504461346B2B9A9B9124BF2
:402500001B6893F83130984204D340F2C3110F4800F038FF0C4B1B681A6AB3F8B03004FB03240B4B1C60002010BD43B149B1084A51609360111D2046FFF786FF10BD05481C
:4025400010BD044810BD00BF64B60208B05909109094020803018A002DE9F0411B4B1B68DC68236883422CD90D464609A0EB4610012303FA00F819B900F077FF074600E0EA
:402580000027124B18680368002B01DA002300E00F4B83B9626852F8263018EA030F05D148EA030342F82630002400E0094C0021FFF7F2FE00E0084C25B9384600F059FFB9
:4025C00000E0064C2046BDE8F08100BF9094020801008A00020188000301880004018A002DE9F0411B4B1B68DC68236883422CD90D464609A0EB4610012303FA00F819B9D8
:4026000000F033FF074600E00027124B18680368002B01DA002300E00F4B83B9626852F8263018EA030F05D023EA080342F82630002400E0094C0021FFF7AEFE00E0084CF2
:4026400025B9384600F015FF00E0064C2046BDE8F08100BF9094020801008A00020188000301880004018A000B4B1B68DB681A6882420CD94109A0EB4110012202FA00F0B2
:402680005B6853F82130184203D004487047044870470448704700BF909402080101880004018A0000018800024B1B680BB9014B186070479C9402082DE9F8430446884644
:4026C00091461D46089F2C4B1B681BB9B5212B4800F058FE284B1B682C2000FB04F01C18EEB21E50C5F3072363602D0CA560244B1B6893F831309E4204D340F2C311214842
:4027000000F040FE1E4B1B68196AB3F8B02006FB02162661666893F832309E4204D340F2DF11184800F02EFE154B1B681D6A803605EB46156561A668330C1B0423B14FF41D
:40274000FF71104800F01EFE330C1B0423B140F2FF110C4800F016FEB3B243EA0646AE60C4F81C90C4F820800023A36117B1B7F90030A381BDE8F8839C940208305A091019
:4027800064B60208B0590910F0B58FB0044618B95221274800F0F6FDA369072B03D95621234800F0EFFDE36A1BB95821204800F0E9FD236B1BB959211D4800F0E3FD07AD9A
:4027C00004F114060FCE0FC537682F6002AD26460FCE0FC533682B60164B1B68B3F93620079B1344ADF83030089B0D93A26AE16A0CAD00953B460A98FFF75EFF0021009105
:40280000069B0A460598FFF757FF216B284600F05BFDBDF93030002B08DB590903F01F03012202FA03F3044A42F821300FB0F0BD305A091064B6020800E100E0F8B5064606
:402840000F461D4614461AB9FD211F4800F09AFD1E4B1B681BB9FE211B4800F093FD1B4B1B682C2101FB063001FB07314B68012202FA03F31B04466802FA06F60269EAB176
:402880008F69EFB91268002A01DA002200E0104AC2B92288134323600369DC6001238B614D620469330C1B0423B140F2BB21094800F068FDB2B2A2600020F8BD0648F8BDA7
:4028C0000648F8BD0548F8BD305A09109C94020801008A00B059091004028A0007028A00F8B505460F4616460E4B1B6823B94FF4AF710D4800F046FD0A4B1B682C2404FBB3
:402900000534236A23B94FF4B171074800F03AFDE369B34204D9236A43F826700020F8BD0248F8BD9C940208305A09100A028A0070B582B000230193044620B940F2D11112
:40294000284800F01FFD236923B94FF4E971254800F018FD636923B940F2D311214800F011FD236A23B94FF4EA711E4800F00AFD6369DD682A0C20D012041A601B68206908
:40298000194B1B68D3F8B430C358002B15DA01A9FFF73EFD60B9019803681E0CDBB2E269934206D2226A52F8233013B1984700E0002631462069FFF7EFFCADB275B16369A1
:4029C000ADB21D601B68636A1BB198470023636202E0A36A03B198470023A36163691B6802B070BD305A091064B6020810B50446074B1B6823B940F2B111064800F0C2FCCA
:402A0000034B1B682C2000FB0430FFF791FF10BD9C940208305A091010B50446094B1B689B6CC34013F0010F03D1BE21064800F0A9FC044B1B681B691034A402185900F0E0
:402A40000F0010BD64B60208705A09102DE9F8430E46074618B93A21754800F093FC1EB93B21734800F08EFC002F00F0DA80002E00F0DA8032686F4B13401BB14A216C482E
:402A800000F080FC72686C4B13401BB14B21684800F078FCB36813F0FC2F03D04C21644800F070FCF36813F0FC2F03D04D21604800F068FC337D032B03D94E215C4800F066
:402AC00061FCB369B3F5803F03D34F21584800F059FCF36D072B03D95021554800F052FC336EB3F5803F03D35121514800F04AFC736EB3F5803F03D352214D4800F042FC9E
:402B0000736843F000437B60B3683B61F3687B613369BB61337D9B07FB61B3693B62336803F46068736803F00409002435E02546A31D06EB83035A68404B13401BB163215C
:402B40003B4800F01FFCAB1D06EB8303596805F1200247F822105B6813F0012F0BD1B8F5606F08D1B9F1000F05D04FF47842344B23F8152003E00022314B23F81520726F0B
:402B800002F11C7303F58033520093FBF2F31BB22C4A42F825300134E4B20F2CC7D9F36DC7F81832F36DC7F81032336EC7F82832336EC7F82032736EC7F83832736EC7F8CB
:402BC000303296F87030DBB1B36EB3F1804F03D38221174800F0D6FBF36E23F44F0323F0FF031BB18321124800F0CCFB6FF04043C7F80433B36EC7F80033F36EC7F84433AA
