:020000041000EA
:4000000000400208230100100D00000085010010000000000000000000000000000000000000000000000000000000008101001000000000000000008101001081010010E9
:400040008101001081010010810100108101001081010010810100108101001081010010810100108101001081010010810100108101001081010010810100108101001060
:400080008101001081010010810100108101001081010010810100108101001081010010810100108101001081010010810100108101001081010010810100108101001020
:4000C00010B5064C2378002B07D1054B002B02D0044800E000BF0123237010BD3C060008000000000C3F0010084B10B5002B03D00749084800E000BF07480368002B00D1DF
:4001000010BD064B002BFBD09847F9E700000000400600080C3F0010E8000008000000007047FFF7FDFF72B60F4C104DAC4209DA21686268A368043B02DBC858D050FAE75E
:400140000C34F3E70A490B4A0020521A02DD043A8850FCDC084809490860BFF34F8F00F02BF900F01DF8FEE7103F0010283F00103C0600084C0800080000000808ED00E073
:40018000FEE7FEE700B504207146084202D0EFF3098001E0EFF30880043001F0E1FCFEE710B562B6114800F08DF9114B1A683123D35C0E2B04D8C421FF310E4801F0A2FC10
:4001C0000B4B1B68186AB0229A5AD3009B1A5B00C01800228021C90100F03AFF064801F06BFC002002F0CEF9F8E7C0460000081048080008F82E00108813000010B50020E3
:4002000001F012FA10BDC04670B56249E0239B00CB580F2213401A00D0329200525807210A40032A05D0042A06D0002A12D15A4814E05A4A106811E01A00C032920055491D
:4002400052581F210A40112A06D0132A04D0FA20C00103E0524801E080200002002B36D14C4BB222D2009A5801211140B125ED005A59120F032422405B591B0F1C4207D046
:40028000444C63591B0F03242340012B02D102E0012300E00023002B01D0002901D1032A4BD13C4BB022D2009D58AD03AD0B3D495958C904C90C9C58240E01231C400134BA
:4002C00002F054FD6843210002F050FD35E0012B33D1304BC822D2009A5801251540C024E4001A59120F03210A401B591B0F194207D028490B591B0F03210B40012B02D1C0
:4003000002E0012300E00023002B01D0002D01D1032A12D11F4DC022D200AB587F210B40A958090A1F263140AC58240C3440584302F01CFD210002F019FDE0239B00154A5D
:40034000D3581B0903221340D840144C6060164B1D692D0AFC32154001351969090E013102F004FDA060290002F000FD0500E06020610E4BC0180E4902F0F8FC20750D4BB0
:40038000E818FA21890002F0F1FCA061C003E06170BDC0460000264000127A00C000000800366E0184050000000021403F420F0040420F00E703000010B5284802F0FAF914
:4003C000274CB022D200A3585B005B08A350E0218900635830208343635080235B04A350204A214BE250A02292010433E250FF221E4BE25002F0CCF9C0225200A3580121AD
:400400008B43A35000F054FAFFF7FEFEB0235B055B78002B04D0B0235B055B78DBB200E02123212B03D1124B0022DA605A60114C22008021042000F09DFE2000103000F05D
:4004400031FF0D4B1A685123D35C002B02D00B4800F09EFF00F0CCFB10BDC046E83D00100000264001000200840500008C050000E00023405806000848080008382F001038
:400480008023024AD3580320184070470000214010B501F0F6FB084980228C58074B2340074C23438B508823034AD358DB06FAD501F0EBFB10BDC04600002140FCFF0000EF
:4004C0000100FA0570B50500830504D0E821FF310F4801F017FB01F0D4FB0400FFF7D0FF032801D1FFF7D4FF0A4AB0239B00D55080215058084B03400848034353508823EA
:40050000044AD358DB06FAD5200001F0BEFB70BD6C2F001000002140FCFF00000300FA05FEE7C046F0B50025002711E0BB00C658F3B2FF22964308E06A008A181478A41910
:40054000527822700135013BDBB2002BF4D10137002FEBD0F0BDC04680221206054B1A60054A064B1A60064A064B1A60064A074B1A60704700001D410902010000031D4104
:400580000B00010044031D4101001180000E1F4110B50A00002102F07EFC10BD10B502F071FC10BD30B587B0AE4A116808230B431360AD4C03E0012001F098FA013CA94B46
:4005C0001B695B0701D4002CF5D1002C01D1A74B00E00023002B02D00520FFF7A1FFA448A021C900435803229343023A134343500332A04901A802F045FC01A802F08CFA57
:400600009D4A116808688823CB58C31818689B49084018601368186884241B59C01803681B021B0A80256D042B430360106805680359EB1818680140196013683E229A5C4B
:40064000002A06D08A48E02189004258753CA24342503E229A5C002A06D08548E021890042583024A24342503E229B5C002B07D07F49E02292008B588020000603438B50EB
:400680000021012001F002F80021022000F0FEFF0021032000F0FAFF0021042000F0F6FF0021002000F0F2FF01A80200714B043332CB32C212CB12C201F016F8002802D02B
:4006C0000420FFF72DFF6A496D4A8B588020000603438B506B4801F0C1F8002802D00420FFF71EFF624C684BE158684A0A40E250E158674A0A40E250E25880252D062A4365
:40070000E250043BE158634A0A40E250E158624A0A40802189010A43E250E258802109020A43E2504F4A11685C4B0B401360002001F0A4FF5A4BE2582A43E250E1580122A3
:4007400091430A43E2506421002001F021FA4A4B1B683F229A5C032A03D90021514A986881509A6874215B5AD2181168434B0B40A021C9000B4313603F4B1B687322995C06
:40078000703A8A40110070229A5C7220185C82400A43802109060A438021C900986842509A6852583F229A5C052A06D970229A5C01210A403C49986842509A6874215B5AB6
:4007C000D21851682D4B0B408C2189010B435360294B1B6873229A5C0321914070229A5C7220185C140084402143012002400A43802109060A438021C900986842509A686F
:4008000052583F229A5C392A06D970229A5C02210A402649986842509A6874215B5AD2189168164B0B40C42189010B439360124B1A687323D35C032199407023D35C7220FF
:40084000105C1C0084402143022003400B43802109060B438021C9009068435093685B5807B030BD0000274020A1070002004A0000002640842F001048080008FF00FFFFD7
:40088000087F0000400D030004050000FEFCFFFFFFFF00FFFFF0FFFFFF8FFFFFFFFCFFFF0C0500000C0C0000140C0000E40C000070B58EB03221012001F06AF901F040F963
:4008C000002801D101F02CF9002001F0E7FC022001F04CFD052001F091FC9621002001F057F9574A516C574B0B40E82189010B435364536C1B0AFF2213403A2B07D1504ACB
:40090000516C514B0B40E82189010B435364002300224E494E4801F0CFFE002300224D494D4801F0C9FE3422002101A802F0B3FA4A4C01AA0021200000F062F93422002120
:4009400001A802F0A8FA01AA0121200000F058F9FFF728FE424A434B1A6000240CE0620012195300404AD318998B1A8B588B00041043FFF70DFE01340B2CF0D900240AE0B0
:40098000620012199300384AD3189A6E596E186EFFF704FE0134112CF2D9344D2900383128003C30FFF7BEFD0F22314B1A60314A314B1A60314A1368812149000B4313608E
:4009C00001AC24220021200002F065FA2100234800F0B0FA22002B00403343CB43C243CB43C243CB43C22100254800F0A3FA22002B00643323CB23C223CB23C223CB23C2DB
:400A00002100204800F096FA22001F4B083323CB23C223CB23C223CB23C221001B4800F089FA24220021200002F035FA0B2301932100174800F07EFAFFF78EFD0EB070BDB8
:400A400000002740FF00FFFFFFC5FFDF0F0E0040050E0000000700402A070000000032400300FA05F0012140842F00108430001000006440070101000002644000793440FB
:400A80008002324000033240043100108003324000053240214B984230D00ED8402831D004D800281FD010282AD031E080282BD080235B00984229D02AE0194B984229D09C
:400AC00007D8A0231B0698420DD0164B984212D01EE0154B98420AD0144B984209D0144B984215D101E0002016E0124814E0124812E0124810E0A020C0030DE007480BE097
:400B00000F4809E00F4807E00F4805E0034803E00E4801E0A420C0037047C04606005200010000F0090000A0040000F0050000F0030000F001005200020052000300520088
:400B4000010050000200500005005200FF00520070B5124B1A683123D35C002B04D1C421FF310F4800F0CEFF0C4B1D682C00B423EB582A6A944663441B68002B0BDB094B5B
:400B80001868FFF787FF6B6801229A6063689B68002BFBD100E0044870BDC04648080008F82E0010E80700080200500010B50D4B1861002805D002230370FD33437000231D
:400BC0004380094B1B6850229A5C002A08D051229B5C002B04D04F3A0449002000F092FC10BDC046E8070008480800086101000810B502481430FFF7D9FF10BDE8070008A3
:400C0000F8B54F464646C0B406000D001400002800D16FE1002A00D16EE1072903D94521B84800F06FFF2368012B03D94621B54800F068FF0F2362689A4303D04721B1488D
:400C400000F060FF237A1F22934303D04821AD4800F058FFE368032B03D94921A94800F051FF2369012B03D94A21A64800F04AFF6369012B03D94B21A24800F043FFA3697B
:400C8000012B03D94C219F4800F03CFFE369032B03D94D219B4800F035FF236A012B03D94E21984800F02EFF636A012B03D94F21944800F027FFA36A012B03D9502191484B
:400CC00000F020FFE36A032B03D951218D4800F019FF236B072B03D952218A4800F012FF2768072D03D98849884800F00BFF012F04D9CA218900854800F004FF002F03D1DF
:400D00000123AB40736002E00123AB40B3606768072D04D9F12189007C4800F0F3FE0F233A009A4303D07A49784800F0EBFEA900784B1A687D23D35C9B191A6890460F223B
:400D400091468A40404690430200484607408F4017431F60277A072D04D9A22189006B4800F0D0FE1F233A009A4303D06A49674800F0C8FE674B1A689369F31ADB0952696B
:400D80001B01D318032D0AD81968E8001F22824091431F22174087400F431F600AE02A1F5968D2001F20904081431F20074097400F435F60E768082D04D9DD21C9005348E0
:400DC00000F0A0FE032F03D95449504800F09AFE6900504B1A687C23D35C9B191A689046032291468A40404690430200484607408F4017431F602769082D03D948494348DF
:400E000000F080FE012F03D94649404800F07AFEB36901221100A9408B431740AF401F43B76163699846072D03D93F49374800F069FE4346012B03D93C49344800F062FEF8
:400E400034487E230268D35C9B191A6801273900A9408C468A43110042463A40AA400A431A606B0010229046984403210B00424693406246134399467F2203689A5C944647
:400E8000B44463461A684B469A43A3693B40AB401A43E3691940434699400A4363461A6002688023D35CF6183368FF22944693431800236A1F40636A5A00022313403B4384
:400EC000A26A9100042739400B431F00E36AD900182319403B000B43226B520161460A401343AD00FE2292001540AB4003433360002002E00E4800E00D480CBC9046994658
:400F0000F8BDC046603A001027030000A03A0010C50300004808000889020000E9060000690600006A060000030400000404000001005A0070B505000C0000285DD00029A1
:400F40005DD0FF230A689A4303D099212D4800F0D9FDFF2322699A4303D09A21294800F0D1FDA3685B0D03D09B21264800F0CAFD63685B0A03D09C21224800F0C3FDE36977
:400F80005B0F03D09D211F4800F0BCFD236A5B0F03D09E211B4800F0B5FD1B4A11688B69EB1ADB0949691B01CB18216829607D211068415C6918E06808607E211068415C82
:400FC0006918206908607F211068415C6918606908607C211068415C6918A06808606168A961116880228A5CAD18A2692A60E2691A60226A5A60002002E0044800E00348C3
:4010000070BDC046603A00104808000801005A0070B504000D000A4B1A68B423D3581B181B68002B0ADA0B0C03D00649064800F069FD2D042D0C6560002000E0034870BDC8
:4010400048080008D5020000E03A001001008A0070B505000C000368002B01DA002300E0084B002B0BD1EA60230C03D00649074800F048FD2404240CAC60002000E00148BC
:4010800070BDC04601008A00BB020000E03A001070B505000C1E03D19921084800F032FD074B1A68B423D3585B191B68002B03DAEB682360002000E0024870BD203B0010AD
:4010C0004808000801008A0070B504000D00234B1A683123D35C834236D9002936D00B68DB0635D13123D35C984204D3C421FF311B4800F007FD194B1B681A6AB0215B5A76
:401100005C431419174E34602B68DA080021686801F0C1FE00212000FFF77AFF3468002D03D111490E4800F0EDFC2A0000212000FFF78EFF00280DD10A4B18680021FFF71E
:4011400067FF002808D108E0084806E0074804E0064802E0064800E0054870BD48080008E03A0010000800089303000003018A0001018A0010B50400002A17D1002915D1B3
:40118000124B1A683123D35C984204D3C421FF310F4800F0B7FC0D4B1B681A6AB0215B5A5C4314190B4B1C6000200EE0002A09D0002909D0074B59609A60191D2000FFF726
:4011C00083FF02E0044800E0034810BD48080008E03A00100008000803018A00F0B583B00D001C4B1B68DC68236883422DD947097B01C01A012383401E00002903D100F026
:4012000040FD019001E000230193124B18680368002B01DA002300E00F4B002B0ED16368BF00DF193B68334203D0B3433B60002400E00A4C0021FFF7EBFE00E0084C002DDA
:4012400004D1019800F021FD00E0064C200003B0F0BDC0460008000801008A00020188000301880004018A000A4B1B68DA68136883420BD943095901401A0121814052681E
:401280009B009B580B4203D0034802E0034800E003487047000800080101880004018A0000018800034B1B68002B01D1014B18607047C0460C080008F0B5474680B404009F
:4012C0000F0090461E002D4B1B68002B03D1B5212B4800F017FC294B1B682C2060431C18FF22150035402560330A13406360360CA660244B1A683123D35C9D4204D3C421B1
:40130000FF31214800F0FEFB1E4B1A68B023D35A6B43116A8C466344236166683223D35C9E4204D3E021FF31174800F0EBFB154B1B681D6A80367601AD196561A668330C3B
:4013400004D0FF214900104800F0DCFB330C03D00E490D4800F0D6FB3604330C1E43AE604346E36127620023A361069B002B02D000229B5EA38104BC9046F0BD0C080008F1
:40138000603B001048080008E03A0010FF010000F0B58FB0041E03D15221294800F0B2FB6368032B03D95421254800F0ABFBE36A002B03D15821224800F0A4FB236B002BE1
:4013C00003D159211E4800F09DFB07AA1300210061C961C321C921C302AD290023001433C1CBC1C141CB41C10821535E0CAE3380144B1B6836215B5E07998C466344B370DD
:40140000089B0D930B9B0A980096A26AE16AFFF753FF2B69E868002200920021FFF74CFF216B300000F0E6FA0023F25E002A05DB1F231A401E3B9340034A13600FB0F0BDF5
:40144000603B00104808000800E100E0F8B505000F0016001C00002A03D1FD21224800F051FB224B1B68002B03D1FE211E4800F049FB1E4B1B682C21280048431818794373
:401480005918012213004D68AB401B044568AA4015000269002A20D08F69002F1FD11268002A01DA002200E0114A002A19D132681204120C134333600369DE6001238B611D
:4014C0004C6204692B0C03D00A490B4800F01AFB2A04120CA260002004E0084802E0084800E00748F8BDC046603B00100C08000801008A00BB020000E03A001004028A0095
:4015000007028A0070B504000D0016000F4B1B68002B04D1AF2149000D4800F0F3FA0B4B1B682C2060431C18236A002B04D1B1214900074800F0E6FAE369B34204D9236A36
:40154000B6009D51002000E0024870BD0C080008603B00100A028A0070B582B0040000230193002804D1D221FF312D4800F0CAFA2369002B04D1E9214900294800F0C2FA9C
:401580006369002B04D1D421FF31254800F0BAFA236A002B04D1EA214900214800F0B2FA6269D5682B0C24D01B041360136820691C4B1A68B423D358C3181B68002B18DA14
:4015C00001A9FFF765FD00280ED1019803681E0CFF221340E269934207D29B00226AD358002B02D0984700E0002631002069FFF70FFD2D042D0C0FD063691D601B68636A75
:40160000002B03D098470023636203E0A36A002B00D098470023A36163691B6802B070BD603B00104808000810B50400084B1B68002B04D1B221FF31064800F063FA044B37
:401640001B682C2060431818FFF786FF10BDC0460C080008603B001010B50400094B1B689B6CC340DB0703D4BE21074800F04AFA044B1B681B691034A402E3580F201840EC
:4016800010BDC04648080008A03B0010134B1A683C23D35C83421DD9042904D94B1EFF3B9BB2132B18D8FF290CD91F2319400C4A0300C0339B009950D030800004238350D1
:4016C00000200AE007231940D0308000044BC150002002E0034800E002487047480800080000264001004A0070B5041E03D14A494A4800F007FAB023DB00494AD358002B7E
:4017000000DA87E0474B22689A4203D94649434800F0F8F923689B039B0BE279002A02D08022520400E000221343B022D2003C498B50A2883D4B9A4204D984218900374807
:4017400000F0E0F92289344B9A4203D93849334800F0D8F9A388DB04D90C23891B04354A13400B43344A2E498B50A37A0F2B04D986218900294800F0C5F9E37A0F2B03D961
:401780002E49264800F0BEF9A289284B9A4203D92B49224800F0B6F9A37A0F211940E27A1201FF2313400B43A289120225490A401343A27B1207C02189050A401343B1228D
:4017C000D20017498B50A379042B03D91E49134800F098F9228A104B9A4204D9892189000E4800F08FF90E4818494558184B1D40A3791B02E022D20013402B43435045589F
:40180000144B1D40238A1B040A4A13402B434350002000E0104870BDFF010000E03B001000002640FFFF030009020000FF1F0000110200000000FF01840500001902000081
:401840001A02000000FF1F00230200008C050000FFF8FFFFFFFF00FE03004A0070B505003149324A8B588020000603438B502C0003E0012000F03AF9013CB223DB002A4ABC
:40188000D3585B0701D4002CF3D12749B122D2008858274B03408020800503438B50002D01D0002C0CD02049B022D2008B588020000603438B5003E0012000F017F9013CE8
:4018C000B223DB00184AD358DB0701D4002CF3D1002D01D0002C08D01349B122D2008B58C020800503438B5013E00F4BB121C90058580F4A02408020800502435A50083910
:401900005A58520052085A5008495A58520052085A50002D03D0002C03D0002002E0002000E0044870BDC046000026408C050000FFFFFFCF02004A0070B505000C001A4B1C
:401940001B6828229A5C012A15D1820807211000884327D19200AD1AED00FF20A8401B6820339A181168AC4023004B40184004004C40146016E03A229B5EDBB2994203D143
:4019800076210A4800F0BEF8074B1B681B68072215408022120615438022920194466444A400E55070BDC04648080008683C001070B504000D000B4B9A680B4B9A420CD144
:4019C000002904D13821FF31084800F09BF81034054BA400E058E55003E01034A400044BE05870BD00ED00E000000008683C001000000010F0B5474680B482B0061E019182
:401A00004AD04368032B03D93221264800F07AF80023F05E002804DBB178FFF78DFF002400E0214C0023F15E7368002912DB88081E4FC0308000C55903221140C900FC32C5
:401A400090468A4095439A01434613408B402B43C35116E089B20F220A40083A92080632920013481018476803221140C900FF252A008A4097439A012B0013408B403B4313
:401A800043600B4B9A680B4B9A4206D10023F05E0199FFF78DFF00E0034C200002B004BC9046F0BD683C00100100560000E100E000ED00E00000000810B5040006E0084BAE
:401AC000186800F0D5F8074B9C46644480231B029C42F4D8044B1868604300F0C9F810BDDC0000080080FFFFD800000810B5034B1B78584300F0BCF810BDC046D40000089D
:401B000001BEFEE770B50D00044C18220100200001F0C9F9A5610020FFF7F2FF00060008054B802212069A649B6C002B01DB002000E002487047C046000027400300460089
:401B4000054B8022120198585B68FF221A4202D08023DB021843704700002640FEE7C04610B50A4B0268DA6142681A6282685A62C2689A620269DA6242691A6382695A6353
:401B8000C2699A63FFF7EAFF10BDC04600060008F0B5474680B4002801D0192300E064238B429B415B42304D2C682268A826A45BA41822680327BA433B401A4322602C6832
:401BC0002268A45BA2181668284CA046264016602C682668AA229446A25A96193268BA43134333602A6813686546525BD3181A68444614401C60002805D010291BD921295B
:401C00001BD8012024E0184B1B6855229A5C914215D956229A5C914213D957229A5C914211D958229A5C91420FD959229B5C99420DD804200CE000200AE0022008E000207E
:401C400006E0012004E0022002E0032000E00520054A1268526813680F218B430343136004BC9046F0BDC04648080008FFFCFFFF0230800803D001300238FCD1C046C0462D
:401C80007047EFF3108072B6704780F31088704710B5B0235B059B899BB2002B04D0B0235B059B899BB201E080235B0080225200934215D1184C23681968683A9B58C918DA
:401CC0000B680F208343963A13430B6021680C689C23CB58E318196881430A431A6019E00D4C2368196898229B58C918B02040050A4BC2580A4B13400A681343C0229200B1
:401D000013430B60226811689C23D358CB18054A82581A6010BDC0464808000848180000FFFCFFFF4418000030B5B0235B059B899BB2002B04D0B0235B059B899BB201E082
:401D400080235B0080225200934215D1184C23681968683A9B58C9180B680F208343953A13430B6021680C689C23CB58E318196881430A431A6019E00D4D2B6819689822D1
:401D80009B58C918B0246405C12040012258094B13400A681343C022920013430B602A6811689C23D358CB1822581A6030BDC04648080008FFFCFFFFB0235B059B899BB21E
:401DC000002B04D0B0235B059B899BB201E080235B008022520093420DD1104B1B681A6898215B58D21811680D4B0B40C021C9010B43136011E0094B1B68196898229B5886
:401E0000C918084BB0225205D258074B13400A681343C022920013430B60704748080008FF8FFFFF18180000FFFCFFFF30B5B0235B059B899BB2002B04D0B0235B059B89D6
:401E40009BB201E080235B008022520093420DD1134B1B681A6898215B58D2181168114B0B408021C9010B43136018E00C4D2B68196898229B58C918B02464050A4822588E
:401E80000A4B13400A681343C022920013430B602A6811689C23D358CB1822581A6030BD48080008FF8FFFFF4C180000FFFCFFFF10B5B0235B059B899BB2002B04D0B02348
:401EC0005B059B899BB201E080235B0080225200934217D10020FFF7BFFBB0235B055B78002B04D0B0235B055B78DBB200E02123222B03D8002803D1013004E0012002E0B9
:401F0000002000E0012010BD10B50400012803D910491148FFF7F6FD002C03D10F4B5869C00F00E000200E4B1A684423D35C002B0ED0012C0CD1094B9B695B0005D4074BFE
:401F40009B69002B03DA012002E0012000E0002010BDC04662070000AC3C0010000026404808000870B504000D00154B1A684423D35C002B22D0072803D912491248FFF7BE
:401F8000C1FD0F4B1A684423D35C002B04D00F4B9B690722134000E0002321009C420DD00A4882690726B243344014438461002D04D0994202D9C820FFF798FD70BDC046CD
:401FC00048080008CC070000AC3C00100000264030B585B004000D00022807D9042805D0032803D02A492B48FFF78CFD6B1EDBB2012B07D9042D05D0082D03D026492548B3
:40200000FFF780FDA400254BE458042D13D0012D1CD112E0A3682B420BD1E3681A6802925B6801930393290002A8236898471B4B5C61646902E0002000E00020002C24D0CB
:40204000174B9842E6D1012DE4D11EE0022D01D104E01C006369002BFBD104E00F4B5C69002C00D0246900200DE0A3682B4209D1E3681A6802925B6801930393290002A8BC
:40208000236898472469002CEFD105B030BDC046B2090000AC3C0010B309000010080008FF00420010B5FFF7ECFD074B5A6807490A40E824A40122435A605A6811405960D7
:4020C0005B68FFF7E2FD10BD00002640FF00FC0FF8B50700012803D93D493E48FFF712FDB0235B055B78002B04D0B0235B055B78DBB200E021239DB2B0235B059B899BB292
:40210000002B04D0B0235B059E89B6B201E0802676000020FFF7A0FA002814D180235B009E4212D1222D12D82B4B1B685C682B4821582B4B19403B068022520413400B43D8
:402140002350002404E0274C02E0264C00E0254C80235B009E4201D1222D03D880235B009E4232D01C4B1A683123D35C002B04D1C421FF311C48FFF7C5FC174B1B681D6A0A
:4021800080235B009E4203D1002F05D0174A06E0002F03D0164A02E0164A00E0164A01212800FEF755FF00280FD10B4B1A68B423D3585B191B68002BF7DBEB681B0E1B0638
:4021C000A0221206934200D100242000F8BDC0464C0A0000AC3C00104808000818F00000FFFFFFFE04004200F82E0010010100300300000C010000300100000C70B5040093
:40220000022805D0052803D020492148FFF77AFCFFF74EFE002836D0FFF733FD0600022C07D10120FFF754FF051E0FD1FFF730FD0CE018494B6907229343043A13434B61EF
:402240003420FFF753FCFFF7F1FD0025002D16D110494B69072293431A000723234013434B61022C02D1FFF7A7FD08E09120FFF73DFCFFF759FD0020FFF72AFF05003000D0
:40228000FFF703FD00E0044D280070BD02070000AC3C00100000264003004200F8B50500012804D9822109012948FFF72BFCFFF7FFFD002849D0FFF7E4FC0700002D11D1E4
:4022C0000021244B244AD150E823DB00B0225205D65CF6B20120FFF7FBFE041E19D1FFF7D7FC16E0B02252051C4BD0581A4B194958501B49565CF6B21A481A581F218A4335
:4023000014390A431A500320FFF7F0FBFFF78EFD0024002C15D11049124A8B581F20834306401E438E50002D02D1FFF745FD08E00720FFF7DBFBFFF7F7FC0020FFF7C8FEE4
:4023400004003800FFF7A1FC00E0074C2000F8BDAC3C0010307F00000000264010180000410700001CFF000003004200F8B50400022806D0052804D0CC21C9003E48FFF7C5
:40238000C1FB3E4B1B681B0268D4FFF77AFC0700022C1CD13A4B394AD3581F221340E822D200B02149058A5C9A4204D00020FFF775FF050000E00025002D09D12F4830498B
:4023C00043581F229343143A1343435000E02D4D052C1BD12A4B294AD3581F221340E822D200B02149058A5C9A4204D10120FFF755FF050000E00025002D07D11F482049FA
:4024000043581F229343043A13434350002D21D10920FFF76BFB194E3368E022D20313433360726907239A431C401443746173698022D20513437361736980221206134388
:402440007361E1208000FFF751FB336880221204134333603800FFF718FC0BE0074B5B69072213409C4204D02000FFF7C7FE050000E000252800F8BDAC3C001000002640F8
:402480001CFF00000300420010B5041E03D115491548FFF737FB154B1A68D168F222D2018A5822601B68F022D201D9688A5862600F4AD9688A58A2600E4AD9688A58E26030
:4024C0000D4AD9688A5822610C4AD9688A5862610B4AD9688A58A261DA680A4BD358E36110BDC046A10A0000AC3C00104808000804780000087800000C780000107800004C
:40250000147800001878000010B5041E03D114491448FFF7F7FA144B1B68F022D201D96860688850114AD968A0688850104AD968E06888500F4AD968206988500E4AD968B1
:40254000606988500D4AD968A06988500C4AD968E0698850DA682168F223DB01D15010BDC90A0000AC3C00104808000804780000087800000C780000107800001478000028
:402580001878000070B50500012804D9A62189003548FFF7B7FA354B5B68002B05D001210120FFF715FD040000E00024002C53D1FFF767FB06002D4B5B68002B03D0042145
:4025C0000120FFF705FD2A4B1B6843229A5C002A08D09A68E023D358DB0603D523481830FFF752FFB0235B059B899BB2002B04D0B0235B059B899BB201E080235B008022C2
:402600005200934203D1280000F06EFC09E0194A116904230B431361012D01D030BF00E020BF134B1B6843229A5C002A08D09A68E023D358DB0603D50C481830FFF764FFA5
:402640003000FFF722FB094B5B68002B09D008210120FFF7BDFC04E002210120FFF7B8FC054C200070BDC046AC3C0010100800084808000800ED00E0FF004200042805D10D
:402680000B4A116804230B4313600FE0094B1A681168A023D358CB180006C022920410401860034A136804218B4313607047C04610E000E048080008F0B54F464646C0B4C2
:4026C00083B006000D0000921F00012B03D95B212B48FFF717FA330B03D05C212848FFF711FA284B1A686E23D35A9B08013B264A13432A009A4301D16B0003D45D2120488D
:40270000FFF700FA32006A40F0231B011A40141E2FD1FFF7B6FA01901A4B18686C23C15A83689C4661446E23C35A9A08013A2A40920090466A22825A15402D0A5D432A00BF
:40274000424455182A68920A9202FF231E40009B002B01D00134FF3426437F0280239B001F403E4316432E600198FFF78EFA002000E0064803B00CBC90469946F0BDC046EE
:40278000EC3C001048080008000F00400100CE000749C02252008B589B009B088020C00503438B508B588020000603438B50704700002640014B18607047C04648080008A0
:4027C00070B50D000F4B184300040F4BD861FA24A40003E0013C0120FFF788F90A4B1B6CDB0701D4002CF5D1002C08D0064B196C01220A431A64DB6A2B80002000E0034859
:4028000070BDC0460080FFFF00003C400400160010B500040E4B184001430E4BD961FA24A40003E0013C0120FFF760F9094B1B6CDB0701D4002CF5D1002C06D0054A116C5C
:4028400001230B431364002000E0034810BDC0460000FF7F00003C4004001600F0B583B006000A24C02149017548FFF7D1FF002804D16B46991D7248FFF7A2FF002C01D0D1
:40288000013C00E06F48002805D16B46DA88C0235B019A42E6D1002825D16B46991D6A48FFF78EFF00281ED16B4606331B885B0519D40A248021C9006348FFF7A9FF0028AD
:4028C00004D16B46991D6048FFF77AFF002C01D0013C00E05B48002805D16B46DA888023DB009A42E6D1002804D16B46991D5748FFF766FF002844D16B4606331B883F221D
:402900009343B278012A15D1F178012904D88FB20222D21B95B201E000250227402213439BB2302213436A46D380494BCB40494A136013E0F178002904D18FB20122D21B4F
:4029400095B201E00025012740229343102213436A46D380404BCB403E4A13606B469C1DD9883943D9803948FFF752FFF378DB1B03221340AA0092B213432380374A384964
:402980008B50B0235B055B78002B04D0B0235B055B78DBB200E02123212B4FD0314BB0225205D35A9BB2002B48D0002804D16B46991D2D48FFF704FF002824D16B469A1D5C
:4029C000DB8860218B4318001380B0256D05254C2B5B60310B405B08034324490B401380295BC901F020C00001400B43204919401180285BC0239B000340DB001943118060
:402A00001948FFF705FF002804D16B46991D1948FFF7D6FE002811D16B469A1DD988C023994311800F4BB0204005C05A302303409B00194311800F48FFF7EAFE03B0F0BD4D
:402A4000021E000004001600031E0000091E00000048E801C00000080024F40064F0010000003C4016180000071E00007FF5FFFFFFE7FFFF061E000070B50C004000084963
:402A800001430848FFF7C4FE051E04D106490748FFF7BEFE05006001FFF728F8280070BD01100000081E0000376800000F1E0000F0B59DB013A9144B0A00180070C870C215
:402AC00070C870C270C870C20AAD28001A002432D0CAD0C0D0CAD0C0D0CAD0C001AC22004833C1CBC1C2C1CBC1C2C1CBC1C20748FEF720FA29000648FEF71CFA2100054870
:402B0000FEF718FA1DB0F0BDA03E0010000132408001324000023240F8B5051E00D1DDE0734B5B689B0301D5FFF7BCFA714C03E0013C0120FEF7DAFF6F4B704AD358002BB7
:402B400001D0002CF4D16E4B6C4AD358DB0704D56C4BD358DB0700D5C2E0674B674AD358002B00D0BEE0FFF7A3FF644B6649674A99502A78A02109030A4365495A5065498A
:402B8000654A9950802252009B58DB0700D5ABE0624B1B6F1B0709D4614B1868614B984206D9190000F0E2F8013802E0012000E00020524B1B68002803D040035A4A104319
:402BC00000E05A4818434D4B1860494B5B695B0017D501210320FFF7C5F9454B5B699B0F01221340524A116844228A5C002A0ED0002B0CD03E4A93698021C9050B43936137
:402C000005E03E494B4A8858032303438B503B4C3B4AA658484B3343A3504020FEF766FF464BE358DB070BD42700444C01233B514020FEF75BFF03233B514020FEF756FFAD
:402C40003F4F37403F4E3E432D4B2C4AD650FA24E40003E0013C0120FEF748FF3A4B3B4AD358DB0601D4002CF4D1002C01D0002400E0374C002C23D12049364A885808233A
:402C800003438B500120FFF73FF9002801D1324E3E43324B1E4001231E43194B174AD650144E03E0013E0120FEF720FF154B134AD358DB0701D4002EF4D1002E00D1244CA4
:402CC000002C03D12800FFF7C9FD0400002C0CD168782978FFF7D0FE040006E0204C04E0204C02E01F4C00E01F4C2000F8BDC04600002640F07E0E006CF0010000003C40CA
:402D0000A0F00100B4F0010006000001A4F00100A8F0010001000100ACF0010000F03D40C800000800093D00041A0080040A008048080008C4F0010030000300B0F00100F9
:402D4000EFFFFEFF2000020010400000000032400400160068F0010028000200FFFFFBFF010016000300160002001600002243088B4274D303098B425FD3030A8B4244D32A
:402D8000030B8B4228D3030C8B420DD3FF22090212BA030C8B4202D31212090265D0030B8B4219D300E0090AC30B8B4201D3CB03C01A5241830B8B4201D38B03C01A5241E6
:402DC000430B8B4201D34B03C01A5241030B8B4201D30B03C01A5241C30A8B4201D3CB02C01A5241830A8B4201D38B02C01A5241430A8B4201D34B02C01A5241030A8B42AD
:402E000001D30B02C01A5241CDD2C3098B4201D3CB01C01A524183098B4201D38B01C01A524143098B4201D34B01C01A524103098B4201D30B01C01A5241C3088B4201D3A1
:402E4000CB00C01A524183088B4201D38B00C01A524143088B4201D34B00C01A5241411A00D20146524110467047FFE701B5002000F006F802BDC0460029F7D076E77047CB
:402E80007047C046002310B59A4203D0CC5CC4540133F9E710BD03008218934202D019700133FAE77047030030B5002A0DD00C7801335D1E013A2C700131002CF5D19A1835
:402EC0009A4202D01C700133FAE730BDF8B5C046F8BC08BC9E467047F8B5C046F8BC08BC9E4670470000000001B40248844601BC604700BF3503000847656E6572617465B3
:402F0000645F536F757263655C50536F43365C70646C5C647269766572732F7065726970686572616C2F6970632F63795F6970635F6472762E6800000300000001000000CE
:402F4000010000000000000005036000040000000100000000000000010000000604600008000000C8070008FD01001073797374656D5F70736F63365F636D30706C757379
:402F80002E63000019200102F4010000140004010A0009050800000063010000002034407400802034407400002234407400802234407400002434407400802434407400F6
:402FC000002634407400802634407400002834407400802834407400002A34407400802A3440740000213440303100109000000000233440C031001090000000002534409A
:40300000503200109000000000273440E032001090000000002934407033001090000000002B3440003400109000000000603440903400107C000000806034400C35001005
:403040007C00000000613440883500107C00000080613440043600107C00000000623440803600107C00000080623440FC3600107C00000000633440783700107C0000005D
:4030800080633440F43700107C00000000643440703800107C00000080643440EC3800107C00000000653440683900107C00000080653440E43900107C000000683000004E
:4030C00001713440220000000000000000000000680060080000000000000000000000001212000000000000030000000800000080000000CC8000BA000000000000000043
:40310000000000001313000000001D1D1C0000000000000000000000006606000000000000000000000000000000030000000000000000000000000000000000FFFFFFFFA8
:40314000FFFFFFFFFFFFFFFFFFFFFFFFFFFFFFFFFF000000FFFFFFFFFFFFFFFFFFFFFFFFFFFFFFFFFFFFFFFFFF000000000000000000000000000000000000000000000075
:4031800000000000FFFFFFFFFFFFFFFFFFFFFFFF111111111111111111111111111111111111111111111111111111111111111111111111111111111111111111111111EB
:4031C000000000000000000000000000FFFFFFFFFFFFFFFFFFFFFFFFFFFFFFFFFFFFFFFFFF000000FFFFFFFFFFFFFFFFFFFFFFFFFFFFFFFFFFFFFFFFFF00000000000000F9
:403200000000000000000000000000000000000000000000FFFFFFFFFFFFFFFFFFFFFFFF11111111111111111111111111111111111111111111111111111111111111117A
:4032400011111111111111111111111111111111000000000000000000000000FFFFFFFFFFFFFFFFFFFFFFFFFFFFFFFFFFFFFFFFFF000000FFFFFFFFFFFFFFFFFFFFFFFF5F
:40328000FFFFFFFFFFFFFFFFFF0000000000000000001F0000000000000000000000000000000000FFFFFFFFFFFFFFFFFFFFFFFF1111111101111111111111111111111104
:4032C0001111111111111111111111111111111111111111111111111111111111111111000000000000000000000000FFFFFFFFFFFFFFFFFFFFFFFFFFFFFFFFFFFFFFFFC2
:40330000FF000000FFFFFFFFFFFFFFFFFFFFFFFFFFFFFFFFFFFFFFFFFF00000000000000061F001F000000070007001F000000F000000700FFFDFFFFFFFFFFFFFFEFFFFF59
:40334000111111111111111111111111111111111111111111111111111111111111111111111111111111111111001111011111900096090000000000000000FFFFFFFF13
:40338000FFFFFFFFFFFF0FFFFFFFFFFFFFFFFFFFFF000000FFFFFFFFFFFFFFFFFFFFFFFFFFFFFFFFFFFFFFFFFF000000001F1F001F00001F1F00001F0000000050000FF01A
:4033C00000000000FFFFFFFFFFFFFFFFFFFFCFF71111110111111D111111111111111111111111111111111111111111111161111111111111111111111111111111111195
:40340000000018200000000000000010FFFF77FFF56FFFFFFFFFFFFFF6F7FFF7FFFFFF6F7F000000FFFFFFFFFFFFFFFFFFFFFFFFFFFFFFFFFFFFFFFFFF00000006071F1F6E
:403440001F1F1F0000000000071F000000050F00F00000007FFFFFFFFFFFFFFFFFFFFFFE111111111111111111111111111111111111111111111111111111111111111132
:40348000171111B1131111111EB111E11191E17200000000000000001F1F1F1F1F1F1F1F1F1F1F1F1F1F1F1F1F1F1F1F1F1F1F1F1F1F1F1F1F1F1F1F000000000000000046
:4034C00000000000000000000000000000000000FFFFFFFFFFFFFFFFFFFFFFFF11111111111111111111111111111111111111111111111111111111111111111111111174
:4035000011111111111111111111111100000000000000001F1F1F1F1F1F1F1F1F1F1F1F1F1F1F1F1F1F1F1F1F1F1F1F1F1F1F1F1F1F1F1F000000000000000000000000DF
:40354000000000000000000000000000FFFFFFFFFFFFFFFFFFFFFFFF11111111111111111111111111111111111111111111111111111111111111111111111111111111AF
:40358000111111111111111100000000000000001F1F1F1F1F1F1F1F1F1F1F1F1F1F1F1F1F1F1F1F1F1F1F1F1F1F1F1F1F1F1F1F0000000000000E00000000000000000095
:4035C0000000000000000000FFFFFFFFFFFFFFFFFFFFFFFF1111111111111111111111111111111111111111111111111111111111111111111111111111111111111111EB
:403600001111111100000000000000001F1F1F1F1F1F1F1F1F1F1F1F1F1F1F1F1F1F1F1F1F1F1F1F1F1F1F1F1F1F1F1F00000000000E000F000000000000000F00000040FA
:4036400000000000FFFFFFFFFFFFFFFFFFFFFFFF111111111111111111111111111111111111111111111111111111111111111111111111111111111F1111111111111118
:4036800000000000000000201F1F1F1F1F1F1F1F1F1F0D1F1F1F1F1F1F1F1F1F1F1F1F1F1F1F1F1F1F1F1F1F001F00000000041F1F00001F00000000F00000F200000000BA
:4036C000FFFFFFFFFFFFEF7FFFFFFFF711111111111111111111111111111111111D11111111111111111111111111111111111E111111111D711111ED11111100000000DD
:40370000000000081F1F1F071F1F1F1F1F1F1F1F1F1F1F1F1F1F1F0F1F1F1F1F1F1F1F1F1F1F1F1F001F07001F06040000000000001F0000000F070050000000FFFFFFFFF9
:40374000FFFFFFFFFFFFF7FF11111111111111111111111111111111111111111111111111111111141111011111111111111111111ED1111101111E00000000000000006C
:403780001F1F1F1F1F1F1F1F1F1F1F1F1F1F1F1F1F1F1F1F1F1F1F1F1F1F1F1F1F1F1F1F000000000000000000000000000000000000000000000000FFFFFFFFFFFFFFFF31
:4037C000FFFFFFFF11111111111111111111111111111111111111111111111111111111111111111111111111111111111111111111111100000000000000001F1F1F1F21
:403800001F1F1F1F071F1F1F1F1F1F1F1F1F1F1F1F1F1F1F1F1F1F1F1F1F1F1F000000000000000000000000000000000000000000000000FFFFFFFFFFFFFFFFFFFFFFFF48
:4038400011111111111111111111111111111111111111111111111111111111111111111111111111111111111111111111110100000000000000801F1F1F1F1F1F1F1FB0
:403880001F1F1F1F1F1F1F1F1F1F1F1F1F1F1F1F1F1F1F1F1F1F1F1F0000000000001F000000001F000000000000000000000000FFFFFFFFFFFFFFFFFFFFFF7F111111112A
:4038C0001111111111111111111111111111111111111111111E1111111111111111111111111111111111111111111100000000000000041F1F1F1F1F1F1F1F1F1F1F1F57
:403900001F1F1F1F1F1F1F1F1F1F171F1F081F1F1F1F1F1F000000000000001F0000001F071F001F000000F000000F00FFFFFFFFFFFFFFFFFFFFFFFF11111111E11111116C
:4039400011111111111111111111111111111111111F111111111117111111E1111D1111111E11171E11DE1100000000000000001F051F1F1F1F1F1F1F1F1F1F1F1F1F1FEC
:403980001F1F1F1F1F1F1F1F1F1F1F1F1F1F1F1F000F0E000F00000D0E00000C000000000000075000000000FFFFFFFFFFFFFFFFFFFFFFFF111111111111111111111111AD
:4039C0001111111111111111111111111111111111111114111111F111111111111111131111111100000000000000021F1F1F1F1F1F1F1F1F1F1F1F1F1F1F1F1F1F1F1F10
:403A00001F1F1F1F1F1F1F1F1F1F171F00001F0607000000000000000007000000000F00F0000000FFFFFFFFFFFFFFFFFFDFFFFF1111111111111111111111111111111104
:403A40001111111111111111111111111111111111111111111111111111111111D118D147656E6572617465645F536F757263655C50536F43365C70646C5C647269766547
:403A800072735C7065726970686572616C5C6770696F5C63795F6770696F2E630000000047656E6572617465645F536F757263655C50536F43365C70646C5C64726976655F
:403AC00072735C7065726970686572616C5C6770696F5C63795F6770696F2E680000000047656E6572617465645F536F757263655C50536F43365C70646C5C64726976651A
:403B000072735C7065726970686572616C5C6970635C63795F6970635F6472762E68000047656E6572617465645F536F757263655C50536F43365C70646C5C647269766514
:403B400072735C7065726970686572616C5C6970635C63795F6970635F6472762E63000047656E6572617465645F536F757263655C50536F43365C70646C5C6472697665D9
:403B800072735C7065726970686572616C5C6970635C63795F6970635F706970652E630047656E6572617465645F536F757263655C50536F43365C70646C5C647269766537
:403BC00072735C7065726970686572616C5C70726F745C63795F70726F742E630000000047656E6572617465645F536F757263655C50536F43365C70646C5C6472697665F2
:403C000072735C7065726970686572616C5C737973636C6B5C63795F737973636C6B2E630000000047656E6572617465645F536F757263655C50536F43365C70646C5C64BF
:403C40007269766572735C7065726970686572616C5C737973636C6B5C63795F737973636C6B2E680000000047656E6572617465645F536F757263655C50536F43365C7054
:403C8000646C5C647269766572735C7065726970686572616C5C737973696E745C63795F737973696E742E630000000047656E6572617465645F536F757263655C50536FAC
:403CC00043365C70646C5C647269766572735C7065726970686572616C5C737973706D5C63795F737973706D2E63000047656E6572617465645F536F757263655C50536F03
:403D000043365C70646C5C647269766572735C7065726970686572616C5C747269676D75785C63795F747269676D75782E63000000002040000024400000004000000000E3
:403D400000002340000030400000314000009F40000022400000104002020202020202020210101D800017007500FF030602063604102000000000007FC000000004000056
:403D8000000000000019324B647D00804000080B100000000000FF012002001F00800004FF081018001000140018001C4044484C50000000081000000800000004000000D1
:403DC000041000000012000004210000002100000016000040114002C41300138013A013200000001C000000000021400000254000000140000034400000244000003140F2
:403E00000000324000001F410000234000001140010101010101010101101010800019005500F0000501053B04101C01010000000FC000000004000001010101011D3A57E7
:403E4000789600082000101208000000001F00000010000F002000023F06080E00080009000A000B24282C3034000000100000009000000088000000080000008000000075
:403E800004F0000000F00000400200002005A000D00100018001A001200000001000000000000000000000000000000066666666000000000000FFFF000000001C1C1C1CED
:403EC0001C1C1C1C00000000000000000000000066E6EE66000000000000FFFF000000001C1A1A1A1A1A000000000000000000000000000066E66666000000000000FFFF00
:403F0000000000001A1A001C00000000000000000000001000000008C0000000303F0010C0000008400500003C0600081002000000127A0000127A0000093D0000093D00CD
:403F400000093D0004000000A00F00000000D007E9000010C10000100000000010B50004400B27D0144B1A68146AB023D15ACA00531AE3181B68002BF4DA3E220F4B1A605D
:403F80000F4A104B1A60104B0621A322D20099500E4A98509B58084B1A68106AB023D15ACA00531AC31800225A60084B064AD358002BFADA10BDC046480800080401264000
:403FC0001E1F000008012640000026401C05000010B54378FF2B20D100F02AFA04000F4B1A683123D35C042B04D8C421FF310C4800F0FEF9094B1A68116AB023D35A9B0035
:40400000CB18DB685A68116801230B4313601368DB07FCD4200000F0F3F910BD48080008F82E0010F0B585B001900291544B1A683123D35C002B04D1C421FF31514800F076
:40404000D7F94F4B1B681E6AB4229A58971950229B5C002B77D000F0FBF9050003283CD1474B1A683123D35C062B04D8C421FF31444800F0BDF9424B1968B023CB5A5A000C
:40408000D21853000A6A94466344B4228A58D3181B68002B23DB002000F0D2F93A4B98421FD03A4B1A6900230021012000F0D8F9002803D0364C17E0013400E0002400205B
:4040C00000F0BEF9304B984202D0324B9C42F3D9304B9C4207D92E4C06E0002404E02C4C02E02B4C00E00024002C46D100F0A0F90390294B294AD358002B13DA234A01213D
:40410000300000F085F900280ED10298FFF726FF019B002B0AD03B68002BFCDB00F060F9040004E01A4C02E0194C00E01C4C032D05D10121002000F073F90028F9D1039888
:4041400000F05EF919E000F073F905000F4A0121300000F05DF9002809D1019B002B08D03B68002BFCDB00F03BF9040002E0084C00E00B4C280000F043F9200005B0F0BDFC
:4041800048080008F82E001001018800E807000805005200EF4902001C0500000000264001005000F0B54F464646C0B4824B1A685468B0235B055B78002B04D0B0235B050A
:4041C0005B78DBB200E02123212B67D1B023D15ACB005B1A116A8C46634419680029F5DADD6802212943D960B023D15ACB005B1A116A8C466344D968C9073ED5D96809045B
:40420000090C8C4684271168D559A84641440968090A0904FF26360431400D0088261168894691598846C14449460968090A0906294365462943D9601168D359C9180A68DB
:404240005E4B98461A4090252D012A430A605A4B99461A6813689C46925962441368414619400B002B4313604B461A681568D15969180B689359EB181B684F4B1A68B0215B
:40428000555AEB005B1B156AAC46634400255D60156A515ACA00531AEB185B68484A116904230B431361012801D030BF00E020BF414B1A68B023D15ACB005B1A116A8C4697
:4042C000634419680029F3DAB02149054978002904D0B02149054978C9B200E02121212932D1D968C90722D510688421525880180468324A1440DB681B0C1B02FF210902A4
:404300000B40234303602C4B19688823C8580B689C46604403681A400D6AB023CC5AE1000B1BEB18DB681B0E1B021A430260224B1A68106AB023D15ACA00531AC318DA686B
:4043400002218A43DA6028E086235B00E358002B23D11C4807681C4BA321C9005E581B4A904615681A4A0260062058503E21424611600631174A9950164B134AD358002BF7
:40438000FADA154A86235B00E2500E4B1F60A323DB000D4AD6500D4B1D60074B1A68106AB023D15ACA00531AC31800225A600CBC90469946F0BDC04648080008FF00FFFF0A
:4043C00000ED00E00801264000002640040126401E1F00001C050000AAAAAAAA0000000001B40248844601BC604700BF510B001001B40248844601BC604700BF051B001036
:4044000001B40248844601BC604700BF8B1C001001B40248844601BC604700BF5110001001B40248844601BC604700BFDD11001001B40248844601BC604700BF831C0010F7
:4044400001B40248844601BC604700BF6912001001B40248844601BC604700BF8104001001B40248844601BC604700BF4D14001000000000000000000000000000000000E7
:4044800000000000000000000000000000000000000000000000000000000000000000000000000000000000000000000000000000000000000000000000000000000000FC
:4044C00000000000000000000000000000000000000000000000000000000000000000000000000000000000000000000000000000000000000000000000000000000000BC
:40450000000000000000000000000000000000000000000000000000000000000000000000000000000000000000000000000000000000000000000000000000000000007B
:40454000000000000000000000000000000000000000000000000000000000000000000000000000000000000000000000000000000000000000000000000000000000003B
:4045800000000000000000000000000000000000000000000000000000000000000000000000000000000000000000000000000000000000000000000000000000000000FB
:4045C00000000000000000000000000000000000000000000000000000000000000000000000000000000000000000000000000000000000000000000000000000000000BB
:0200000490303A
:020000002EFCD4
:0200000490501A
:0C0000000005E20721002101E21C4FFC7A
:00000001FF